{
	"data": {
		"bytecode": {
			"linkReferences": {},
			"object": "60806040523480156200001157600080fd5b50604051620029f3380380620029f38339818101604052810190620000379190620003a2565b8760009081620000489190620006cb565b5086600160006101000a81548173ffffffffffffffffffffffffffffffffffffffff021916908373ffffffffffffffffffffffffffffffffffffffff16021790555085600260006101000a81548173ffffffffffffffffffffffffffffffffffffffff021916908373ffffffffffffffffffffffffffffffffffffffff1602179055508460038190555083600481905550826005819055506000600660006101000a81548160ff021916908315150217905550600060078190555081600860006101000a81548160ff021916908315150217905550806009819055505050505050505050620007b2565b6000604051905090565b600080fd5b600080fd5b600080fd5b600080fd5b6000601f19601f8301169050919050565b7f4e487b7100000000000000000000000000000000000000000000000000000000600052604160045260246000fd5b6200019b8262000150565b810181811067ffffffffffffffff82111715620001bd57620001bc62000161565b5b80604052505050565b6000620001d262000132565b9050620001e0828262000190565b919050565b600067ffffffffffffffff82111562000203576200020262000161565b5b6200020e8262000150565b9050602081019050919050565b60005b838110156200023b5780820151818401526020810190506200021e565b60008484015250505050565b60006200025e6200025884620001e5565b620001c6565b9050828152602081018484840111156200027d576200027c6200014b565b5b6200028a8482856200021b565b509392505050565b600082601f830112620002aa57620002a962000146565b5b8151620002bc84826020860162000247565b91505092915050565b600073ffffffffffffffffffffffffffffffffffffffff82169050919050565b6000620002f282620002c5565b9050919050565b6200030481620002e5565b81146200031057600080fd5b50565b6000815190506200032481620002f9565b92915050565b6000819050919050565b6200033f816200032a565b81146200034b57600080fd5b50565b6000815190506200035f8162000334565b92915050565b60008115159050919050565b6200037c8162000365565b81146200038857600080fd5b50565b6000815190506200039c8162000371565b92915050565b600080600080600080600080610100898b031215620003c657620003c56200013c565b5b600089015167ffffffffffffffff811115620003e757620003e662000141565b5b620003f58b828c0162000292565b9850506020620004088b828c0162000313565b97505060406200041b8b828c0162000313565b96505060606200042e8b828c016200034e565b9550506080620004418b828c016200034e565b94505060a0620004548b828c016200034e565b93505060c0620004678b828c016200038b565b92505060e06200047a8b828c016200034e565b9150509295985092959890939650565b600081519050919050565b7f4e487b7100000000000000000000000000000000000000000000000000000000600052602260045260246000fd5b60006002820490506001821680620004dd57607f821691505b602082108103620004f357620004f262000495565b5b50919050565b60008190508160005260206000209050919050565b60006020601f8301049050919050565b600082821b905092915050565b6000600883026200055d7fffffffffffffffffffffffffffffffffffffffffffffffffffffffffffffffff826200051e565b6200056986836200051e565b95508019841693508086168417925050509392505050565b6000819050919050565b6000620005ac620005a6620005a0846200032a565b62000581565b6200032a565b9050919050565b6000819050919050565b620005c8836200058b565b620005e0620005d782620005b3565b8484546200052b565b825550505050565b600090565b620005f7620005e8565b62000604818484620005bd565b505050565b5b818110156200062c5762000620600082620005ed565b6001810190506200060a565b5050565b601f8211156200067b576200064581620004f9565b62000650846200050e565b8101602085101562000660578190505b620006786200066f856200050e565b83018262000609565b50505b505050565b600082821c905092915050565b6000620006a06000198460080262000680565b1980831691505092915050565b6000620006bb83836200068d565b9150826002028217905092915050565b620006d6826200048a565b67ffffffffffffffff811115620006f257620006f162000161565b5b620006fe8254620004c4565b6200070b82828562000630565b600060209050601f8311600181146200074357600084156200072e578287015190505b6200073a8582620006ad565b865550620007aa565b601f1984166200075386620004f9565b60005b828110156200077d5784890151825560018201915060208501945060208101905062000756565b868310156200079d578489015162000799601f8916826200068d565b8355505b6001600288020188555050505b505050505050565b61223180620007c26000396000f3fe6080604052600436106101405760003560e01c80636f7bc9be116100b6578063a223565e1161006f578063a223565e14610441578063a6f2ae3a1461046a578063c0cf0c6314610474578063cc7c19ce1461049f578063cca16a9f146104de578063d59624b41461050957610140565b80636f7bc9be1461032b5780637072c6b11461036a5780637c3a00fd146103955780637f2b6a0d146103c0578063887b6abc146103eb5780638d5c707d1461041657610140565b806333713e961161010857806333713e96146102415780633d5bc64014610258578063492d5093146102835780634b1533b2146102ac57806355dce5e9146102d757806361bc1a491461030057610140565b806307e45ffe146101455780631755ff21146101825780631a0559f2146101ad5780631d143848146101d65780631da8ca2214610201575b600080fd5b34801561015157600080fd5b5061016c6004803603810190610167919061194b565b610534565b6040516101799190611991565b60405180910390f35b34801561018e57600080fd5b5061019761054c565b6040516101a49190611a0b565b60405180910390f35b3480156101b957600080fd5b506101d460048036038101906101cf9190611a52565b610572565b005b3480156101e257600080fd5b506101eb61087a565b6040516101f89190611aa1565b60405180910390f35b34801561020d57600080fd5b5061022860048036038101906102239190611abc565b6108a0565b6040516102389493929190611b04565b60405180910390f35b34801561024d57600080fd5b5061025661090d565b005b34801561026457600080fd5b5061026d610bf1565b60405161027a9190611b6a565b60405180910390f35b34801561028f57600080fd5b506102aa60048036038101906102a5919061194b565b610c17565b005b3480156102b857600080fd5b506102c1610c5b565b6040516102ce9190611991565b60405180910390f35b3480156102e357600080fd5b506102fe60048036038101906102f9919061194b565b610c61565b005b34801561030c57600080fd5b50610315610ca5565b6040516103229190611991565b60405180910390f35b34801561033757600080fd5b50610352600480360381019061034d919061194b565b610cab565b60405161036193929190611b85565b60405180910390f35b34801561037657600080fd5b5061037f610ce2565b60405161038c9190611bbc565b60405180910390f35b3480156103a157600080fd5b506103aa610cf5565b6040516103b79190611991565b60405180910390f35b3480156103cc57600080fd5b506103d5610cfb565b6040516103e29190611bbc565b60405180910390f35b3480156103f757600080fd5b50610400610d0e565b60405161040d9190611c67565b60405180910390f35b34801561042257600080fd5b5061042b610d9c565b6040516104389190611aa1565b60405180910390f35b34801561044d57600080fd5b5061046860048036038101906104639190611abc565b610dc2565b005b610472610ed1565b005b34801561048057600080fd5b5061048961113a565b6040516104969190611991565b60405180910390f35b3480156104ab57600080fd5b506104c660048036038101906104c1919061194b565b6111d8565b6040516104d593929190611b85565b60405180910390f35b3480156104ea57600080fd5b506104f361131a565b6040516105009190611991565b60405180910390f35b34801561051557600080fd5b5061051e611320565b60405161052b9190611991565b60405180910390f35b600c6020528060005260406000206000915090505481565b600d60009054906101000a900473ffffffffffffffffffffffffffffffffffffffff1681565b60001515600860009054906101000a900460ff16151514806105b8575060011515600860009054906101000a900460ff1615151480156105b757506105b633611326565b5b5b6105f7576040517f08c379a00000000000000000000000000000000000000000000000000000000081526004016105ee90611cfb565b60405180910390fd5b60011515600860009054906101000a900460ff16151514801561062f575061061e336113cb565b8061062e575061062d33611470565b5b5b61066e576040517f08c379a000000000000000000000000000000000000000000000000000000000815260040161066590611d8d565b60405180910390fd5b600660009054906101000a900460ff16156106be576040517f08c379a00000000000000000000000000000000000000000000000000000000081526004016106b590611df9565b60405180910390fd5b60008211610701576040517f08c379a00000000000000000000000000000000000000000000000000000000081526004016106f890611e65565b60405180910390fd5b60008111610744576040517f08c379a000000000000000000000000000000000000000000000000000000000815260040161073b90611ed1565b60405180910390fd5b600a60405180608001604052803373ffffffffffffffffffffffffffffffffffffffff16815260200184815260200183815260200160011515815250908060018154018082558091505060019003906000526020600020906004020160009091909190915060008201518160000160006101000a81548173ffffffffffffffffffffffffffffffffffffffff021916908373ffffffffffffffffffffffffffffffffffffffff160217905550602082015181600101556040820151816002015560608201518160030160006101000a81548160ff02191690831515021790555050503373ffffffffffffffffffffffffffffffffffffffff167f511ab2bd405b50b3ebc0f0f061159fd391c1aa6ab582ddb632f6ddeb94c53549838360405161086e929190611ef1565b60405180910390a25050565b600160009054906101000a900473ffffffffffffffffffffffffffffffffffffffff1681565b600a81815481106108b057600080fd5b90600052602060002090600402016000915090508060000160009054906101000a900473ffffffffffffffffffffffffffffffffffffffff16908060010154908060020154908060030160009054906101000a900460ff16905084565b60001515600860009054906101000a900460ff1615151480610953575060011515600860009054906101000a900460ff161515148015610952575061095133611326565b5b5b610992576040517f08c379a000000000000000000000000000000000000000000000000000000000815260040161098990611cfb565b60405180910390fd5b60011515600860009054906101000a900460ff1615151480156109ca57506109b9336113cb565b806109c957506109c833611470565b5b5b610a09576040517f08c379a0000000000000000000000000000000000000000000000000000000008152600401610a0090611d8d565b60405180910390fd5b600660009054906101000a900460ff1615610a59576040517f08c379a0000000000000000000000000000000000000000000000000000000008152600401610a5090611df9565b60405180910390fd5b6000600c60003373ffffffffffffffffffffffffffffffffffffffff1673ffffffffffffffffffffffffffffffffffffffff1681526020019081526020016000205411610adb576040517f08c379a0000000000000000000000000000000000000000000000000000000008152600401610ad290611f66565b60405180910390fd5b6000600c60003373ffffffffffffffffffffffffffffffffffffffff1673ffffffffffffffffffffffffffffffffffffffff1681526020019081526020016000205490506000600c60003373ffffffffffffffffffffffffffffffffffffffff1673ffffffffffffffffffffffffffffffffffffffff168152602001908152602001600020819055503373ffffffffffffffffffffffffffffffffffffffff167f015754ede06947eed80e5c3e7253a49d1c17ce35ad97fa6011c92148d7bf4ccc60405160405180910390a23373ffffffffffffffffffffffffffffffffffffffff166108fc829081150290604051600060405180830381858888f19350505050158015610bed573d6000803e3d6000fd5b5050565b600e60009054906101000a900473ffffffffffffffffffffffffffffffffffffffff1681565b80600e60006101000a81548173ffffffffffffffffffffffffffffffffffffffff021916908373ffffffffffffffffffffffffffffffffffffffff16021790555050565b60035481565b80600d60006101000a81548173ffffffffffffffffffffffffffffffffffffffff021916908373ffffffffffffffffffffffffffffffffffffffff16021790555050565b60075481565b600b6020528060005260406000206000915090508060000154908060010154908060020160009054906101000a900460ff16905083565b600860009054906101000a900460ff1681565b60045481565b600660009054906101000a900460ff1681565b60008054610d1b90611fb5565b80601f0160208091040260200160405190810160405280929190818152602001828054610d4790611fb5565b8015610d945780601f10610d6957610100808354040283529160200191610d94565b820191906000526020600020905b815481529060010190602001808311610d7757829003601f168201915b505050505081565b600260009054906101000a900473ffffffffffffffffffffffffffffffffffffffff1681565b60001515600860009054906101000a900460ff1615151480610e08575060011515600860009054906101000a900460ff161515148015610e075750610e0633611326565b5b5b610e47576040517f08c379a0000000000000000000000000000000000000000000000000000000008152600401610e3e90611cfb565b60405180910390fd5b60008111610e8a576040517f08c379a0000000000000000000000000000000000000000000000000000000008152600401610e8190611e65565b60405180910390fd5b80600c60003373ffffffffffffffffffffffffffffffffffffffff1673ffffffffffffffffffffffffffffffffffffffff1681526020019081526020016000208190555050565b60001515600860009054906101000a900460ff1615151480610f17575060011515600860009054906101000a900460ff161515148015610f165750610f1533611326565b5b5b610f56576040517f08c379a0000000000000000000000000000000000000000000000000000000008152600401610f4d90611cfb565b60405180910390fd5b60011515600860009054906101000a900460ff161515148015610f8e5750610f7d336113cb565b80610f8d5750610f8c33611470565b5b5b610fcd576040517f08c379a0000000000000000000000000000000000000000000000000000000008152600401610fc490611d8d565b60405180910390fd5b600660009054906101000a900460ff161561101d576040517f08c379a000000000000000000000000000000000000000000000000000000000815260040161101490611df9565b60405180910390fd5b60003411611060576040517f08c379a000000000000000000000000000000000000000000000000000000000815260040161105790612032565b60405180910390fd5b34600b60003373ffffffffffffffffffffffffffffffffffffffff1673ffffffffffffffffffffffffffffffffffffffff16815260200190815260200160002060000160008282546110b29190612081565b925050819055503373ffffffffffffffffffffffffffffffffffffffff16600073ffffffffffffffffffffffffffffffffffffffff167fddf252ad1be2c89b69c2b068fc378daa952ba7f163c4a11628f55a4df523b3ef346040516111179190611991565b60405180910390a360095461112a61113a565b1061113857611137611515565b5b565b6000806000905060005b600a805490508110156111d057600a8181548110611165576111646120b5565b5b906000526020600020906004020160030160009054906101000a900460ff16156111bd57600a818154811061119d5761119c6120b5565b5b906000526020600020906004020160010154826111ba9190612081565b91505b80806111c8906120e4565b915050611144565b508091505090565b600080600080600090505b600a80549050811015611306578473ffffffffffffffffffffffffffffffffffffffff16600a828154811061121b5761121a6120b5565b5b906000526020600020906004020160000160009054906101000a900473ffffffffffffffffffffffffffffffffffffffff1673ffffffffffffffffffffffffffffffffffffffff16036112f357600a818154811061127c5761127b6120b5565b5b906000526020600020906004020160010154600a82815481106112a2576112a16120b5565b5b906000526020600020906004020160020154600a83815481106112c8576112c76120b5565b5b906000526020600020906004020160030160009054906101000a900460ff1693509350935050611313565b80806112fe906120e4565b9150506111e3565b5060008060009250925092505b9193909250565b60095481565b60055481565b6000600d60009054906101000a900473ffffffffffffffffffffffffffffffffffffffff1673ffffffffffffffffffffffffffffffffffffffff16633af32abf836040518263ffffffff1660e01b81526004016113839190611aa1565b602060405180830381865afa1580156113a0573d6000803e3d6000fd5b505050506040513d601f19601f820116820180604052508101906113c49190612158565b9050919050565b6000600d60009054906101000a900473ffffffffffffffffffffffffffffffffffffffff1673ffffffffffffffffffffffffffffffffffffffff16632d598d7b836040518263ffffffff1660e01b81526004016114289190611aa1565b602060405180830381865afa158015611445573d6000803e3d6000fd5b505050506040513d601f19601f820116820180604052508101906114699190612158565b9050919050565b6000600d60009054906101000a900473ffffffffffffffffffffffffffffffffffffffff1673ffffffffffffffffffffffffffffffffffffffff166390583284836040518263ffffffff1660e01b81526004016114cd9190611aa1565b602060405180830381865afa1580156114ea573d6000803e3d6000fd5b505050506040513d601f19601f8201168201806040525081019061150e9190612158565b9050919050565b60005b600a805490508110156118e557600954600a828154811061153c5761153b6120b5565b5b906000526020600020906004020160010154116118d2576000600a8281548110611569576115686120b5565b5b906000526020600020906004020160020154600a838154811061158f5761158e6120b5565b5b9060005260206000209060040201600101546115ab9190612185565b90506000600a83815481106115c3576115c26120b5565b5b906000526020600020906004020160030160006101000a81548160ff0219169083151502179055506000600a8381548110611601576116006120b5565b5b9060005260206000209060040201600101819055506000600a838154811061162c5761162b6120b5565b5b906000526020600020906004020160020181905550600a8281548110611655576116546120b5565b5b906000526020600020906004020160000160009054906101000a900473ffffffffffffffffffffffffffffffffffffffff1673ffffffffffffffffffffffffffffffffffffffff166108fc829081150290604051600060405180830381858888f193505050501580156116cc573d6000803e3d6000fd5b50600a82815481106116e1576116e06120b5565b5b906000526020600020906004020160000160009054906101000a900473ffffffffffffffffffffffffffffffffffffffff1673ffffffffffffffffffffffffffffffffffffffff163073ffffffffffffffffffffffffffffffffffffffff167fddf252ad1be2c89b69c2b068fc378daa952ba7f163c4a11628f55a4df523b3ef600a8581548110611775576117746120b5565b5b9060005260206000209060040201600101546040516117949190611991565b60405180910390a3600a82815481106117b0576117af6120b5565b5b906000526020600020906004020160000160009054906101000a900473ffffffffffffffffffffffffffffffffffffffff1673ffffffffffffffffffffffffffffffffffffffff163373ffffffffffffffffffffffffffffffffffffffff167f789f186cc0a1ce666d90fcfde7792038363d449592d55305c6d2cf30c94c5747600a8581548110611844576118436120b5565b5b906000526020600020906004020160010154600a868154811061186a576118696120b5565b5b90600052602060002090600402016002015460405161188a929190611ef1565b60405180910390a3600a82815481106118a6576118a56120b5565b5b906000526020600020906004020160010154600960008282546118c991906121c7565b92505081905550505b80806118dd906120e4565b915050611518565b50565b600080fd5b600073ffffffffffffffffffffffffffffffffffffffff82169050919050565b6000611918826118ed565b9050919050565b6119288161190d565b811461193357600080fd5b50565b6000813590506119458161191f565b92915050565b600060208284031215611961576119606118e8565b5b600061196f84828501611936565b91505092915050565b6000819050919050565b61198b81611978565b82525050565b60006020820190506119a66000830184611982565b92915050565b6000819050919050565b60006119d16119cc6119c7846118ed565b6119ac565b6118ed565b9050919050565b60006119e3826119b6565b9050919050565b60006119f5826119d8565b9050919050565b611a05816119ea565b82525050565b6000602082019050611a2060008301846119fc565b92915050565b611a2f81611978565b8114611a3a57600080fd5b50565b600081359050611a4c81611a26565b92915050565b60008060408385031215611a6957611a686118e8565b5b6000611a7785828601611a3d565b9250506020611a8885828601611a3d565b9150509250929050565b611a9b8161190d565b82525050565b6000602082019050611ab66000830184611a92565b92915050565b600060208284031215611ad257611ad16118e8565b5b6000611ae084828501611a3d565b91505092915050565b60008115159050919050565b611afe81611ae9565b82525050565b6000608082019050611b196000830187611a92565b611b266020830186611982565b611b336040830185611982565b611b406060830184611af5565b95945050505050565b6000611b54826119d8565b9050919050565b611b6481611b49565b82525050565b6000602082019050611b7f6000830184611b5b565b92915050565b6000606082019050611b9a6000830186611982565b611ba76020830185611982565b611bb46040830184611af5565b949350505050565b6000602082019050611bd16000830184611af5565b92915050565b600081519050919050565b600082825260208201905092915050565b60005b83811015611c11578082015181840152602081019050611bf6565b60008484015250505050565b6000601f19601f8301169050919050565b6000611c3982611bd7565b611c438185611be2565b9350611c53818560208601611bf3565b611c5c81611c1d565b840191505092915050565b60006020820190508181036000830152611c818184611c2e565b905092915050565b7f416363657373207265737472696374656420746f20726567697374657265642060008201527f696e766573746f72730000000000000000000000000000000000000000000000602082015250565b6000611ce5602983611be2565b9150611cf082611c89565b604082019050919050565b60006020820190508181036000830152611d1481611cd8565b9050919050565b7f416363657373207265737472696374656420746f20616363726564697465642060008201527f696e766573746f727320616e642062726f6b6572206465616c65727300000000602082015250565b6000611d77603c83611be2565b9150611d8282611d1b565b604082019050919050565b60006020820190508181036000830152611da681611d6a565b9050919050565b7f54686520626f6e642068617320616c7265616479206d61747572656400000000600082015250565b6000611de3601c83611be2565b9150611dee82611dad565b602082019050919050565b60006020820190508181036000830152611e1281611dd6565b9050919050565b7f496e76616c696420626f6e6420756e6974730000000000000000000000000000600082015250565b6000611e4f601283611be2565b9150611e5a82611e19565b602082019050919050565b60006020820190508181036000830152611e7e81611e42565b9050919050565b7f496e76616c696420707269636500000000000000000000000000000000000000600082015250565b6000611ebb600d83611be2565b9150611ec682611e85565b602082019050919050565b60006020820190508181036000830152611eea81611eae565b9050919050565b6000604082019050611f066000830185611982565b611f136020830184611982565b9392505050565b7f4e6f20626f6e642071756f746520617661696c61626c65000000000000000000600082015250565b6000611f50601783611be2565b9150611f5b82611f1a565b602082019050919050565b60006020820190508181036000830152611f7f81611f43565b9050919050565b7f4e487b7100000000000000000000000000000000000000000000000000000000600052602260045260246000fd5b60006002820490506001821680611fcd57607f821691505b602082108103611fe057611fdf611f86565b5b50919050565b7f496e76616c696420707572636861736520616d6f756e74000000000000000000600082015250565b600061201c601783611be2565b915061202782611fe6565b602082019050919050565b6000602082019050818103600083015261204b8161200f565b9050919050565b7f4e487b7100000000000000000000000000000000000000000000000000000000600052601160045260246000fd5b600061208c82611978565b915061209783611978565b92508282019050808211156120af576120ae612052565b5b92915050565b7f4e487b7100000000000000000000000000000000000000000000000000000000600052603260045260246000fd5b60006120ef82611978565b91507fffffffffffffffffffffffffffffffffffffffffffffffffffffffffffffffff820361212157612120612052565b5b600182019050919050565b61213581611ae9565b811461214057600080fd5b50565b6000815190506121528161212c565b92915050565b60006020828403121561216e5761216d6118e8565b5b600061217c84828501612143565b91505092915050565b600061219082611978565b915061219b83611978565b92508282026121a981611978565b915082820484148315176121c0576121bf612052565b5b5092915050565b60006121d282611978565b91506121dd83611978565b92508282039050818111156121f5576121f4612052565b5b9291505056fea26469706673582212200798386eed0c787c477cadd09958b12c4e1935deb5aeee69b8830f0113b45f3064736f6c63430008120033",
			"opcodes": "PUSH1 0x80 PUSH1 0x40 MSTORE CALLVALUE DUP1 ISZERO PUSH3 0x11 JUMPI PUSH1 0x0 DUP1 REVERT JUMPDEST POP PUSH1 0x40 MLOAD PUSH3 0x29F3 CODESIZE SUB DUP1 PUSH3 0x29F3 DUP4 CODECOPY DUP2 DUP2 ADD PUSH1 0x40 MSTORE DUP2 ADD SWAP1 PUSH3 0x37 SWAP2 SWAP1 PUSH3 0x3A2 JUMP JUMPDEST DUP8 PUSH1 0x0 SWAP1 DUP2 PUSH3 0x48 SWAP2 SWAP1 PUSH3 0x6CB JUMP JUMPDEST POP DUP7 PUSH1 0x1 PUSH1 0x0 PUSH2 0x100 EXP DUP2 SLOAD DUP2 PUSH20 0xFFFFFFFFFFFFFFFFFFFFFFFFFFFFFFFFFFFFFFFF MUL NOT AND SWAP1 DUP4 PUSH20 0xFFFFFFFFFFFFFFFFFFFFFFFFFFFFFFFFFFFFFFFF AND MUL OR SWAP1 SSTORE POP DUP6 PUSH1 0x2 PUSH1 0x0 PUSH2 0x100 EXP DUP2 SLOAD DUP2 PUSH20 0xFFFFFFFFFFFFFFFFFFFFFFFFFFFFFFFFFFFFFFFF MUL NOT AND SWAP1 DUP4 PUSH20 0xFFFFFFFFFFFFFFFFFFFFFFFFFFFFFFFFFFFFFFFF AND MUL OR SWAP1 SSTORE POP DUP5 PUSH1 0x3 DUP2 SWAP1 SSTORE POP DUP4 PUSH1 0x4 DUP2 SWAP1 SSTORE POP DUP3 PUSH1 0x5 DUP2 SWAP1 SSTORE POP PUSH1 0x0 PUSH1 0x6 PUSH1 0x0 PUSH2 0x100 EXP DUP2 SLOAD DUP2 PUSH1 0xFF MUL NOT AND SWAP1 DUP4 ISZERO ISZERO MUL OR SWAP1 SSTORE POP PUSH1 0x0 PUSH1 0x7 DUP2 SWAP1 SSTORE POP DUP2 PUSH1 0x8 PUSH1 0x0 PUSH2 0x100 EXP DUP2 SLOAD DUP2 PUSH1 0xFF MUL NOT AND SWAP1 DUP4 ISZERO ISZERO MUL OR SWAP1 SSTORE POP DUP1 PUSH1 0x9 DUP2 SWAP1 SSTORE POP POP POP POP POP POP POP POP POP PUSH3 0x7B2 JUMP JUMPDEST PUSH1 0x0 PUSH1 0x40 MLOAD SWAP1 POP SWAP1 JUMP JUMPDEST PUSH1 0x0 DUP1 REVERT JUMPDEST PUSH1 0x0 DUP1 REVERT JUMPDEST PUSH1 0x0 DUP1 REVERT JUMPDEST PUSH1 0x0 DUP1 REVERT JUMPDEST PUSH1 0x0 PUSH1 0x1F NOT PUSH1 0x1F DUP4 ADD AND SWAP1 POP SWAP2 SWAP1 POP JUMP JUMPDEST PUSH32 0x4E487B7100000000000000000000000000000000000000000000000000000000 PUSH1 0x0 MSTORE PUSH1 0x41 PUSH1 0x4 MSTORE PUSH1 0x24 PUSH1 0x0 REVERT JUMPDEST PUSH3 0x19B DUP3 PUSH3 0x150 JUMP JUMPDEST DUP2 ADD DUP2 DUP2 LT PUSH8 0xFFFFFFFFFFFFFFFF DUP3 GT OR ISZERO PUSH3 0x1BD JUMPI PUSH3 0x1BC PUSH3 0x161 JUMP JUMPDEST JUMPDEST DUP1 PUSH1 0x40 MSTORE POP POP POP JUMP JUMPDEST PUSH1 0x0 PUSH3 0x1D2 PUSH3 0x132 JUMP JUMPDEST SWAP1 POP PUSH3 0x1E0 DUP3 DUP3 PUSH3 0x190 JUMP JUMPDEST SWAP2 SWAP1 POP JUMP JUMPDEST PUSH1 0x0 PUSH8 0xFFFFFFFFFFFFFFFF DUP3 GT ISZERO PUSH3 0x203 JUMPI PUSH3 0x202 PUSH3 0x161 JUMP JUMPDEST JUMPDEST PUSH3 0x20E DUP3 PUSH3 0x150 JUMP JUMPDEST SWAP1 POP PUSH1 0x20 DUP2 ADD SWAP1 POP SWAP2 SWAP1 POP JUMP JUMPDEST PUSH1 0x0 JUMPDEST DUP4 DUP2 LT ISZERO PUSH3 0x23B JUMPI DUP1 DUP3 ADD MLOAD DUP2 DUP5 ADD MSTORE PUSH1 0x20 DUP2 ADD SWAP1 POP PUSH3 0x21E JUMP JUMPDEST PUSH1 0x0 DUP5 DUP5 ADD MSTORE POP POP POP POP JUMP JUMPDEST PUSH1 0x0 PUSH3 0x25E PUSH3 0x258 DUP5 PUSH3 0x1E5 JUMP JUMPDEST PUSH3 0x1C6 JUMP JUMPDEST SWAP1 POP DUP3 DUP2 MSTORE PUSH1 0x20 DUP2 ADD DUP5 DUP5 DUP5 ADD GT ISZERO PUSH3 0x27D JUMPI PUSH3 0x27C PUSH3 0x14B JUMP JUMPDEST JUMPDEST PUSH3 0x28A DUP5 DUP3 DUP6 PUSH3 0x21B JUMP JUMPDEST POP SWAP4 SWAP3 POP POP POP JUMP JUMPDEST PUSH1 0x0 DUP3 PUSH1 0x1F DUP4 ADD SLT PUSH3 0x2AA JUMPI PUSH3 0x2A9 PUSH3 0x146 JUMP JUMPDEST JUMPDEST DUP2 MLOAD PUSH3 0x2BC DUP5 DUP3 PUSH1 0x20 DUP7 ADD PUSH3 0x247 JUMP JUMPDEST SWAP2 POP POP SWAP3 SWAP2 POP POP JUMP JUMPDEST PUSH1 0x0 PUSH20 0xFFFFFFFFFFFFFFFFFFFFFFFFFFFFFFFFFFFFFFFF DUP3 AND SWAP1 POP SWAP2 SWAP1 POP JUMP JUMPDEST PUSH1 0x0 PUSH3 0x2F2 DUP3 PUSH3 0x2C5 JUMP JUMPDEST SWAP1 POP SWAP2 SWAP1 POP JUMP JUMPDEST PUSH3 0x304 DUP2 PUSH3 0x2E5 JUMP JUMPDEST DUP2 EQ PUSH3 0x310 JUMPI PUSH1 0x0 DUP1 REVERT JUMPDEST POP JUMP JUMPDEST PUSH1 0x0 DUP2 MLOAD SWAP1 POP PUSH3 0x324 DUP2 PUSH3 0x2F9 JUMP JUMPDEST SWAP3 SWAP2 POP POP JUMP JUMPDEST PUSH1 0x0 DUP2 SWAP1 POP SWAP2 SWAP1 POP JUMP JUMPDEST PUSH3 0x33F DUP2 PUSH3 0x32A JUMP JUMPDEST DUP2 EQ PUSH3 0x34B JUMPI PUSH1 0x0 DUP1 REVERT JUMPDEST POP JUMP JUMPDEST PUSH1 0x0 DUP2 MLOAD SWAP1 POP PUSH3 0x35F DUP2 PUSH3 0x334 JUMP JUMPDEST SWAP3 SWAP2 POP POP JUMP JUMPDEST PUSH1 0x0 DUP2 ISZERO ISZERO SWAP1 POP SWAP2 SWAP1 POP JUMP JUMPDEST PUSH3 0x37C DUP2 PUSH3 0x365 JUMP JUMPDEST DUP2 EQ PUSH3 0x388 JUMPI PUSH1 0x0 DUP1 REVERT JUMPDEST POP JUMP JUMPDEST PUSH1 0x0 DUP2 MLOAD SWAP1 POP PUSH3 0x39C DUP2 PUSH3 0x371 JUMP JUMPDEST SWAP3 SWAP2 POP POP JUMP JUMPDEST PUSH1 0x0 DUP1 PUSH1 0x0 DUP1 PUSH1 0x0 DUP1 PUSH1 0x0 DUP1 PUSH2 0x100 DUP10 DUP12 SUB SLT ISZERO PUSH3 0x3C6 JUMPI PUSH3 0x3C5 PUSH3 0x13C JUMP JUMPDEST JUMPDEST PUSH1 0x0 DUP10 ADD MLOAD PUSH8 0xFFFFFFFFFFFFFFFF DUP2 GT ISZERO PUSH3 0x3E7 JUMPI PUSH3 0x3E6 PUSH3 0x141 JUMP JUMPDEST JUMPDEST PUSH3 0x3F5 DUP12 DUP3 DUP13 ADD PUSH3 0x292 JUMP JUMPDEST SWAP9 POP POP PUSH1 0x20 PUSH3 0x408 DUP12 DUP3 DUP13 ADD PUSH3 0x313 JUMP JUMPDEST SWAP8 POP POP PUSH1 0x40 PUSH3 0x41B DUP12 DUP3 DUP13 ADD PUSH3 0x313 JUMP JUMPDEST SWAP7 POP POP PUSH1 0x60 PUSH3 0x42E DUP12 DUP3 DUP13 ADD PUSH3 0x34E JUMP JUMPDEST SWAP6 POP POP PUSH1 0x80 PUSH3 0x441 DUP12 DUP3 DUP13 ADD PUSH3 0x34E JUMP JUMPDEST SWAP5 POP POP PUSH1 0xA0 PUSH3 0x454 DUP12 DUP3 DUP13 ADD PUSH3 0x34E JUMP JUMPDEST SWAP4 POP POP PUSH1 0xC0 PUSH3 0x467 DUP12 DUP3 DUP13 ADD PUSH3 0x38B JUMP JUMPDEST SWAP3 POP POP PUSH1 0xE0 PUSH3 0x47A DUP12 DUP3 DUP13 ADD PUSH3 0x34E JUMP JUMPDEST SWAP2 POP POP SWAP3 SWAP6 SWAP9 POP SWAP3 SWAP6 SWAP9 SWAP1 SWAP4 SWAP7 POP JUMP JUMPDEST PUSH1 0x0 DUP2 MLOAD SWAP1 POP SWAP2 SWAP1 POP JUMP JUMPDEST PUSH32 0x4E487B7100000000000000000000000000000000000000000000000000000000 PUSH1 0x0 MSTORE PUSH1 0x22 PUSH1 0x4 MSTORE PUSH1 0x24 PUSH1 0x0 REVERT JUMPDEST PUSH1 0x0 PUSH1 0x2 DUP3 DIV SWAP1 POP PUSH1 0x1 DUP3 AND DUP1 PUSH3 0x4DD JUMPI PUSH1 0x7F DUP3 AND SWAP2 POP JUMPDEST PUSH1 0x20 DUP3 LT DUP2 SUB PUSH3 0x4F3 JUMPI PUSH3 0x4F2 PUSH3 0x495 JUMP JUMPDEST JUMPDEST POP SWAP2 SWAP1 POP JUMP JUMPDEST PUSH1 0x0 DUP2 SWAP1 POP DUP2 PUSH1 0x0 MSTORE PUSH1 0x20 PUSH1 0x0 KECCAK256 SWAP1 POP SWAP2 SWAP1 POP JUMP JUMPDEST PUSH1 0x0 PUSH1 0x20 PUSH1 0x1F DUP4 ADD DIV SWAP1 POP SWAP2 SWAP1 POP JUMP JUMPDEST PUSH1 0x0 DUP3 DUP3 SHL SWAP1 POP SWAP3 SWAP2 POP POP JUMP JUMPDEST PUSH1 0x0 PUSH1 0x8 DUP4 MUL PUSH3 0x55D PUSH32 0xFFFFFFFFFFFFFFFFFFFFFFFFFFFFFFFFFFFFFFFFFFFFFFFFFFFFFFFFFFFFFFFF DUP3 PUSH3 0x51E JUMP JUMPDEST PUSH3 0x569 DUP7 DUP4 PUSH3 0x51E JUMP JUMPDEST SWAP6 POP DUP1 NOT DUP5 AND SWAP4 POP DUP1 DUP7 AND DUP5 OR SWAP3 POP POP POP SWAP4 SWAP3 POP POP POP JUMP JUMPDEST PUSH1 0x0 DUP2 SWAP1 POP SWAP2 SWAP1 POP JUMP JUMPDEST PUSH1 0x0 PUSH3 0x5AC PUSH3 0x5A6 PUSH3 0x5A0 DUP5 PUSH3 0x32A JUMP JUMPDEST PUSH3 0x581 JUMP JUMPDEST PUSH3 0x32A JUMP JUMPDEST SWAP1 POP SWAP2 SWAP1 POP JUMP JUMPDEST PUSH1 0x0 DUP2 SWAP1 POP SWAP2 SWAP1 POP JUMP JUMPDEST PUSH3 0x5C8 DUP4 PUSH3 0x58B JUMP JUMPDEST PUSH3 0x5E0 PUSH3 0x5D7 DUP3 PUSH3 0x5B3 JUMP JUMPDEST DUP5 DUP5 SLOAD PUSH3 0x52B JUMP JUMPDEST DUP3 SSTORE POP POP POP POP JUMP JUMPDEST PUSH1 0x0 SWAP1 JUMP JUMPDEST PUSH3 0x5F7 PUSH3 0x5E8 JUMP JUMPDEST PUSH3 0x604 DUP2 DUP5 DUP5 PUSH3 0x5BD JUMP JUMPDEST POP POP POP JUMP JUMPDEST JUMPDEST DUP2 DUP2 LT ISZERO PUSH3 0x62C JUMPI PUSH3 0x620 PUSH1 0x0 DUP3 PUSH3 0x5ED JUMP JUMPDEST PUSH1 0x1 DUP2 ADD SWAP1 POP PUSH3 0x60A JUMP JUMPDEST POP POP JUMP JUMPDEST PUSH1 0x1F DUP3 GT ISZERO PUSH3 0x67B JUMPI PUSH3 0x645 DUP2 PUSH3 0x4F9 JUMP JUMPDEST PUSH3 0x650 DUP5 PUSH3 0x50E JUMP JUMPDEST DUP2 ADD PUSH1 0x20 DUP6 LT ISZERO PUSH3 0x660 JUMPI DUP2 SWAP1 POP JUMPDEST PUSH3 0x678 PUSH3 0x66F DUP6 PUSH3 0x50E JUMP JUMPDEST DUP4 ADD DUP3 PUSH3 0x609 JUMP JUMPDEST POP POP JUMPDEST POP POP POP JUMP JUMPDEST PUSH1 0x0 DUP3 DUP3 SHR SWAP1 POP SWAP3 SWAP2 POP POP JUMP JUMPDEST PUSH1 0x0 PUSH3 0x6A0 PUSH1 0x0 NOT DUP5 PUSH1 0x8 MUL PUSH3 0x680 JUMP JUMPDEST NOT DUP1 DUP4 AND SWAP2 POP POP SWAP3 SWAP2 POP POP JUMP JUMPDEST PUSH1 0x0 PUSH3 0x6BB DUP4 DUP4 PUSH3 0x68D JUMP JUMPDEST SWAP2 POP DUP3 PUSH1 0x2 MUL DUP3 OR SWAP1 POP SWAP3 SWAP2 POP POP JUMP JUMPDEST PUSH3 0x6D6 DUP3 PUSH3 0x48A JUMP JUMPDEST PUSH8 0xFFFFFFFFFFFFFFFF DUP2 GT ISZERO PUSH3 0x6F2 JUMPI PUSH3 0x6F1 PUSH3 0x161 JUMP JUMPDEST JUMPDEST PUSH3 0x6FE DUP3 SLOAD PUSH3 0x4C4 JUMP JUMPDEST PUSH3 0x70B DUP3 DUP3 DUP6 PUSH3 0x630 JUMP JUMPDEST PUSH1 0x0 PUSH1 0x20 SWAP1 POP PUSH1 0x1F DUP4 GT PUSH1 0x1 DUP2 EQ PUSH3 0x743 JUMPI PUSH1 0x0 DUP5 ISZERO PUSH3 0x72E JUMPI DUP3 DUP8 ADD MLOAD SWAP1 POP JUMPDEST PUSH3 0x73A DUP6 DUP3 PUSH3 0x6AD JUMP JUMPDEST DUP7 SSTORE POP PUSH3 0x7AA JUMP JUMPDEST PUSH1 0x1F NOT DUP5 AND PUSH3 0x753 DUP7 PUSH3 0x4F9 JUMP JUMPDEST PUSH1 0x0 JUMPDEST DUP3 DUP2 LT ISZERO PUSH3 0x77D JUMPI DUP5 DUP10 ADD MLOAD DUP3 SSTORE PUSH1 0x1 DUP3 ADD SWAP2 POP PUSH1 0x20 DUP6 ADD SWAP5 POP PUSH1 0x20 DUP2 ADD SWAP1 POP PUSH3 0x756 JUMP JUMPDEST DUP7 DUP4 LT ISZERO PUSH3 0x79D JUMPI DUP5 DUP10 ADD MLOAD PUSH3 0x799 PUSH1 0x1F DUP10 AND DUP3 PUSH3 0x68D JUMP JUMPDEST DUP4 SSTORE POP JUMPDEST PUSH1 0x1 PUSH1 0x2 DUP9 MUL ADD DUP9 SSTORE POP POP POP JUMPDEST POP POP POP POP POP POP JUMP JUMPDEST PUSH2 0x2231 DUP1 PUSH3 0x7C2 PUSH1 0x0 CODECOPY PUSH1 0x0 RETURN INVALID PUSH1 0x80 PUSH1 0x40 MSTORE PUSH1 0x4 CALLDATASIZE LT PUSH2 0x140 JUMPI PUSH1 0x0 CALLDATALOAD PUSH1 0xE0 SHR DUP1 PUSH4 0x6F7BC9BE GT PUSH2 0xB6 JUMPI DUP1 PUSH4 0xA223565E GT PUSH2 0x6F JUMPI DUP1 PUSH4 0xA223565E EQ PUSH2 0x441 JUMPI DUP1 PUSH4 0xA6F2AE3A EQ PUSH2 0x46A JUMPI DUP1 PUSH4 0xC0CF0C63 EQ PUSH2 0x474 JUMPI DUP1 PUSH4 0xCC7C19CE EQ PUSH2 0x49F JUMPI DUP1 PUSH4 0xCCA16A9F EQ PUSH2 0x4DE JUMPI DUP1 PUSH4 0xD59624B4 EQ PUSH2 0x509 JUMPI PUSH2 0x140 JUMP JUMPDEST DUP1 PUSH4 0x6F7BC9BE EQ PUSH2 0x32B JUMPI DUP1 PUSH4 0x7072C6B1 EQ PUSH2 0x36A JUMPI DUP1 PUSH4 0x7C3A00FD EQ PUSH2 0x395 JUMPI DUP1 PUSH4 0x7F2B6A0D EQ PUSH2 0x3C0 JUMPI DUP1 PUSH4 0x887B6ABC EQ PUSH2 0x3EB JUMPI DUP1 PUSH4 0x8D5C707D EQ PUSH2 0x416 JUMPI PUSH2 0x140 JUMP JUMPDEST DUP1 PUSH4 0x33713E96 GT PUSH2 0x108 JUMPI DUP1 PUSH4 0x33713E96 EQ PUSH2 0x241 JUMPI DUP1 PUSH4 0x3D5BC640 EQ PUSH2 0x258 JUMPI DUP1 PUSH4 0x492D5093 EQ PUSH2 0x283 JUMPI DUP1 PUSH4 0x4B1533B2 EQ PUSH2 0x2AC JUMPI DUP1 PUSH4 0x55DCE5E9 EQ PUSH2 0x2D7 JUMPI DUP1 PUSH4 0x61BC1A49 EQ PUSH2 0x300 JUMPI PUSH2 0x140 JUMP JUMPDEST DUP1 PUSH4 0x7E45FFE EQ PUSH2 0x145 JUMPI DUP1 PUSH4 0x1755FF21 EQ PUSH2 0x182 JUMPI DUP1 PUSH4 0x1A0559F2 EQ PUSH2 0x1AD JUMPI DUP1 PUSH4 0x1D143848 EQ PUSH2 0x1D6 JUMPI DUP1 PUSH4 0x1DA8CA22 EQ PUSH2 0x201 JUMPI JUMPDEST PUSH1 0x0 DUP1 REVERT JUMPDEST CALLVALUE DUP1 ISZERO PUSH2 0x151 JUMPI PUSH1 0x0 DUP1 REVERT JUMPDEST POP PUSH2 0x16C PUSH1 0x4 DUP1 CALLDATASIZE SUB DUP2 ADD SWAP1 PUSH2 0x167 SWAP2 SWAP1 PUSH2 0x194B JUMP JUMPDEST PUSH2 0x534 JUMP JUMPDEST PUSH1 0x40 MLOAD PUSH2 0x179 SWAP2 SWAP1 PUSH2 0x1991 JUMP JUMPDEST PUSH1 0x40 MLOAD DUP1 SWAP2 SUB SWAP1 RETURN JUMPDEST CALLVALUE DUP1 ISZERO PUSH2 0x18E JUMPI PUSH1 0x0 DUP1 REVERT JUMPDEST POP PUSH2 0x197 PUSH2 0x54C JUMP JUMPDEST PUSH1 0x40 MLOAD PUSH2 0x1A4 SWAP2 SWAP1 PUSH2 0x1A0B JUMP JUMPDEST PUSH1 0x40 MLOAD DUP1 SWAP2 SUB SWAP1 RETURN JUMPDEST CALLVALUE DUP1 ISZERO PUSH2 0x1B9 JUMPI PUSH1 0x0 DUP1 REVERT JUMPDEST POP PUSH2 0x1D4 PUSH1 0x4 DUP1 CALLDATASIZE SUB DUP2 ADD SWAP1 PUSH2 0x1CF SWAP2 SWAP1 PUSH2 0x1A52 JUMP JUMPDEST PUSH2 0x572 JUMP JUMPDEST STOP JUMPDEST CALLVALUE DUP1 ISZERO PUSH2 0x1E2 JUMPI PUSH1 0x0 DUP1 REVERT JUMPDEST POP PUSH2 0x1EB PUSH2 0x87A JUMP JUMPDEST PUSH1 0x40 MLOAD PUSH2 0x1F8 SWAP2 SWAP1 PUSH2 0x1AA1 JUMP JUMPDEST PUSH1 0x40 MLOAD DUP1 SWAP2 SUB SWAP1 RETURN JUMPDEST CALLVALUE DUP1 ISZERO PUSH2 0x20D JUMPI PUSH1 0x0 DUP1 REVERT JUMPDEST POP PUSH2 0x228 PUSH1 0x4 DUP1 CALLDATASIZE SUB DUP2 ADD SWAP1 PUSH2 0x223 SWAP2 SWAP1 PUSH2 0x1ABC JUMP JUMPDEST PUSH2 0x8A0 JUMP JUMPDEST PUSH1 0x40 MLOAD PUSH2 0x238 SWAP5 SWAP4 SWAP3 SWAP2 SWAP1 PUSH2 0x1B04 JUMP JUMPDEST PUSH1 0x40 MLOAD DUP1 SWAP2 SUB SWAP1 RETURN JUMPDEST CALLVALUE DUP1 ISZERO PUSH2 0x24D JUMPI PUSH1 0x0 DUP1 REVERT JUMPDEST POP PUSH2 0x256 PUSH2 0x90D JUMP JUMPDEST STOP JUMPDEST CALLVALUE DUP1 ISZERO PUSH2 0x264 JUMPI PUSH1 0x0 DUP1 REVERT JUMPDEST POP PUSH2 0x26D PUSH2 0xBF1 JUMP JUMPDEST PUSH1 0x40 MLOAD PUSH2 0x27A SWAP2 SWAP1 PUSH2 0x1B6A JUMP JUMPDEST PUSH1 0x40 MLOAD DUP1 SWAP2 SUB SWAP1 RETURN JUMPDEST CALLVALUE DUP1 ISZERO PUSH2 0x28F JUMPI PUSH1 0x0 DUP1 REVERT JUMPDEST POP PUSH2 0x2AA PUSH1 0x4 DUP1 CALLDATASIZE SUB DUP2 ADD SWAP1 PUSH2 0x2A5 SWAP2 SWAP1 PUSH2 0x194B JUMP JUMPDEST PUSH2 0xC17 JUMP JUMPDEST STOP JUMPDEST CALLVALUE DUP1 ISZERO PUSH2 0x2B8 JUMPI PUSH1 0x0 DUP1 REVERT JUMPDEST POP PUSH2 0x2C1 PUSH2 0xC5B JUMP JUMPDEST PUSH1 0x40 MLOAD PUSH2 0x2CE SWAP2 SWAP1 PUSH2 0x1991 JUMP JUMPDEST PUSH1 0x40 MLOAD DUP1 SWAP2 SUB SWAP1 RETURN JUMPDEST CALLVALUE DUP1 ISZERO PUSH2 0x2E3 JUMPI PUSH1 0x0 DUP1 REVERT JUMPDEST POP PUSH2 0x2FE PUSH1 0x4 DUP1 CALLDATASIZE SUB DUP2 ADD SWAP1 PUSH2 0x2F9 SWAP2 SWAP1 PUSH2 0x194B JUMP JUMPDEST PUSH2 0xC61 JUMP JUMPDEST STOP JUMPDEST CALLVALUE DUP1 ISZERO PUSH2 0x30C JUMPI PUSH1 0x0 DUP1 REVERT JUMPDEST POP PUSH2 0x315 PUSH2 0xCA5 JUMP JUMPDEST PUSH1 0x40 MLOAD PUSH2 0x322 SWAP2 SWAP1 PUSH2 0x1991 JUMP JUMPDEST PUSH1 0x40 MLOAD DUP1 SWAP2 SUB SWAP1 RETURN JUMPDEST CALLVALUE DUP1 ISZERO PUSH2 0x337 JUMPI PUSH1 0x0 DUP1 REVERT JUMPDEST POP PUSH2 0x352 PUSH1 0x4 DUP1 CALLDATASIZE SUB DUP2 ADD SWAP1 PUSH2 0x34D SWAP2 SWAP1 PUSH2 0x194B JUMP JUMPDEST PUSH2 0xCAB JUMP JUMPDEST PUSH1 0x40 MLOAD PUSH2 0x361 SWAP4 SWAP3 SWAP2 SWAP1 PUSH2 0x1B85 JUMP JUMPDEST PUSH1 0x40 MLOAD DUP1 SWAP2 SUB SWAP1 RETURN JUMPDEST CALLVALUE DUP1 ISZERO PUSH2 0x376 JUMPI PUSH1 0x0 DUP1 REVERT JUMPDEST POP PUSH2 0x37F PUSH2 0xCE2 JUMP JUMPDEST PUSH1 0x40 MLOAD PUSH2 0x38C SWAP2 SWAP1 PUSH2 0x1BBC JUMP JUMPDEST PUSH1 0x40 MLOAD DUP1 SWAP2 SUB SWAP1 RETURN JUMPDEST CALLVALUE DUP1 ISZERO PUSH2 0x3A1 JUMPI PUSH1 0x0 DUP1 REVERT JUMPDEST POP PUSH2 0x3AA PUSH2 0xCF5 JUMP JUMPDEST PUSH1 0x40 MLOAD PUSH2 0x3B7 SWAP2 SWAP1 PUSH2 0x1991 JUMP JUMPDEST PUSH1 0x40 MLOAD DUP1 SWAP2 SUB SWAP1 RETURN JUMPDEST CALLVALUE DUP1 ISZERO PUSH2 0x3CC JUMPI PUSH1 0x0 DUP1 REVERT JUMPDEST POP PUSH2 0x3D5 PUSH2 0xCFB JUMP JUMPDEST PUSH1 0x40 MLOAD PUSH2 0x3E2 SWAP2 SWAP1 PUSH2 0x1BBC JUMP JUMPDEST PUSH1 0x40 MLOAD DUP1 SWAP2 SUB SWAP1 RETURN JUMPDEST CALLVALUE DUP1 ISZERO PUSH2 0x3F7 JUMPI PUSH1 0x0 DUP1 REVERT JUMPDEST POP PUSH2 0x400 PUSH2 0xD0E JUMP JUMPDEST PUSH1 0x40 MLOAD PUSH2 0x40D SWAP2 SWAP1 PUSH2 0x1C67 JUMP JUMPDEST PUSH1 0x40 MLOAD DUP1 SWAP2 SUB SWAP1 RETURN JUMPDEST CALLVALUE DUP1 ISZERO PUSH2 0x422 JUMPI PUSH1 0x0 DUP1 REVERT JUMPDEST POP PUSH2 0x42B PUSH2 0xD9C JUMP JUMPDEST PUSH1 0x40 MLOAD PUSH2 0x438 SWAP2 SWAP1 PUSH2 0x1AA1 JUMP JUMPDEST PUSH1 0x40 MLOAD DUP1 SWAP2 SUB SWAP1 RETURN JUMPDEST CALLVALUE DUP1 ISZERO PUSH2 0x44D JUMPI PUSH1 0x0 DUP1 REVERT JUMPDEST POP PUSH2 0x468 PUSH1 0x4 DUP1 CALLDATASIZE SUB DUP2 ADD SWAP1 PUSH2 0x463 SWAP2 SWAP1 PUSH2 0x1ABC JUMP JUMPDEST PUSH2 0xDC2 JUMP JUMPDEST STOP JUMPDEST PUSH2 0x472 PUSH2 0xED1 JUMP JUMPDEST STOP JUMPDEST CALLVALUE DUP1 ISZERO PUSH2 0x480 JUMPI PUSH1 0x0 DUP1 REVERT JUMPDEST POP PUSH2 0x489 PUSH2 0x113A JUMP JUMPDEST PUSH1 0x40 MLOAD PUSH2 0x496 SWAP2 SWAP1 PUSH2 0x1991 JUMP JUMPDEST PUSH1 0x40 MLOAD DUP1 SWAP2 SUB SWAP1 RETURN JUMPDEST CALLVALUE DUP1 ISZERO PUSH2 0x4AB JUMPI PUSH1 0x0 DUP1 REVERT JUMPDEST POP PUSH2 0x4C6 PUSH1 0x4 DUP1 CALLDATASIZE SUB DUP2 ADD SWAP1 PUSH2 0x4C1 SWAP2 SWAP1 PUSH2 0x194B JUMP JUMPDEST PUSH2 0x11D8 JUMP JUMPDEST PUSH1 0x40 MLOAD PUSH2 0x4D5 SWAP4 SWAP3 SWAP2 SWAP1 PUSH2 0x1B85 JUMP JUMPDEST PUSH1 0x40 MLOAD DUP1 SWAP2 SUB SWAP1 RETURN JUMPDEST CALLVALUE DUP1 ISZERO PUSH2 0x4EA JUMPI PUSH1 0x0 DUP1 REVERT JUMPDEST POP PUSH2 0x4F3 PUSH2 0x131A JUMP JUMPDEST PUSH1 0x40 MLOAD PUSH2 0x500 SWAP2 SWAP1 PUSH2 0x1991 JUMP JUMPDEST PUSH1 0x40 MLOAD DUP1 SWAP2 SUB SWAP1 RETURN JUMPDEST CALLVALUE DUP1 ISZERO PUSH2 0x515 JUMPI PUSH1 0x0 DUP1 REVERT JUMPDEST POP PUSH2 0x51E PUSH2 0x1320 JUMP JUMPDEST PUSH1 0x40 MLOAD PUSH2 0x52B SWAP2 SWAP1 PUSH2 0x1991 JUMP JUMPDEST PUSH1 0x40 MLOAD DUP1 SWAP2 SUB SWAP1 RETURN JUMPDEST PUSH1 0xC PUSH1 0x20 MSTORE DUP1 PUSH1 0x0 MSTORE PUSH1 0x40 PUSH1 0x0 KECCAK256 PUSH1 0x0 SWAP2 POP SWAP1 POP SLOAD DUP2 JUMP JUMPDEST PUSH1 0xD PUSH1 0x0 SWAP1 SLOAD SWAP1 PUSH2 0x100 EXP SWAP1 DIV PUSH20 0xFFFFFFFFFFFFFFFFFFFFFFFFFFFFFFFFFFFFFFFF AND DUP2 JUMP JUMPDEST PUSH1 0x0 ISZERO ISZERO PUSH1 0x8 PUSH1 0x0 SWAP1 SLOAD SWAP1 PUSH2 0x100 EXP SWAP1 DIV PUSH1 0xFF AND ISZERO ISZERO EQ DUP1 PUSH2 0x5B8 JUMPI POP PUSH1 0x1 ISZERO ISZERO PUSH1 0x8 PUSH1 0x0 SWAP1 SLOAD SWAP1 PUSH2 0x100 EXP SWAP1 DIV PUSH1 0xFF AND ISZERO ISZERO EQ DUP1 ISZERO PUSH2 0x5B7 JUMPI POP PUSH2 0x5B6 CALLER PUSH2 0x1326 JUMP JUMPDEST JUMPDEST JUMPDEST PUSH2 0x5F7 JUMPI PUSH1 0x40 MLOAD PUSH32 0x8C379A000000000000000000000000000000000000000000000000000000000 DUP2 MSTORE PUSH1 0x4 ADD PUSH2 0x5EE SWAP1 PUSH2 0x1CFB JUMP JUMPDEST PUSH1 0x40 MLOAD DUP1 SWAP2 SUB SWAP1 REVERT JUMPDEST PUSH1 0x1 ISZERO ISZERO PUSH1 0x8 PUSH1 0x0 SWAP1 SLOAD SWAP1 PUSH2 0x100 EXP SWAP1 DIV PUSH1 0xFF AND ISZERO ISZERO EQ DUP1 ISZERO PUSH2 0x62F JUMPI POP PUSH2 0x61E CALLER PUSH2 0x13CB JUMP JUMPDEST DUP1 PUSH2 0x62E JUMPI POP PUSH2 0x62D CALLER PUSH2 0x1470 JUMP JUMPDEST JUMPDEST JUMPDEST PUSH2 0x66E JUMPI PUSH1 0x40 MLOAD PUSH32 0x8C379A000000000000000000000000000000000000000000000000000000000 DUP2 MSTORE PUSH1 0x4 ADD PUSH2 0x665 SWAP1 PUSH2 0x1D8D JUMP JUMPDEST PUSH1 0x40 MLOAD DUP1 SWAP2 SUB SWAP1 REVERT JUMPDEST PUSH1 0x6 PUSH1 0x0 SWAP1 SLOAD SWAP1 PUSH2 0x100 EXP SWAP1 DIV PUSH1 0xFF AND ISZERO PUSH2 0x6BE JUMPI PUSH1 0x40 MLOAD PUSH32 0x8C379A000000000000000000000000000000000000000000000000000000000 DUP2 MSTORE PUSH1 0x4 ADD PUSH2 0x6B5 SWAP1 PUSH2 0x1DF9 JUMP JUMPDEST PUSH1 0x40 MLOAD DUP1 SWAP2 SUB SWAP1 REVERT JUMPDEST PUSH1 0x0 DUP3 GT PUSH2 0x701 JUMPI PUSH1 0x40 MLOAD PUSH32 0x8C379A000000000000000000000000000000000000000000000000000000000 DUP2 MSTORE PUSH1 0x4 ADD PUSH2 0x6F8 SWAP1 PUSH2 0x1E65 JUMP JUMPDEST PUSH1 0x40 MLOAD DUP1 SWAP2 SUB SWAP1 REVERT JUMPDEST PUSH1 0x0 DUP2 GT PUSH2 0x744 JUMPI PUSH1 0x40 MLOAD PUSH32 0x8C379A000000000000000000000000000000000000000000000000000000000 DUP2 MSTORE PUSH1 0x4 ADD PUSH2 0x73B SWAP1 PUSH2 0x1ED1 JUMP JUMPDEST PUSH1 0x40 MLOAD DUP1 SWAP2 SUB SWAP1 REVERT JUMPDEST PUSH1 0xA PUSH1 0x40 MLOAD DUP1 PUSH1 0x80 ADD PUSH1 0x40 MSTORE DUP1 CALLER PUSH20 0xFFFFFFFFFFFFFFFFFFFFFFFFFFFFFFFFFFFFFFFF AND DUP2 MSTORE PUSH1 0x20 ADD DUP5 DUP2 MSTORE PUSH1 0x20 ADD DUP4 DUP2 MSTORE PUSH1 0x20 ADD PUSH1 0x1 ISZERO ISZERO DUP2 MSTORE POP SWAP1 DUP1 PUSH1 0x1 DUP2 SLOAD ADD DUP1 DUP3 SSTORE DUP1 SWAP2 POP POP PUSH1 0x1 SWAP1 SUB SWAP1 PUSH1 0x0 MSTORE PUSH1 0x20 PUSH1 0x0 KECCAK256 SWAP1 PUSH1 0x4 MUL ADD PUSH1 0x0 SWAP1 SWAP2 SWAP1 SWAP2 SWAP1 SWAP2 POP PUSH1 0x0 DUP3 ADD MLOAD DUP2 PUSH1 0x0 ADD PUSH1 0x0 PUSH2 0x100 EXP DUP2 SLOAD DUP2 PUSH20 0xFFFFFFFFFFFFFFFFFFFFFFFFFFFFFFFFFFFFFFFF MUL NOT AND SWAP1 DUP4 PUSH20 0xFFFFFFFFFFFFFFFFFFFFFFFFFFFFFFFFFFFFFFFF AND MUL OR SWAP1 SSTORE POP PUSH1 0x20 DUP3 ADD MLOAD DUP2 PUSH1 0x1 ADD SSTORE PUSH1 0x40 DUP3 ADD MLOAD DUP2 PUSH1 0x2 ADD SSTORE PUSH1 0x60 DUP3 ADD MLOAD DUP2 PUSH1 0x3 ADD PUSH1 0x0 PUSH2 0x100 EXP DUP2 SLOAD DUP2 PUSH1 0xFF MUL NOT AND SWAP1 DUP4 ISZERO ISZERO MUL OR SWAP1 SSTORE POP POP POP CALLER PUSH20 0xFFFFFFFFFFFFFFFFFFFFFFFFFFFFFFFFFFFFFFFF AND PUSH32 0x511AB2BD405B50B3EBC0F0F061159FD391C1AA6AB582DDB632F6DDEB94C53549 DUP4 DUP4 PUSH1 0x40 MLOAD PUSH2 0x86E SWAP3 SWAP2 SWAP1 PUSH2 0x1EF1 JUMP JUMPDEST PUSH1 0x40 MLOAD DUP1 SWAP2 SUB SWAP1 LOG2 POP POP JUMP JUMPDEST PUSH1 0x1 PUSH1 0x0 SWAP1 SLOAD SWAP1 PUSH2 0x100 EXP SWAP1 DIV PUSH20 0xFFFFFFFFFFFFFFFFFFFFFFFFFFFFFFFFFFFFFFFF AND DUP2 JUMP JUMPDEST PUSH1 0xA DUP2 DUP2 SLOAD DUP2 LT PUSH2 0x8B0 JUMPI PUSH1 0x0 DUP1 REVERT JUMPDEST SWAP1 PUSH1 0x0 MSTORE PUSH1 0x20 PUSH1 0x0 KECCAK256 SWAP1 PUSH1 0x4 MUL ADD PUSH1 0x0 SWAP2 POP SWAP1 POP DUP1 PUSH1 0x0 ADD PUSH1 0x0 SWAP1 SLOAD SWAP1 PUSH2 0x100 EXP SWAP1 DIV PUSH20 0xFFFFFFFFFFFFFFFFFFFFFFFFFFFFFFFFFFFFFFFF AND SWAP1 DUP1 PUSH1 0x1 ADD SLOAD SWAP1 DUP1 PUSH1 0x2 ADD SLOAD SWAP1 DUP1 PUSH1 0x3 ADD PUSH1 0x0 SWAP1 SLOAD SWAP1 PUSH2 0x100 EXP SWAP1 DIV PUSH1 0xFF AND SWAP1 POP DUP5 JUMP JUMPDEST PUSH1 0x0 ISZERO ISZERO PUSH1 0x8 PUSH1 0x0 SWAP1 SLOAD SWAP1 PUSH2 0x100 EXP SWAP1 DIV PUSH1 0xFF AND ISZERO ISZERO EQ DUP1 PUSH2 0x953 JUMPI POP PUSH1 0x1 ISZERO ISZERO PUSH1 0x8 PUSH1 0x0 SWAP1 SLOAD SWAP1 PUSH2 0x100 EXP SWAP1 DIV PUSH1 0xFF AND ISZERO ISZERO EQ DUP1 ISZERO PUSH2 0x952 JUMPI POP PUSH2 0x951 CALLER PUSH2 0x1326 JUMP JUMPDEST JUMPDEST JUMPDEST PUSH2 0x992 JUMPI PUSH1 0x40 MLOAD PUSH32 0x8C379A000000000000000000000000000000000000000000000000000000000 DUP2 MSTORE PUSH1 0x4 ADD PUSH2 0x989 SWAP1 PUSH2 0x1CFB JUMP JUMPDEST PUSH1 0x40 MLOAD DUP1 SWAP2 SUB SWAP1 REVERT JUMPDEST PUSH1 0x1 ISZERO ISZERO PUSH1 0x8 PUSH1 0x0 SWAP1 SLOAD SWAP1 PUSH2 0x100 EXP SWAP1 DIV PUSH1 0xFF AND ISZERO ISZERO EQ DUP1 ISZERO PUSH2 0x9CA JUMPI POP PUSH2 0x9B9 CALLER PUSH2 0x13CB JUMP JUMPDEST DUP1 PUSH2 0x9C9 JUMPI POP PUSH2 0x9C8 CALLER PUSH2 0x1470 JUMP JUMPDEST JUMPDEST JUMPDEST PUSH2 0xA09 JUMPI PUSH1 0x40 MLOAD PUSH32 0x8C379A000000000000000000000000000000000000000000000000000000000 DUP2 MSTORE PUSH1 0x4 ADD PUSH2 0xA00 SWAP1 PUSH2 0x1D8D JUMP JUMPDEST PUSH1 0x40 MLOAD DUP1 SWAP2 SUB SWAP1 REVERT JUMPDEST PUSH1 0x6 PUSH1 0x0 SWAP1 SLOAD SWAP1 PUSH2 0x100 EXP SWAP1 DIV PUSH1 0xFF AND ISZERO PUSH2 0xA59 JUMPI PUSH1 0x40 MLOAD PUSH32 0x8C379A000000000000000000000000000000000000000000000000000000000 DUP2 MSTORE PUSH1 0x4 ADD PUSH2 0xA50 SWAP1 PUSH2 0x1DF9 JUMP JUMPDEST PUSH1 0x40 MLOAD DUP1 SWAP2 SUB SWAP1 REVERT JUMPDEST PUSH1 0x0 PUSH1 0xC PUSH1 0x0 CALLER PUSH20 0xFFFFFFFFFFFFFFFFFFFFFFFFFFFFFFFFFFFFFFFF AND PUSH20 0xFFFFFFFFFFFFFFFFFFFFFFFFFFFFFFFFFFFFFFFF AND DUP2 MSTORE PUSH1 0x20 ADD SWAP1 DUP2 MSTORE PUSH1 0x20 ADD PUSH1 0x0 KECCAK256 SLOAD GT PUSH2 0xADB JUMPI PUSH1 0x40 MLOAD PUSH32 0x8C379A000000000000000000000000000000000000000000000000000000000 DUP2 MSTORE PUSH1 0x4 ADD PUSH2 0xAD2 SWAP1 PUSH2 0x1F66 JUMP JUMPDEST PUSH1 0x40 MLOAD DUP1 SWAP2 SUB SWAP1 REVERT JUMPDEST PUSH1 0x0 PUSH1 0xC PUSH1 0x0 CALLER PUSH20 0xFFFFFFFFFFFFFFFFFFFFFFFFFFFFFFFFFFFFFFFF AND PUSH20 0xFFFFFFFFFFFFFFFFFFFFFFFFFFFFFFFFFFFFFFFF AND DUP2 MSTORE PUSH1 0x20 ADD SWAP1 DUP2 MSTORE PUSH1 0x20 ADD PUSH1 0x0 KECCAK256 SLOAD SWAP1 POP PUSH1 0x0 PUSH1 0xC PUSH1 0x0 CALLER PUSH20 0xFFFFFFFFFFFFFFFFFFFFFFFFFFFFFFFFFFFFFFFF AND PUSH20 0xFFFFFFFFFFFFFFFFFFFFFFFFFFFFFFFFFFFFFFFF AND DUP2 MSTORE PUSH1 0x20 ADD SWAP1 DUP2 MSTORE PUSH1 0x20 ADD PUSH1 0x0 KECCAK256 DUP2 SWAP1 SSTORE POP CALLER PUSH20 0xFFFFFFFFFFFFFFFFFFFFFFFFFFFFFFFFFFFFFFFF AND PUSH32 0x15754EDE06947EED80E5C3E7253A49D1C17CE35AD97FA6011C92148D7BF4CCC PUSH1 0x40 MLOAD PUSH1 0x40 MLOAD DUP1 SWAP2 SUB SWAP1 LOG2 CALLER PUSH20 0xFFFFFFFFFFFFFFFFFFFFFFFFFFFFFFFFFFFFFFFF AND PUSH2 0x8FC DUP3 SWAP1 DUP2 ISZERO MUL SWAP1 PUSH1 0x40 MLOAD PUSH1 0x0 PUSH1 0x40 MLOAD DUP1 DUP4 SUB DUP2 DUP6 DUP9 DUP9 CALL SWAP4 POP POP POP POP ISZERO DUP1 ISZERO PUSH2 0xBED JUMPI RETURNDATASIZE PUSH1 0x0 DUP1 RETURNDATACOPY RETURNDATASIZE PUSH1 0x0 REVERT JUMPDEST POP POP JUMP JUMPDEST PUSH1 0xE PUSH1 0x0 SWAP1 SLOAD SWAP1 PUSH2 0x100 EXP SWAP1 DIV PUSH20 0xFFFFFFFFFFFFFFFFFFFFFFFFFFFFFFFFFFFFFFFF AND DUP2 JUMP JUMPDEST DUP1 PUSH1 0xE PUSH1 0x0 PUSH2 0x100 EXP DUP2 SLOAD DUP2 PUSH20 0xFFFFFFFFFFFFFFFFFFFFFFFFFFFFFFFFFFFFFFFF MUL NOT AND SWAP1 DUP4 PUSH20 0xFFFFFFFFFFFFFFFFFFFFFFFFFFFFFFFFFFFFFFFF AND MUL OR SWAP1 SSTORE POP POP JUMP JUMPDEST PUSH1 0x3 SLOAD DUP2 JUMP JUMPDEST DUP1 PUSH1 0xD PUSH1 0x0 PUSH2 0x100 EXP DUP2 SLOAD DUP2 PUSH20 0xFFFFFFFFFFFFFFFFFFFFFFFFFFFFFFFFFFFFFFFF MUL NOT AND SWAP1 DUP4 PUSH20 0xFFFFFFFFFFFFFFFFFFFFFFFFFFFFFFFFFFFFFFFF AND MUL OR SWAP1 SSTORE POP POP JUMP JUMPDEST PUSH1 0x7 SLOAD DUP2 JUMP JUMPDEST PUSH1 0xB PUSH1 0x20 MSTORE DUP1 PUSH1 0x0 MSTORE PUSH1 0x40 PUSH1 0x0 KECCAK256 PUSH1 0x0 SWAP2 POP SWAP1 POP DUP1 PUSH1 0x0 ADD SLOAD SWAP1 DUP1 PUSH1 0x1 ADD SLOAD SWAP1 DUP1 PUSH1 0x2 ADD PUSH1 0x0 SWAP1 SLOAD SWAP1 PUSH2 0x100 EXP SWAP1 DIV PUSH1 0xFF AND SWAP1 POP DUP4 JUMP JUMPDEST PUSH1 0x8 PUSH1 0x0 SWAP1 SLOAD SWAP1 PUSH2 0x100 EXP SWAP1 DIV PUSH1 0xFF AND DUP2 JUMP JUMPDEST PUSH1 0x4 SLOAD DUP2 JUMP JUMPDEST PUSH1 0x6 PUSH1 0x0 SWAP1 SLOAD SWAP1 PUSH2 0x100 EXP SWAP1 DIV PUSH1 0xFF AND DUP2 JUMP JUMPDEST PUSH1 0x0 DUP1 SLOAD PUSH2 0xD1B SWAP1 PUSH2 0x1FB5 JUMP JUMPDEST DUP1 PUSH1 0x1F ADD PUSH1 0x20 DUP1 SWAP2 DIV MUL PUSH1 0x20 ADD PUSH1 0x40 MLOAD SWAP1 DUP2 ADD PUSH1 0x40 MSTORE DUP1 SWAP3 SWAP2 SWAP1 DUP2 DUP2 MSTORE PUSH1 0x20 ADD DUP3 DUP1 SLOAD PUSH2 0xD47 SWAP1 PUSH2 0x1FB5 JUMP JUMPDEST DUP1 ISZERO PUSH2 0xD94 JUMPI DUP1 PUSH1 0x1F LT PUSH2 0xD69 JUMPI PUSH2 0x100 DUP1 DUP4 SLOAD DIV MUL DUP4 MSTORE SWAP2 PUSH1 0x20 ADD SWAP2 PUSH2 0xD94 JUMP JUMPDEST DUP3 ADD SWAP2 SWAP1 PUSH1 0x0 MSTORE PUSH1 0x20 PUSH1 0x0 KECCAK256 SWAP1 JUMPDEST DUP2 SLOAD DUP2 MSTORE SWAP1 PUSH1 0x1 ADD SWAP1 PUSH1 0x20 ADD DUP1 DUP4 GT PUSH2 0xD77 JUMPI DUP3 SWAP1 SUB PUSH1 0x1F AND DUP3 ADD SWAP2 JUMPDEST POP POP POP POP POP DUP2 JUMP JUMPDEST PUSH1 0x2 PUSH1 0x0 SWAP1 SLOAD SWAP1 PUSH2 0x100 EXP SWAP1 DIV PUSH20 0xFFFFFFFFFFFFFFFFFFFFFFFFFFFFFFFFFFFFFFFF AND DUP2 JUMP JUMPDEST PUSH1 0x0 ISZERO ISZERO PUSH1 0x8 PUSH1 0x0 SWAP1 SLOAD SWAP1 PUSH2 0x100 EXP SWAP1 DIV PUSH1 0xFF AND ISZERO ISZERO EQ DUP1 PUSH2 0xE08 JUMPI POP PUSH1 0x1 ISZERO ISZERO PUSH1 0x8 PUSH1 0x0 SWAP1 SLOAD SWAP1 PUSH2 0x100 EXP SWAP1 DIV PUSH1 0xFF AND ISZERO ISZERO EQ DUP1 ISZERO PUSH2 0xE07 JUMPI POP PUSH2 0xE06 CALLER PUSH2 0x1326 JUMP JUMPDEST JUMPDEST JUMPDEST PUSH2 0xE47 JUMPI PUSH1 0x40 MLOAD PUSH32 0x8C379A000000000000000000000000000000000000000000000000000000000 DUP2 MSTORE PUSH1 0x4 ADD PUSH2 0xE3E SWAP1 PUSH2 0x1CFB JUMP JUMPDEST PUSH1 0x40 MLOAD DUP1 SWAP2 SUB SWAP1 REVERT JUMPDEST PUSH1 0x0 DUP2 GT PUSH2 0xE8A JUMPI PUSH1 0x40 MLOAD PUSH32 0x8C379A000000000000000000000000000000000000000000000000000000000 DUP2 MSTORE PUSH1 0x4 ADD PUSH2 0xE81 SWAP1 PUSH2 0x1E65 JUMP JUMPDEST PUSH1 0x40 MLOAD DUP1 SWAP2 SUB SWAP1 REVERT JUMPDEST DUP1 PUSH1 0xC PUSH1 0x0 CALLER PUSH20 0xFFFFFFFFFFFFFFFFFFFFFFFFFFFFFFFFFFFFFFFF AND PUSH20 0xFFFFFFFFFFFFFFFFFFFFFFFFFFFFFFFFFFFFFFFF AND DUP2 MSTORE PUSH1 0x20 ADD SWAP1 DUP2 MSTORE PUSH1 0x20 ADD PUSH1 0x0 KECCAK256 DUP2 SWAP1 SSTORE POP POP JUMP JUMPDEST PUSH1 0x0 ISZERO ISZERO PUSH1 0x8 PUSH1 0x0 SWAP1 SLOAD SWAP1 PUSH2 0x100 EXP SWAP1 DIV PUSH1 0xFF AND ISZERO ISZERO EQ DUP1 PUSH2 0xF17 JUMPI POP PUSH1 0x1 ISZERO ISZERO PUSH1 0x8 PUSH1 0x0 SWAP1 SLOAD SWAP1 PUSH2 0x100 EXP SWAP1 DIV PUSH1 0xFF AND ISZERO ISZERO EQ DUP1 ISZERO PUSH2 0xF16 JUMPI POP PUSH2 0xF15 CALLER PUSH2 0x1326 JUMP JUMPDEST JUMPDEST JUMPDEST PUSH2 0xF56 JUMPI PUSH1 0x40 MLOAD PUSH32 0x8C379A000000000000000000000000000000000000000000000000000000000 DUP2 MSTORE PUSH1 0x4 ADD PUSH2 0xF4D SWAP1 PUSH2 0x1CFB JUMP JUMPDEST PUSH1 0x40 MLOAD DUP1 SWAP2 SUB SWAP1 REVERT JUMPDEST PUSH1 0x1 ISZERO ISZERO PUSH1 0x8 PUSH1 0x0 SWAP1 SLOAD SWAP1 PUSH2 0x100 EXP SWAP1 DIV PUSH1 0xFF AND ISZERO ISZERO EQ DUP1 ISZERO PUSH2 0xF8E JUMPI POP PUSH2 0xF7D CALLER PUSH2 0x13CB JUMP JUMPDEST DUP1 PUSH2 0xF8D JUMPI POP PUSH2 0xF8C CALLER PUSH2 0x1470 JUMP JUMPDEST JUMPDEST JUMPDEST PUSH2 0xFCD JUMPI PUSH1 0x40 MLOAD PUSH32 0x8C379A000000000000000000000000000000000000000000000000000000000 DUP2 MSTORE PUSH1 0x4 ADD PUSH2 0xFC4 SWAP1 PUSH2 0x1D8D JUMP JUMPDEST PUSH1 0x40 MLOAD DUP1 SWAP2 SUB SWAP1 REVERT JUMPDEST PUSH1 0x6 PUSH1 0x0 SWAP1 SLOAD SWAP1 PUSH2 0x100 EXP SWAP1 DIV PUSH1 0xFF AND ISZERO PUSH2 0x101D JUMPI PUSH1 0x40 MLOAD PUSH32 0x8C379A000000000000000000000000000000000000000000000000000000000 DUP2 MSTORE PUSH1 0x4 ADD PUSH2 0x1014 SWAP1 PUSH2 0x1DF9 JUMP JUMPDEST PUSH1 0x40 MLOAD DUP1 SWAP2 SUB SWAP1 REVERT JUMPDEST PUSH1 0x0 CALLVALUE GT PUSH2 0x1060 JUMPI PUSH1 0x40 MLOAD PUSH32 0x8C379A000000000000000000000000000000000000000000000000000000000 DUP2 MSTORE PUSH1 0x4 ADD PUSH2 0x1057 SWAP1 PUSH2 0x2032 JUMP JUMPDEST PUSH1 0x40 MLOAD DUP1 SWAP2 SUB SWAP1 REVERT JUMPDEST CALLVALUE PUSH1 0xB PUSH1 0x0 CALLER PUSH20 0xFFFFFFFFFFFFFFFFFFFFFFFFFFFFFFFFFFFFFFFF AND PUSH20 0xFFFFFFFFFFFFFFFFFFFFFFFFFFFFFFFFFFFFFFFF AND DUP2 MSTORE PUSH1 0x20 ADD SWAP1 DUP2 MSTORE PUSH1 0x20 ADD PUSH1 0x0 KECCAK256 PUSH1 0x0 ADD PUSH1 0x0 DUP3 DUP3 SLOAD PUSH2 0x10B2 SWAP2 SWAP1 PUSH2 0x2081 JUMP JUMPDEST SWAP3 POP POP DUP2 SWAP1 SSTORE POP CALLER PUSH20 0xFFFFFFFFFFFFFFFFFFFFFFFFFFFFFFFFFFFFFFFF AND PUSH1 0x0 PUSH20 0xFFFFFFFFFFFFFFFFFFFFFFFFFFFFFFFFFFFFFFFF AND PUSH32 0xDDF252AD1BE2C89B69C2B068FC378DAA952BA7F163C4A11628F55A4DF523B3EF CALLVALUE PUSH1 0x40 MLOAD PUSH2 0x1117 SWAP2 SWAP1 PUSH2 0x1991 JUMP JUMPDEST PUSH1 0x40 MLOAD DUP1 SWAP2 SUB SWAP1 LOG3 PUSH1 0x9 SLOAD PUSH2 0x112A PUSH2 0x113A JUMP JUMPDEST LT PUSH2 0x1138 JUMPI PUSH2 0x1137 PUSH2 0x1515 JUMP JUMPDEST JUMPDEST JUMP JUMPDEST PUSH1 0x0 DUP1 PUSH1 0x0 SWAP1 POP PUSH1 0x0 JUMPDEST PUSH1 0xA DUP1 SLOAD SWAP1 POP DUP2 LT ISZERO PUSH2 0x11D0 JUMPI PUSH1 0xA DUP2 DUP2 SLOAD DUP2 LT PUSH2 0x1165 JUMPI PUSH2 0x1164 PUSH2 0x20B5 JUMP JUMPDEST JUMPDEST SWAP1 PUSH1 0x0 MSTORE PUSH1 0x20 PUSH1 0x0 KECCAK256 SWAP1 PUSH1 0x4 MUL ADD PUSH1 0x3 ADD PUSH1 0x0 SWAP1 SLOAD SWAP1 PUSH2 0x100 EXP SWAP1 DIV PUSH1 0xFF AND ISZERO PUSH2 0x11BD JUMPI PUSH1 0xA DUP2 DUP2 SLOAD DUP2 LT PUSH2 0x119D JUMPI PUSH2 0x119C PUSH2 0x20B5 JUMP JUMPDEST JUMPDEST SWAP1 PUSH1 0x0 MSTORE PUSH1 0x20 PUSH1 0x0 KECCAK256 SWAP1 PUSH1 0x4 MUL ADD PUSH1 0x1 ADD SLOAD DUP3 PUSH2 0x11BA SWAP2 SWAP1 PUSH2 0x2081 JUMP JUMPDEST SWAP2 POP JUMPDEST DUP1 DUP1 PUSH2 0x11C8 SWAP1 PUSH2 0x20E4 JUMP JUMPDEST SWAP2 POP POP PUSH2 0x1144 JUMP JUMPDEST POP DUP1 SWAP2 POP POP SWAP1 JUMP JUMPDEST PUSH1 0x0 DUP1 PUSH1 0x0 DUP1 PUSH1 0x0 SWAP1 POP JUMPDEST PUSH1 0xA DUP1 SLOAD SWAP1 POP DUP2 LT ISZERO PUSH2 0x1306 JUMPI DUP5 PUSH20 0xFFFFFFFFFFFFFFFFFFFFFFFFFFFFFFFFFFFFFFFF AND PUSH1 0xA DUP3 DUP2 SLOAD DUP2 LT PUSH2 0x121B JUMPI PUSH2 0x121A PUSH2 0x20B5 JUMP JUMPDEST JUMPDEST SWAP1 PUSH1 0x0 MSTORE PUSH1 0x20 PUSH1 0x0 KECCAK256 SWAP1 PUSH1 0x4 MUL ADD PUSH1 0x0 ADD PUSH1 0x0 SWAP1 SLOAD SWAP1 PUSH2 0x100 EXP SWAP1 DIV PUSH20 0xFFFFFFFFFFFFFFFFFFFFFFFFFFFFFFFFFFFFFFFF AND PUSH20 0xFFFFFFFFFFFFFFFFFFFFFFFFFFFFFFFFFFFFFFFF AND SUB PUSH2 0x12F3 JUMPI PUSH1 0xA DUP2 DUP2 SLOAD DUP2 LT PUSH2 0x127C JUMPI PUSH2 0x127B PUSH2 0x20B5 JUMP JUMPDEST JUMPDEST SWAP1 PUSH1 0x0 MSTORE PUSH1 0x20 PUSH1 0x0 KECCAK256 SWAP1 PUSH1 0x4 MUL ADD PUSH1 0x1 ADD SLOAD PUSH1 0xA DUP3 DUP2 SLOAD DUP2 LT PUSH2 0x12A2 JUMPI PUSH2 0x12A1 PUSH2 0x20B5 JUMP JUMPDEST JUMPDEST SWAP1 PUSH1 0x0 MSTORE PUSH1 0x20 PUSH1 0x0 KECCAK256 SWAP1 PUSH1 0x4 MUL ADD PUSH1 0x2 ADD SLOAD PUSH1 0xA DUP4 DUP2 SLOAD DUP2 LT PUSH2 0x12C8 JUMPI PUSH2 0x12C7 PUSH2 0x20B5 JUMP JUMPDEST JUMPDEST SWAP1 PUSH1 0x0 MSTORE PUSH1 0x20 PUSH1 0x0 KECCAK256 SWAP1 PUSH1 0x4 MUL ADD PUSH1 0x3 ADD PUSH1 0x0 SWAP1 SLOAD SWAP1 PUSH2 0x100 EXP SWAP1 DIV PUSH1 0xFF AND SWAP4 POP SWAP4 POP SWAP4 POP POP PUSH2 0x1313 JUMP JUMPDEST DUP1 DUP1 PUSH2 0x12FE SWAP1 PUSH2 0x20E4 JUMP JUMPDEST SWAP2 POP POP PUSH2 0x11E3 JUMP JUMPDEST POP PUSH1 0x0 DUP1 PUSH1 0x0 SWAP3 POP SWAP3 POP SWAP3 POP JUMPDEST SWAP2 SWAP4 SWAP1 SWAP3 POP JUMP JUMPDEST PUSH1 0x9 SLOAD DUP2 JUMP JUMPDEST PUSH1 0x5 SLOAD DUP2 JUMP JUMPDEST PUSH1 0x0 PUSH1 0xD PUSH1 0x0 SWAP1 SLOAD SWAP1 PUSH2 0x100 EXP SWAP1 DIV PUSH20 0xFFFFFFFFFFFFFFFFFFFFFFFFFFFFFFFFFFFFFFFF AND PUSH20 0xFFFFFFFFFFFFFFFFFFFFFFFFFFFFFFFFFFFFFFFF AND PUSH4 0x3AF32ABF DUP4 PUSH1 0x40 MLOAD DUP3 PUSH4 0xFFFFFFFF AND PUSH1 0xE0 SHL DUP2 MSTORE PUSH1 0x4 ADD PUSH2 0x1383 SWAP2 SWAP1 PUSH2 0x1AA1 JUMP JUMPDEST PUSH1 0x20 PUSH1 0x40 MLOAD DUP1 DUP4 SUB DUP2 DUP7 GAS STATICCALL ISZERO DUP1 ISZERO PUSH2 0x13A0 JUMPI RETURNDATASIZE PUSH1 0x0 DUP1 RETURNDATACOPY RETURNDATASIZE PUSH1 0x0 REVERT JUMPDEST POP POP POP POP PUSH1 0x40 MLOAD RETURNDATASIZE PUSH1 0x1F NOT PUSH1 0x1F DUP3 ADD AND DUP3 ADD DUP1 PUSH1 0x40 MSTORE POP DUP2 ADD SWAP1 PUSH2 0x13C4 SWAP2 SWAP1 PUSH2 0x2158 JUMP JUMPDEST SWAP1 POP SWAP2 SWAP1 POP JUMP JUMPDEST PUSH1 0x0 PUSH1 0xD PUSH1 0x0 SWAP1 SLOAD SWAP1 PUSH2 0x100 EXP SWAP1 DIV PUSH20 0xFFFFFFFFFFFFFFFFFFFFFFFFFFFFFFFFFFFFFFFF AND PUSH20 0xFFFFFFFFFFFFFFFFFFFFFFFFFFFFFFFFFFFFFFFF AND PUSH4 0x2D598D7B DUP4 PUSH1 0x40 MLOAD DUP3 PUSH4 0xFFFFFFFF AND PUSH1 0xE0 SHL DUP2 MSTORE PUSH1 0x4 ADD PUSH2 0x1428 SWAP2 SWAP1 PUSH2 0x1AA1 JUMP JUMPDEST PUSH1 0x20 PUSH1 0x40 MLOAD DUP1 DUP4 SUB DUP2 DUP7 GAS STATICCALL ISZERO DUP1 ISZERO PUSH2 0x1445 JUMPI RETURNDATASIZE PUSH1 0x0 DUP1 RETURNDATACOPY RETURNDATASIZE PUSH1 0x0 REVERT JUMPDEST POP POP POP POP PUSH1 0x40 MLOAD RETURNDATASIZE PUSH1 0x1F NOT PUSH1 0x1F DUP3 ADD AND DUP3 ADD DUP1 PUSH1 0x40 MSTORE POP DUP2 ADD SWAP1 PUSH2 0x1469 SWAP2 SWAP1 PUSH2 0x2158 JUMP JUMPDEST SWAP1 POP SWAP2 SWAP1 POP JUMP JUMPDEST PUSH1 0x0 PUSH1 0xD PUSH1 0x0 SWAP1 SLOAD SWAP1 PUSH2 0x100 EXP SWAP1 DIV PUSH20 0xFFFFFFFFFFFFFFFFFFFFFFFFFFFFFFFFFFFFFFFF AND PUSH20 0xFFFFFFFFFFFFFFFFFFFFFFFFFFFFFFFFFFFFFFFF AND PUSH4 0x90583284 DUP4 PUSH1 0x40 MLOAD DUP3 PUSH4 0xFFFFFFFF AND PUSH1 0xE0 SHL DUP2 MSTORE PUSH1 0x4 ADD PUSH2 0x14CD SWAP2 SWAP1 PUSH2 0x1AA1 JUMP JUMPDEST PUSH1 0x20 PUSH1 0x40 MLOAD DUP1 DUP4 SUB DUP2 DUP7 GAS STATICCALL ISZERO DUP1 ISZERO PUSH2 0x14EA JUMPI RETURNDATASIZE PUSH1 0x0 DUP1 RETURNDATACOPY RETURNDATASIZE PUSH1 0x0 REVERT JUMPDEST POP POP POP POP PUSH1 0x40 MLOAD RETURNDATASIZE PUSH1 0x1F NOT PUSH1 0x1F DUP3 ADD AND DUP3 ADD DUP1 PUSH1 0x40 MSTORE POP DUP2 ADD SWAP1 PUSH2 0x150E SWAP2 SWAP1 PUSH2 0x2158 JUMP JUMPDEST SWAP1 POP SWAP2 SWAP1 POP JUMP JUMPDEST PUSH1 0x0 JUMPDEST PUSH1 0xA DUP1 SLOAD SWAP1 POP DUP2 LT ISZERO PUSH2 0x18E5 JUMPI PUSH1 0x9 SLOAD PUSH1 0xA DUP3 DUP2 SLOAD DUP2 LT PUSH2 0x153C JUMPI PUSH2 0x153B PUSH2 0x20B5 JUMP JUMPDEST JUMPDEST SWAP1 PUSH1 0x0 MSTORE PUSH1 0x20 PUSH1 0x0 KECCAK256 SWAP1 PUSH1 0x4 MUL ADD PUSH1 0x1 ADD SLOAD GT PUSH2 0x18D2 JUMPI PUSH1 0x0 PUSH1 0xA DUP3 DUP2 SLOAD DUP2 LT PUSH2 0x1569 JUMPI PUSH2 0x1568 PUSH2 0x20B5 JUMP JUMPDEST JUMPDEST SWAP1 PUSH1 0x0 MSTORE PUSH1 0x20 PUSH1 0x0 KECCAK256 SWAP1 PUSH1 0x4 MUL ADD PUSH1 0x2 ADD SLOAD PUSH1 0xA DUP4 DUP2 SLOAD DUP2 LT PUSH2 0x158F JUMPI PUSH2 0x158E PUSH2 0x20B5 JUMP JUMPDEST JUMPDEST SWAP1 PUSH1 0x0 MSTORE PUSH1 0x20 PUSH1 0x0 KECCAK256 SWAP1 PUSH1 0x4 MUL ADD PUSH1 0x1 ADD SLOAD PUSH2 0x15AB SWAP2 SWAP1 PUSH2 0x2185 JUMP JUMPDEST SWAP1 POP PUSH1 0x0 PUSH1 0xA DUP4 DUP2 SLOAD DUP2 LT PUSH2 0x15C3 JUMPI PUSH2 0x15C2 PUSH2 0x20B5 JUMP JUMPDEST JUMPDEST SWAP1 PUSH1 0x0 MSTORE PUSH1 0x20 PUSH1 0x0 KECCAK256 SWAP1 PUSH1 0x4 MUL ADD PUSH1 0x3 ADD PUSH1 0x0 PUSH2 0x100 EXP DUP2 SLOAD DUP2 PUSH1 0xFF MUL NOT AND SWAP1 DUP4 ISZERO ISZERO MUL OR SWAP1 SSTORE POP PUSH1 0x0 PUSH1 0xA DUP4 DUP2 SLOAD DUP2 LT PUSH2 0x1601 JUMPI PUSH2 0x1600 PUSH2 0x20B5 JUMP JUMPDEST JUMPDEST SWAP1 PUSH1 0x0 MSTORE PUSH1 0x20 PUSH1 0x0 KECCAK256 SWAP1 PUSH1 0x4 MUL ADD PUSH1 0x1 ADD DUP2 SWAP1 SSTORE POP PUSH1 0x0 PUSH1 0xA DUP4 DUP2 SLOAD DUP2 LT PUSH2 0x162C JUMPI PUSH2 0x162B PUSH2 0x20B5 JUMP JUMPDEST JUMPDEST SWAP1 PUSH1 0x0 MSTORE PUSH1 0x20 PUSH1 0x0 KECCAK256 SWAP1 PUSH1 0x4 MUL ADD PUSH1 0x2 ADD DUP2 SWAP1 SSTORE POP PUSH1 0xA DUP3 DUP2 SLOAD DUP2 LT PUSH2 0x1655 JUMPI PUSH2 0x1654 PUSH2 0x20B5 JUMP JUMPDEST JUMPDEST SWAP1 PUSH1 0x0 MSTORE PUSH1 0x20 PUSH1 0x0 KECCAK256 SWAP1 PUSH1 0x4 MUL ADD PUSH1 0x0 ADD PUSH1 0x0 SWAP1 SLOAD SWAP1 PUSH2 0x100 EXP SWAP1 DIV PUSH20 0xFFFFFFFFFFFFFFFFFFFFFFFFFFFFFFFFFFFFFFFF AND PUSH20 0xFFFFFFFFFFFFFFFFFFFFFFFFFFFFFFFFFFFFFFFF AND PUSH2 0x8FC DUP3 SWAP1 DUP2 ISZERO MUL SWAP1 PUSH1 0x40 MLOAD PUSH1 0x0 PUSH1 0x40 MLOAD DUP1 DUP4 SUB DUP2 DUP6 DUP9 DUP9 CALL SWAP4 POP POP POP POP ISZERO DUP1 ISZERO PUSH2 0x16CC JUMPI RETURNDATASIZE PUSH1 0x0 DUP1 RETURNDATACOPY RETURNDATASIZE PUSH1 0x0 REVERT JUMPDEST POP PUSH1 0xA DUP3 DUP2 SLOAD DUP2 LT PUSH2 0x16E1 JUMPI PUSH2 0x16E0 PUSH2 0x20B5 JUMP JUMPDEST JUMPDEST SWAP1 PUSH1 0x0 MSTORE PUSH1 0x20 PUSH1 0x0 KECCAK256 SWAP1 PUSH1 0x4 MUL ADD PUSH1 0x0 ADD PUSH1 0x0 SWAP1 SLOAD SWAP1 PUSH2 0x100 EXP SWAP1 DIV PUSH20 0xFFFFFFFFFFFFFFFFFFFFFFFFFFFFFFFFFFFFFFFF AND PUSH20 0xFFFFFFFFFFFFFFFFFFFFFFFFFFFFFFFFFFFFFFFF AND ADDRESS PUSH20 0xFFFFFFFFFFFFFFFFFFFFFFFFFFFFFFFFFFFFFFFF AND PUSH32 0xDDF252AD1BE2C89B69C2B068FC378DAA952BA7F163C4A11628F55A4DF523B3EF PUSH1 0xA DUP6 DUP2 SLOAD DUP2 LT PUSH2 0x1775 JUMPI PUSH2 0x1774 PUSH2 0x20B5 JUMP JUMPDEST JUMPDEST SWAP1 PUSH1 0x0 MSTORE PUSH1 0x20 PUSH1 0x0 KECCAK256 SWAP1 PUSH1 0x4 MUL ADD PUSH1 0x1 ADD SLOAD PUSH1 0x40 MLOAD PUSH2 0x1794 SWAP2 SWAP1 PUSH2 0x1991 JUMP JUMPDEST PUSH1 0x40 MLOAD DUP1 SWAP2 SUB SWAP1 LOG3 PUSH1 0xA DUP3 DUP2 SLOAD DUP2 LT PUSH2 0x17B0 JUMPI PUSH2 0x17AF PUSH2 0x20B5 JUMP JUMPDEST JUMPDEST SWAP1 PUSH1 0x0 MSTORE PUSH1 0x20 PUSH1 0x0 KECCAK256 SWAP1 PUSH1 0x4 MUL ADD PUSH1 0x0 ADD PUSH1 0x0 SWAP1 SLOAD SWAP1 PUSH2 0x100 EXP SWAP1 DIV PUSH20 0xFFFFFFFFFFFFFFFFFFFFFFFFFFFFFFFFFFFFFFFF AND PUSH20 0xFFFFFFFFFFFFFFFFFFFFFFFFFFFFFFFFFFFFFFFF AND CALLER PUSH20 0xFFFFFFFFFFFFFFFFFFFFFFFFFFFFFFFFFFFFFFFF AND PUSH32 0x789F186CC0A1CE666D90FCFDE7792038363D449592D55305C6D2CF30C94C5747 PUSH1 0xA DUP6 DUP2 SLOAD DUP2 LT PUSH2 0x1844 JUMPI PUSH2 0x1843 PUSH2 0x20B5 JUMP JUMPDEST JUMPDEST SWAP1 PUSH1 0x0 MSTORE PUSH1 0x20 PUSH1 0x0 KECCAK256 SWAP1 PUSH1 0x4 MUL ADD PUSH1 0x1 ADD SLOAD PUSH1 0xA DUP7 DUP2 SLOAD DUP2 LT PUSH2 0x186A JUMPI PUSH2 0x1869 PUSH2 0x20B5 JUMP JUMPDEST JUMPDEST SWAP1 PUSH1 0x0 MSTORE PUSH1 0x20 PUSH1 0x0 KECCAK256 SWAP1 PUSH1 0x4 MUL ADD PUSH1 0x2 ADD SLOAD PUSH1 0x40 MLOAD PUSH2 0x188A SWAP3 SWAP2 SWAP1 PUSH2 0x1EF1 JUMP JUMPDEST PUSH1 0x40 MLOAD DUP1 SWAP2 SUB SWAP1 LOG3 PUSH1 0xA DUP3 DUP2 SLOAD DUP2 LT PUSH2 0x18A6 JUMPI PUSH2 0x18A5 PUSH2 0x20B5 JUMP JUMPDEST JUMPDEST SWAP1 PUSH1 0x0 MSTORE PUSH1 0x20 PUSH1 0x0 KECCAK256 SWAP1 PUSH1 0x4 MUL ADD PUSH1 0x1 ADD SLOAD PUSH1 0x9 PUSH1 0x0 DUP3 DUP3 SLOAD PUSH2 0x18C9 SWAP2 SWAP1 PUSH2 0x21C7 JUMP JUMPDEST SWAP3 POP POP DUP2 SWAP1 SSTORE POP POP JUMPDEST DUP1 DUP1 PUSH2 0x18DD SWAP1 PUSH2 0x20E4 JUMP JUMPDEST SWAP2 POP POP PUSH2 0x1518 JUMP JUMPDEST POP JUMP JUMPDEST PUSH1 0x0 DUP1 REVERT JUMPDEST PUSH1 0x0 PUSH20 0xFFFFFFFFFFFFFFFFFFFFFFFFFFFFFFFFFFFFFFFF DUP3 AND SWAP1 POP SWAP2 SWAP1 POP JUMP JUMPDEST PUSH1 0x0 PUSH2 0x1918 DUP3 PUSH2 0x18ED JUMP JUMPDEST SWAP1 POP SWAP2 SWAP1 POP JUMP JUMPDEST PUSH2 0x1928 DUP2 PUSH2 0x190D JUMP JUMPDEST DUP2 EQ PUSH2 0x1933 JUMPI PUSH1 0x0 DUP1 REVERT JUMPDEST POP JUMP JUMPDEST PUSH1 0x0 DUP2 CALLDATALOAD SWAP1 POP PUSH2 0x1945 DUP2 PUSH2 0x191F JUMP JUMPDEST SWAP3 SWAP2 POP POP JUMP JUMPDEST PUSH1 0x0 PUSH1 0x20 DUP3 DUP5 SUB SLT ISZERO PUSH2 0x1961 JUMPI PUSH2 0x1960 PUSH2 0x18E8 JUMP JUMPDEST JUMPDEST PUSH1 0x0 PUSH2 0x196F DUP5 DUP3 DUP6 ADD PUSH2 0x1936 JUMP JUMPDEST SWAP2 POP POP SWAP3 SWAP2 POP POP JUMP JUMPDEST PUSH1 0x0 DUP2 SWAP1 POP SWAP2 SWAP1 POP JUMP JUMPDEST PUSH2 0x198B DUP2 PUSH2 0x1978 JUMP JUMPDEST DUP3 MSTORE POP POP JUMP JUMPDEST PUSH1 0x0 PUSH1 0x20 DUP3 ADD SWAP1 POP PUSH2 0x19A6 PUSH1 0x0 DUP4 ADD DUP5 PUSH2 0x1982 JUMP JUMPDEST SWAP3 SWAP2 POP POP JUMP JUMPDEST PUSH1 0x0 DUP2 SWAP1 POP SWAP2 SWAP1 POP JUMP JUMPDEST PUSH1 0x0 PUSH2 0x19D1 PUSH2 0x19CC PUSH2 0x19C7 DUP5 PUSH2 0x18ED JUMP JUMPDEST PUSH2 0x19AC JUMP JUMPDEST PUSH2 0x18ED JUMP JUMPDEST SWAP1 POP SWAP2 SWAP1 POP JUMP JUMPDEST PUSH1 0x0 PUSH2 0x19E3 DUP3 PUSH2 0x19B6 JUMP JUMPDEST SWAP1 POP SWAP2 SWAP1 POP JUMP JUMPDEST PUSH1 0x0 PUSH2 0x19F5 DUP3 PUSH2 0x19D8 JUMP JUMPDEST SWAP1 POP SWAP2 SWAP1 POP JUMP JUMPDEST PUSH2 0x1A05 DUP2 PUSH2 0x19EA JUMP JUMPDEST DUP3 MSTORE POP POP JUMP JUMPDEST PUSH1 0x0 PUSH1 0x20 DUP3 ADD SWAP1 POP PUSH2 0x1A20 PUSH1 0x0 DUP4 ADD DUP5 PUSH2 0x19FC JUMP JUMPDEST SWAP3 SWAP2 POP POP JUMP JUMPDEST PUSH2 0x1A2F DUP2 PUSH2 0x1978 JUMP JUMPDEST DUP2 EQ PUSH2 0x1A3A JUMPI PUSH1 0x0 DUP1 REVERT JUMPDEST POP JUMP JUMPDEST PUSH1 0x0 DUP2 CALLDATALOAD SWAP1 POP PUSH2 0x1A4C DUP2 PUSH2 0x1A26 JUMP JUMPDEST SWAP3 SWAP2 POP POP JUMP JUMPDEST PUSH1 0x0 DUP1 PUSH1 0x40 DUP4 DUP6 SUB SLT ISZERO PUSH2 0x1A69 JUMPI PUSH2 0x1A68 PUSH2 0x18E8 JUMP JUMPDEST JUMPDEST PUSH1 0x0 PUSH2 0x1A77 DUP6 DUP3 DUP7 ADD PUSH2 0x1A3D JUMP JUMPDEST SWAP3 POP POP PUSH1 0x20 PUSH2 0x1A88 DUP6 DUP3 DUP7 ADD PUSH2 0x1A3D JUMP JUMPDEST SWAP2 POP POP SWAP3 POP SWAP3 SWAP1 POP JUMP JUMPDEST PUSH2 0x1A9B DUP2 PUSH2 0x190D JUMP JUMPDEST DUP3 MSTORE POP POP JUMP JUMPDEST PUSH1 0x0 PUSH1 0x20 DUP3 ADD SWAP1 POP PUSH2 0x1AB6 PUSH1 0x0 DUP4 ADD DUP5 PUSH2 0x1A92 JUMP JUMPDEST SWAP3 SWAP2 POP POP JUMP JUMPDEST PUSH1 0x0 PUSH1 0x20 DUP3 DUP5 SUB SLT ISZERO PUSH2 0x1AD2 JUMPI PUSH2 0x1AD1 PUSH2 0x18E8 JUMP JUMPDEST JUMPDEST PUSH1 0x0 PUSH2 0x1AE0 DUP5 DUP3 DUP6 ADD PUSH2 0x1A3D JUMP JUMPDEST SWAP2 POP POP SWAP3 SWAP2 POP POP JUMP JUMPDEST PUSH1 0x0 DUP2 ISZERO ISZERO SWAP1 POP SWAP2 SWAP1 POP JUMP JUMPDEST PUSH2 0x1AFE DUP2 PUSH2 0x1AE9 JUMP JUMPDEST DUP3 MSTORE POP POP JUMP JUMPDEST PUSH1 0x0 PUSH1 0x80 DUP3 ADD SWAP1 POP PUSH2 0x1B19 PUSH1 0x0 DUP4 ADD DUP8 PUSH2 0x1A92 JUMP JUMPDEST PUSH2 0x1B26 PUSH1 0x20 DUP4 ADD DUP7 PUSH2 0x1982 JUMP JUMPDEST PUSH2 0x1B33 PUSH1 0x40 DUP4 ADD DUP6 PUSH2 0x1982 JUMP JUMPDEST PUSH2 0x1B40 PUSH1 0x60 DUP4 ADD DUP5 PUSH2 0x1AF5 JUMP JUMPDEST SWAP6 SWAP5 POP POP POP POP POP JUMP JUMPDEST PUSH1 0x0 PUSH2 0x1B54 DUP3 PUSH2 0x19D8 JUMP JUMPDEST SWAP1 POP SWAP2 SWAP1 POP JUMP JUMPDEST PUSH2 0x1B64 DUP2 PUSH2 0x1B49 JUMP JUMPDEST DUP3 MSTORE POP POP JUMP JUMPDEST PUSH1 0x0 PUSH1 0x20 DUP3 ADD SWAP1 POP PUSH2 0x1B7F PUSH1 0x0 DUP4 ADD DUP5 PUSH2 0x1B5B JUMP JUMPDEST SWAP3 SWAP2 POP POP JUMP JUMPDEST PUSH1 0x0 PUSH1 0x60 DUP3 ADD SWAP1 POP PUSH2 0x1B9A PUSH1 0x0 DUP4 ADD DUP7 PUSH2 0x1982 JUMP JUMPDEST PUSH2 0x1BA7 PUSH1 0x20 DUP4 ADD DUP6 PUSH2 0x1982 JUMP JUMPDEST PUSH2 0x1BB4 PUSH1 0x40 DUP4 ADD DUP5 PUSH2 0x1AF5 JUMP JUMPDEST SWAP5 SWAP4 POP POP POP POP JUMP JUMPDEST PUSH1 0x0 PUSH1 0x20 DUP3 ADD SWAP1 POP PUSH2 0x1BD1 PUSH1 0x0 DUP4 ADD DUP5 PUSH2 0x1AF5 JUMP JUMPDEST SWAP3 SWAP2 POP POP JUMP JUMPDEST PUSH1 0x0 DUP2 MLOAD SWAP1 POP SWAP2 SWAP1 POP JUMP JUMPDEST PUSH1 0x0 DUP3 DUP3 MSTORE PUSH1 0x20 DUP3 ADD SWAP1 POP SWAP3 SWAP2 POP POP JUMP JUMPDEST PUSH1 0x0 JUMPDEST DUP4 DUP2 LT ISZERO PUSH2 0x1C11 JUMPI DUP1 DUP3 ADD MLOAD DUP2 DUP5 ADD MSTORE PUSH1 0x20 DUP2 ADD SWAP1 POP PUSH2 0x1BF6 JUMP JUMPDEST PUSH1 0x0 DUP5 DUP5 ADD MSTORE POP POP POP POP JUMP JUMPDEST PUSH1 0x0 PUSH1 0x1F NOT PUSH1 0x1F DUP4 ADD AND SWAP1 POP SWAP2 SWAP1 POP JUMP JUMPDEST PUSH1 0x0 PUSH2 0x1C39 DUP3 PUSH2 0x1BD7 JUMP JUMPDEST PUSH2 0x1C43 DUP2 DUP6 PUSH2 0x1BE2 JUMP JUMPDEST SWAP4 POP PUSH2 0x1C53 DUP2 DUP6 PUSH1 0x20 DUP7 ADD PUSH2 0x1BF3 JUMP JUMPDEST PUSH2 0x1C5C DUP2 PUSH2 0x1C1D JUMP JUMPDEST DUP5 ADD SWAP2 POP POP SWAP3 SWAP2 POP POP JUMP JUMPDEST PUSH1 0x0 PUSH1 0x20 DUP3 ADD SWAP1 POP DUP2 DUP2 SUB PUSH1 0x0 DUP4 ADD MSTORE PUSH2 0x1C81 DUP2 DUP5 PUSH2 0x1C2E JUMP JUMPDEST SWAP1 POP SWAP3 SWAP2 POP POP JUMP JUMPDEST PUSH32 0x416363657373207265737472696374656420746F207265676973746572656420 PUSH1 0x0 DUP3 ADD MSTORE PUSH32 0x696E766573746F72730000000000000000000000000000000000000000000000 PUSH1 0x20 DUP3 ADD MSTORE POP JUMP JUMPDEST PUSH1 0x0 PUSH2 0x1CE5 PUSH1 0x29 DUP4 PUSH2 0x1BE2 JUMP JUMPDEST SWAP2 POP PUSH2 0x1CF0 DUP3 PUSH2 0x1C89 JUMP JUMPDEST PUSH1 0x40 DUP3 ADD SWAP1 POP SWAP2 SWAP1 POP JUMP JUMPDEST PUSH1 0x0 PUSH1 0x20 DUP3 ADD SWAP1 POP DUP2 DUP2 SUB PUSH1 0x0 DUP4 ADD MSTORE PUSH2 0x1D14 DUP2 PUSH2 0x1CD8 JUMP JUMPDEST SWAP1 POP SWAP2 SWAP1 POP JUMP JUMPDEST PUSH32 0x416363657373207265737472696374656420746F206163637265646974656420 PUSH1 0x0 DUP3 ADD MSTORE PUSH32 0x696E766573746F727320616E642062726F6B6572206465616C65727300000000 PUSH1 0x20 DUP3 ADD MSTORE POP JUMP JUMPDEST PUSH1 0x0 PUSH2 0x1D77 PUSH1 0x3C DUP4 PUSH2 0x1BE2 JUMP JUMPDEST SWAP2 POP PUSH2 0x1D82 DUP3 PUSH2 0x1D1B JUMP JUMPDEST PUSH1 0x40 DUP3 ADD SWAP1 POP SWAP2 SWAP1 POP JUMP JUMPDEST PUSH1 0x0 PUSH1 0x20 DUP3 ADD SWAP1 POP DUP2 DUP2 SUB PUSH1 0x0 DUP4 ADD MSTORE PUSH2 0x1DA6 DUP2 PUSH2 0x1D6A JUMP JUMPDEST SWAP1 POP SWAP2 SWAP1 POP JUMP JUMPDEST PUSH32 0x54686520626F6E642068617320616C7265616479206D61747572656400000000 PUSH1 0x0 DUP3 ADD MSTORE POP JUMP JUMPDEST PUSH1 0x0 PUSH2 0x1DE3 PUSH1 0x1C DUP4 PUSH2 0x1BE2 JUMP JUMPDEST SWAP2 POP PUSH2 0x1DEE DUP3 PUSH2 0x1DAD JUMP JUMPDEST PUSH1 0x20 DUP3 ADD SWAP1 POP SWAP2 SWAP1 POP JUMP JUMPDEST PUSH1 0x0 PUSH1 0x20 DUP3 ADD SWAP1 POP DUP2 DUP2 SUB PUSH1 0x0 DUP4 ADD MSTORE PUSH2 0x1E12 DUP2 PUSH2 0x1DD6 JUMP JUMPDEST SWAP1 POP SWAP2 SWAP1 POP JUMP JUMPDEST PUSH32 0x496E76616C696420626F6E6420756E6974730000000000000000000000000000 PUSH1 0x0 DUP3 ADD MSTORE POP JUMP JUMPDEST PUSH1 0x0 PUSH2 0x1E4F PUSH1 0x12 DUP4 PUSH2 0x1BE2 JUMP JUMPDEST SWAP2 POP PUSH2 0x1E5A DUP3 PUSH2 0x1E19 JUMP JUMPDEST PUSH1 0x20 DUP3 ADD SWAP1 POP SWAP2 SWAP1 POP JUMP JUMPDEST PUSH1 0x0 PUSH1 0x20 DUP3 ADD SWAP1 POP DUP2 DUP2 SUB PUSH1 0x0 DUP4 ADD MSTORE PUSH2 0x1E7E DUP2 PUSH2 0x1E42 JUMP JUMPDEST SWAP1 POP SWAP2 SWAP1 POP JUMP JUMPDEST PUSH32 0x496E76616C696420707269636500000000000000000000000000000000000000 PUSH1 0x0 DUP3 ADD MSTORE POP JUMP JUMPDEST PUSH1 0x0 PUSH2 0x1EBB PUSH1 0xD DUP4 PUSH2 0x1BE2 JUMP JUMPDEST SWAP2 POP PUSH2 0x1EC6 DUP3 PUSH2 0x1E85 JUMP JUMPDEST PUSH1 0x20 DUP3 ADD SWAP1 POP SWAP2 SWAP1 POP JUMP JUMPDEST PUSH1 0x0 PUSH1 0x20 DUP3 ADD SWAP1 POP DUP2 DUP2 SUB PUSH1 0x0 DUP4 ADD MSTORE PUSH2 0x1EEA DUP2 PUSH2 0x1EAE JUMP JUMPDEST SWAP1 POP SWAP2 SWAP1 POP JUMP JUMPDEST PUSH1 0x0 PUSH1 0x40 DUP3 ADD SWAP1 POP PUSH2 0x1F06 PUSH1 0x0 DUP4 ADD DUP6 PUSH2 0x1982 JUMP JUMPDEST PUSH2 0x1F13 PUSH1 0x20 DUP4 ADD DUP5 PUSH2 0x1982 JUMP JUMPDEST SWAP4 SWAP3 POP POP POP JUMP JUMPDEST PUSH32 0x4E6F20626F6E642071756F746520617661696C61626C65000000000000000000 PUSH1 0x0 DUP3 ADD MSTORE POP JUMP JUMPDEST PUSH1 0x0 PUSH2 0x1F50 PUSH1 0x17 DUP4 PUSH2 0x1BE2 JUMP JUMPDEST SWAP2 POP PUSH2 0x1F5B DUP3 PUSH2 0x1F1A JUMP JUMPDEST PUSH1 0x20 DUP3 ADD SWAP1 POP SWAP2 SWAP1 POP JUMP JUMPDEST PUSH1 0x0 PUSH1 0x20 DUP3 ADD SWAP1 POP DUP2 DUP2 SUB PUSH1 0x0 DUP4 ADD MSTORE PUSH2 0x1F7F DUP2 PUSH2 0x1F43 JUMP JUMPDEST SWAP1 POP SWAP2 SWAP1 POP JUMP JUMPDEST PUSH32 0x4E487B7100000000000000000000000000000000000000000000000000000000 PUSH1 0x0 MSTORE PUSH1 0x22 PUSH1 0x4 MSTORE PUSH1 0x24 PUSH1 0x0 REVERT JUMPDEST PUSH1 0x0 PUSH1 0x2 DUP3 DIV SWAP1 POP PUSH1 0x1 DUP3 AND DUP1 PUSH2 0x1FCD JUMPI PUSH1 0x7F DUP3 AND SWAP2 POP JUMPDEST PUSH1 0x20 DUP3 LT DUP2 SUB PUSH2 0x1FE0 JUMPI PUSH2 0x1FDF PUSH2 0x1F86 JUMP JUMPDEST JUMPDEST POP SWAP2 SWAP1 POP JUMP JUMPDEST PUSH32 0x496E76616C696420707572636861736520616D6F756E74000000000000000000 PUSH1 0x0 DUP3 ADD MSTORE POP JUMP JUMPDEST PUSH1 0x0 PUSH2 0x201C PUSH1 0x17 DUP4 PUSH2 0x1BE2 JUMP JUMPDEST SWAP2 POP PUSH2 0x2027 DUP3 PUSH2 0x1FE6 JUMP JUMPDEST PUSH1 0x20 DUP3 ADD SWAP1 POP SWAP2 SWAP1 POP JUMP JUMPDEST PUSH1 0x0 PUSH1 0x20 DUP3 ADD SWAP1 POP DUP2 DUP2 SUB PUSH1 0x0 DUP4 ADD MSTORE PUSH2 0x204B DUP2 PUSH2 0x200F JUMP JUMPDEST SWAP1 POP SWAP2 SWAP1 POP JUMP JUMPDEST PUSH32 0x4E487B7100000000000000000000000000000000000000000000000000000000 PUSH1 0x0 MSTORE PUSH1 0x11 PUSH1 0x4 MSTORE PUSH1 0x24 PUSH1 0x0 REVERT JUMPDEST PUSH1 0x0 PUSH2 0x208C DUP3 PUSH2 0x1978 JUMP JUMPDEST SWAP2 POP PUSH2 0x2097 DUP4 PUSH2 0x1978 JUMP JUMPDEST SWAP3 POP DUP3 DUP3 ADD SWAP1 POP DUP1 DUP3 GT ISZERO PUSH2 0x20AF JUMPI PUSH2 0x20AE PUSH2 0x2052 JUMP JUMPDEST JUMPDEST SWAP3 SWAP2 POP POP JUMP JUMPDEST PUSH32 0x4E487B7100000000000000000000000000000000000000000000000000000000 PUSH1 0x0 MSTORE PUSH1 0x32 PUSH1 0x4 MSTORE PUSH1 0x24 PUSH1 0x0 REVERT JUMPDEST PUSH1 0x0 PUSH2 0x20EF DUP3 PUSH2 0x1978 JUMP JUMPDEST SWAP2 POP PUSH32 0xFFFFFFFFFFFFFFFFFFFFFFFFFFFFFFFFFFFFFFFFFFFFFFFFFFFFFFFFFFFFFFFF DUP3 SUB PUSH2 0x2121 JUMPI PUSH2 0x2120 PUSH2 0x2052 JUMP JUMPDEST JUMPDEST PUSH1 0x1 DUP3 ADD SWAP1 POP SWAP2 SWAP1 POP JUMP JUMPDEST PUSH2 0x2135 DUP2 PUSH2 0x1AE9 JUMP JUMPDEST DUP2 EQ PUSH2 0x2140 JUMPI PUSH1 0x0 DUP1 REVERT JUMPDEST POP JUMP JUMPDEST PUSH1 0x0 DUP2 MLOAD SWAP1 POP PUSH2 0x2152 DUP2 PUSH2 0x212C JUMP JUMPDEST SWAP3 SWAP2 POP POP JUMP JUMPDEST PUSH1 0x0 PUSH1 0x20 DUP3 DUP5 SUB SLT ISZERO PUSH2 0x216E JUMPI PUSH2 0x216D PUSH2 0x18E8 JUMP JUMPDEST JUMPDEST PUSH1 0x0 PUSH2 0x217C DUP5 DUP3 DUP6 ADD PUSH2 0x2143 JUMP JUMPDEST SWAP2 POP POP SWAP3 SWAP2 POP POP JUMP JUMPDEST PUSH1 0x0 PUSH2 0x2190 DUP3 PUSH2 0x1978 JUMP JUMPDEST SWAP2 POP PUSH2 0x219B DUP4 PUSH2 0x1978 JUMP JUMPDEST SWAP3 POP DUP3 DUP3 MUL PUSH2 0x21A9 DUP2 PUSH2 0x1978 JUMP JUMPDEST SWAP2 POP DUP3 DUP3 DIV DUP5 EQ DUP4 ISZERO OR PUSH2 0x21C0 JUMPI PUSH2 0x21BF PUSH2 0x2052 JUMP JUMPDEST JUMPDEST POP SWAP3 SWAP2 POP POP JUMP JUMPDEST PUSH1 0x0 PUSH2 0x21D2 DUP3 PUSH2 0x1978 JUMP JUMPDEST SWAP2 POP PUSH2 0x21DD DUP4 PUSH2 0x1978 JUMP JUMPDEST SWAP3 POP DUP3 DUP3 SUB SWAP1 POP DUP2 DUP2 GT ISZERO PUSH2 0x21F5 JUMPI PUSH2 0x21F4 PUSH2 0x2052 JUMP JUMPDEST JUMPDEST SWAP3 SWAP2 POP POP JUMP INVALID LOG2 PUSH5 0x6970667358 0x22 SLT KECCAK256 SMOD SWAP9 CODESIZE PUSH15 0xED0C787C477CADD09958B12C4E1935 0xDE 0xB5 0xAE 0xEE PUSH10 0xB8830F0113B45F306473 PUSH16 0x6C634300081200330000000000000000 "
		},
		"gasEstimates": {
			"creation": {
				"codeDepositCost": "1750600",
				"executionCost": "infinite",
				"totalCost": "infinite"
			},
			"external": {
				"addBondTrade(uint256,uint256)": "infinite",
				"bondName()": "infinite",
				"bondQuotes(uint256)": "infinite",
				"buy()": "infinite",
				"catAddress()": "infinite",
				"depositBalance()": "2562",
				"getBondQuote(address)": "infinite",
				"getTotalBondUnits()": "infinite",
				"interestRate()": "2496",
				"investorQuotes(address)": "2838",
				"investors(address)": "infinite",
				"isMatured()": "2560",
				"issuer()": "2604",
				"issuerWallet()": "2647",
				"maturityDate()": "2561",
				"maxBondUnits()": "2539",
				"poolAddress()": "infinite",
				"quoteBondUnits(uint256)": "infinite",
				"removeBondQuote()": "infinite",
				"restricted()": "2516",
				"setConsolidateAuditTrailContract(address)": "24789",
				"setOfferingPoolContract(address)": "24833",
				"totalPrincipal()": "2518"
			},
			"internal": {
				"executeBondTrades()": "infinite",
				"isAccreditedInvestor(address)": "infinite",
				"isBrokerDealer(address)": "infinite",
				"isRegisteredInvestor(address)": "infinite"
			}
		},
		"methodIdentifiers": {
			"addBondTrade(uint256,uint256)": "1a0559f2",
			"bondName()": "887b6abc",
			"bondQuotes(uint256)": "1da8ca22",
			"buy()": "a6f2ae3a",
			"catAddress()": "3d5bc640",
			"depositBalance()": "61bc1a49",
			"getBondQuote(address)": "cc7c19ce",
			"getTotalBondUnits()": "c0cf0c63",
			"interestRate()": "7c3a00fd",
			"investorQuotes(address)": "07e45ffe",
			"investors(address)": "6f7bc9be",
			"isMatured()": "7f2b6a0d",
			"issuer()": "1d143848",
			"issuerWallet()": "8d5c707d",
			"maturityDate()": "d59624b4",
			"maxBondUnits()": "cca16a9f",
			"poolAddress()": "1755ff21",
			"quoteBondUnits(uint256)": "a223565e",
			"removeBondQuote()": "33713e96",
			"restricted()": "7072c6b1",
			"setConsolidateAuditTrailContract(address)": "492d5093",
			"setOfferingPoolContract(address)": "55dce5e9",
			"totalPrincipal()": "4b1533b2"
		}
	},
	"abi": [
		{
			"inputs": [
				{
					"internalType": "string",
					"name": "_bondName",
					"type": "string"
				},
				{
					"internalType": "address",
					"name": "_issuer",
					"type": "address"
				},
				{
					"internalType": "address",
					"name": "_issuerWallet",
					"type": "address"
				},
				{
					"internalType": "uint256",
					"name": "_totalPrincipal",
					"type": "uint256"
				},
				{
					"internalType": "uint256",
					"name": "_interestRate",
					"type": "uint256"
				},
				{
					"internalType": "uint256",
					"name": "_maturityDate",
					"type": "uint256"
				},
				{
					"internalType": "bool",
					"name": "_restricted",
					"type": "bool"
				},
				{
					"internalType": "uint256",
					"name": "_maxBondUnits",
					"type": "uint256"
				}
			],
			"stateMutability": "nonpayable",
			"type": "constructor"
		},
		{
			"anonymous": false,
			"inputs": [],
			"name": "BondMatured",
			"type": "event"
		},
		{
			"anonymous": false,
			"inputs": [
				{
					"indexed": true,
					"internalType": "address",
					"name": "seller",
					"type": "address"
				},
				{
					"indexed": false,
					"internalType": "uint256",
					"name": "bondUnits",
					"type": "uint256"
				},
				{
					"indexed": false,
					"internalType": "uint256",
					"name": "price",
					"type": "uint256"
				}
			],
			"name": "BondQuoteAdded",
			"type": "event"
		},
		{
			"anonymous": false,
			"inputs": [
				{
					"indexed": true,
					"internalType": "address",
					"name": "seller",
					"type": "address"
				}
			],
			"name": "BondQuoteRemoved",
			"type": "event"
		},
		{
			"anonymous": false,
			"inputs": [
				{
					"indexed": true,
					"internalType": "address",
					"name": "seller",
					"type": "address"
				},
				{
					"indexed": false,
					"internalType": "uint256",
					"name": "bondUnits",
					"type": "uint256"
				},
				{
					"indexed": false,
					"internalType": "uint256",
					"name": "price",
					"type": "uint256"
				}
			],
			"name": "BondTradeAdded",
			"type": "event"
		},
		{
			"anonymous": false,
			"inputs": [
				{
					"indexed": true,
					"internalType": "address",
					"name": "buyer",
					"type": "address"
				},
				{
					"indexed": true,
					"internalType": "address",
					"name": "seller",
					"type": "address"
				},
				{
					"indexed": false,
					"internalType": "uint256",
					"name": "bondUnits",
					"type": "uint256"
				},
				{
					"indexed": false,
					"internalType": "uint256",
					"name": "price",
					"type": "uint256"
				}
			],
			"name": "BondTradeExecuted",
			"type": "event"
		},
		{
			"anonymous": false,
			"inputs": [
				{
					"indexed": true,
					"internalType": "address",
					"name": "from",
					"type": "address"
				},
				{
					"indexed": true,
					"internalType": "address",
					"name": "to",
					"type": "address"
				},
				{
					"indexed": false,
					"internalType": "uint256",
					"name": "value",
					"type": "uint256"
				}
			],
			"name": "Transfer",
			"type": "event"
		},
		{
			"inputs": [
				{
					"internalType": "uint256",
					"name": "bondUnits",
					"type": "uint256"
				},
				{
					"internalType": "uint256",
					"name": "price",
					"type": "uint256"
				}
			],
			"name": "addBondTrade",
			"outputs": [],
			"stateMutability": "nonpayable",
			"type": "function"
		},
		{
			"inputs": [],
			"name": "bondName",
			"outputs": [
				{
					"internalType": "string",
					"name": "",
					"type": "string"
				}
			],
			"stateMutability": "view",
			"type": "function"
		},
		{
			"inputs": [
				{
					"internalType": "uint256",
					"name": "",
					"type": "uint256"
				}
			],
			"name": "bondQuotes",
			"outputs": [
				{
					"internalType": "address",
					"name": "seller",
					"type": "address"
				},
				{
					"internalType": "uint256",
					"name": "bondUnits",
					"type": "uint256"
				},
				{
					"internalType": "uint256",
					"name": "price",
					"type": "uint256"
				},
				{
					"internalType": "bool",
					"name": "active",
					"type": "bool"
				}
			],
			"stateMutability": "view",
			"type": "function"
		},
		{
			"inputs": [],
			"name": "buy",
			"outputs": [],
			"stateMutability": "payable",
			"type": "function"
		},
		{
			"inputs": [],
			"name": "catAddress",
			"outputs": [
				{
					"internalType": "contract IConsolidatedAuditTrail",
					"name": "",
					"type": "address"
				}
			],
			"stateMutability": "view",
			"type": "function"
		},
		{
			"inputs": [],
			"name": "depositBalance",
			"outputs": [
				{
					"internalType": "uint256",
					"name": "",
					"type": "uint256"
				}
			],
			"stateMutability": "view",
			"type": "function"
		},
		{
			"inputs": [
				{
					"internalType": "address",
					"name": "seller",
					"type": "address"
				}
			],
			"name": "getBondQuote",
			"outputs": [
				{
					"internalType": "uint256",
					"name": "bondUnits",
					"type": "uint256"
				},
				{
					"internalType": "uint256",
					"name": "price",
					"type": "uint256"
				},
				{
					"internalType": "bool",
					"name": "active",
					"type": "bool"
				}
			],
			"stateMutability": "view",
			"type": "function"
		},
		{
			"inputs": [],
			"name": "getTotalBondUnits",
			"outputs": [
				{
					"internalType": "uint256",
					"name": "",
					"type": "uint256"
				}
			],
			"stateMutability": "view",
			"type": "function"
		},
		{
			"inputs": [],
			"name": "interestRate",
			"outputs": [
				{
					"internalType": "uint256",
					"name": "",
					"type": "uint256"
				}
			],
			"stateMutability": "view",
			"type": "function"
		},
		{
			"inputs": [
				{
					"internalType": "address",
					"name": "",
					"type": "address"
				}
			],
			"name": "investorQuotes",
			"outputs": [
				{
					"internalType": "uint256",
					"name": "",
					"type": "uint256"
				}
			],
			"stateMutability": "view",
			"type": "function"
		},
		{
			"inputs": [
				{
					"internalType": "address",
					"name": "",
					"type": "address"
				}
			],
			"name": "investors",
			"outputs": [
				{
					"internalType": "uint256",
					"name": "principal",
					"type": "uint256"
				},
				{
					"internalType": "uint256",
					"name": "interestEarned",
					"type": "uint256"
				},
				{
					"internalType": "bool",
					"name": "redeemed",
					"type": "bool"
				}
			],
			"stateMutability": "view",
			"type": "function"
		},
		{
			"inputs": [],
			"name": "isMatured",
			"outputs": [
				{
					"internalType": "bool",
					"name": "",
					"type": "bool"
				}
			],
			"stateMutability": "view",
			"type": "function"
		},
		{
			"inputs": [],
			"name": "issuer",
			"outputs": [
				{
					"internalType": "address",
					"name": "",
					"type": "address"
				}
			],
			"stateMutability": "view",
			"type": "function"
		},
		{
			"inputs": [],
			"name": "issuerWallet",
			"outputs": [
				{
					"internalType": "address",
					"name": "",
					"type": "address"
				}
			],
			"stateMutability": "view",
			"type": "function"
		},
		{
			"inputs": [],
			"name": "maturityDate",
			"outputs": [
				{
					"internalType": "uint256",
					"name": "",
					"type": "uint256"
				}
			],
			"stateMutability": "view",
			"type": "function"
		},
		{
			"inputs": [],
			"name": "maxBondUnits",
			"outputs": [
				{
					"internalType": "uint256",
					"name": "",
					"type": "uint256"
				}
			],
			"stateMutability": "view",
			"type": "function"
		},
		{
			"inputs": [],
			"name": "poolAddress",
			"outputs": [
				{
					"internalType": "contract IOfferingPool",
					"name": "",
					"type": "address"
				}
			],
			"stateMutability": "view",
			"type": "function"
		},
		{
			"inputs": [
				{
					"internalType": "uint256",
					"name": "bondUnits",
					"type": "uint256"
				}
			],
			"name": "quoteBondUnits",
			"outputs": [],
			"stateMutability": "nonpayable",
			"type": "function"
		},
		{
			"inputs": [],
			"name": "removeBondQuote",
			"outputs": [],
			"stateMutability": "nonpayable",
			"type": "function"
		},
		{
			"inputs": [],
			"name": "restricted",
			"outputs": [
				{
					"internalType": "bool",
					"name": "",
					"type": "bool"
				}
			],
			"stateMutability": "view",
			"type": "function"
		},
		{
			"inputs": [
				{
					"internalType": "address",
					"name": "_catContract",
					"type": "address"
				}
			],
			"name": "setConsolidateAuditTrailContract",
			"outputs": [],
			"stateMutability": "nonpayable",
			"type": "function"
		},
		{
			"inputs": [
				{
					"internalType": "address",
					"name": "_poolContract",
					"type": "address"
				}
			],
			"name": "setOfferingPoolContract",
			"outputs": [],
			"stateMutability": "nonpayable",
			"type": "function"
		},
		{
			"inputs": [],
			"name": "totalPrincipal",
			"outputs": [
				{
					"internalType": "uint256",
					"name": "",
					"type": "uint256"
				}
			],
			"stateMutability": "view",
			"type": "function"
		}
	]
}