{
	"data": {
		"bytecode": {
			"linkReferences": {},
			"object": "608060405260016005553480156200001657600080fd5b50604051620029443803806200294483398181016040528101906200003c919062000171565b826000806101000a81548173ffffffffffffffffffffffffffffffffffffffff021916908373ffffffffffffffffffffffffffffffffffffffff16021790555080600160006101000a81548173ffffffffffffffffffffffffffffffffffffffff021916908373ffffffffffffffffffffffffffffffffffffffff16021790555081600260006101000a81548173ffffffffffffffffffffffffffffffffffffffff021916908373ffffffffffffffffffffffffffffffffffffffff160217905550505050620001cd565b600080fd5b600073ffffffffffffffffffffffffffffffffffffffff82169050919050565b600062000139826200010c565b9050919050565b6200014b816200012c565b81146200015757600080fd5b50565b6000815190506200016b8162000140565b92915050565b6000806000606084860312156200018d576200018c62000107565b5b60006200019d868287016200015a565b9350506020620001b0868287016200015a565b9250506040620001c3868287016200015a565b9150509250925092565b61276780620001dd6000396000f3fe60806040526004361061009c5760003560e01c80634a8393f3116100645780634a8393f31461018b578063999b93af146101cc578063ae87820a146101f8578063d57bde7914610223578063d6febde81461024e578063d79875eb1461026a5761009c565b806307c9cd45146100a157806319df99a8146100ca5780632a58b330146100f35780632e2dc43e1461011e57806335cea2881461014a575b600080fd5b3480156100ad57600080fd5b506100c860048036038101906100c39190611a6b565b610293565b005b3480156100d657600080fd5b506100f160048036038101906100ec9190611a6b565b6103bb565b005b3480156100ff57600080fd5b506101086105b6565b6040516101159190611aa7565b60405180910390f35b34801561012a57600080fd5b506101336105bc565b604051610141929190611c29565b60405180910390f35b34801561015657600080fd5b50610171600480360381019061016c9190611a6b565b610779565b604051610182959493929190611c6f565b60405180910390f35b34801561019757600080fd5b506101b260048036038101906101ad9190611a6b565b6107df565b6040516101c3959493929190611c6f565b60405180910390f35b3480156101d857600080fd5b506101e1610845565b6040516101ef929190611cc2565b60405180910390f35b34801561020457600080fd5b5061020d610856565b60405161021a9190611aa7565b60405180910390f35b34801561022f57600080fd5b5061023861085c565b6040516102459190611aa7565b60405180910390f35b61026860048036038101906102639190611ceb565b610862565b005b34801561027657600080fd5b50610291600480360381019061028c9190611ceb565b610c01565b005b6000600482815481106102a9576102a8611d2b565b5b906000526020600020906005020190503373ffffffffffffffffffffffffffffffffffffffff168160010160009054906101000a900473ffffffffffffffffffffffffffffffffffffffff1673ffffffffffffffffffffffffffffffffffffffff161461034b576040517f08c379a000000000000000000000000000000000000000000000000000000000815260040161034290611ddd565b60405180910390fd5b6004828154811061035f5761035e611d2b565b5b90600052602060002090600502016000808201600090556001820160006101000a81549073ffffffffffffffffffffffffffffffffffffffff021916905560028201600090556003820160009055600482016000905550505050565b600047905060008111610403576040517f08c379a00000000000000000000000000000000000000000000000000000000081526004016103fa90611e49565b60405180910390fd5b60006003838154811061041957610418611d2b565b5b906000526020600020906005020190503373ffffffffffffffffffffffffffffffffffffffff168160010160009054906101000a900473ffffffffffffffffffffffffffffffffffffffff1673ffffffffffffffffffffffffffffffffffffffff16146104bb576040517f08c379a00000000000000000000000000000000000000000000000000000000081526004016104b290611ddd565b60405180910390fd5b600081600401549050600384815481106104d8576104d7611d2b565b5b90600052602060002090600502016000808201600090556001820160006101000a81549073ffffffffffffffffffffffffffffffffffffffff021916905560028201600090556003820160009055600482016000905550503373ffffffffffffffffffffffffffffffffffffffff166108fc829081150290604051600060405180830381858888f19350505050158015610576573d6000803e3d6000fd5b507fbc5da491cf47d3de78662279b6d0c7c01cb7b3a68c6e563c745ede9fea6d6fde33826040516105a8929190611e69565b60405180910390a150505050565b60055481565b6060806003600481805480602002602001604051908101604052809291908181526020016000905b8282101561069457838290600052602060002090600502016040518060a0016040529081600082015481526020016001820160009054906101000a900473ffffffffffffffffffffffffffffffffffffffff1673ffffffffffffffffffffffffffffffffffffffff1673ffffffffffffffffffffffffffffffffffffffff1681526020016002820154815260200160038201548152602001600482015481525050815260200190600101906105e4565b50505050915080805480602002602001604051908101604052809291908181526020016000905b8282101561076b57838290600052602060002090600502016040518060a0016040529081600082015481526020016001820160009054906101000a900473ffffffffffffffffffffffffffffffffffffffff1673ffffffffffffffffffffffffffffffffffffffff1673ffffffffffffffffffffffffffffffffffffffff1681526020016002820154815260200160038201548152602001600482015481525050815260200190600101906106bb565b505050509050915091509091565b6003818154811061078957600080fd5b90600052602060002090600502016000915090508060000154908060010160009054906101000a900473ffffffffffffffffffffffffffffffffffffffff16908060020154908060030154908060040154905085565b600481815481106107ef57600080fd5b90600052602060002090600502016000915090508060000154908060010160009054906101000a900473ffffffffffffffffffffffffffffffffffffffff16908060020154908060030154908060040154905085565b600080600654600754915091509091565b60075481565b60065481565b600260009054906101000a900473ffffffffffffffffffffffffffffffffffffffff1673ffffffffffffffffffffffffffffffffffffffff1663a1305aa56040518163ffffffff1660e01b8152600401602060405180830381865afa1580156108cf573d6000803e3d6000fd5b505050506040513d601f19601f820116820180604052508101906108f39190611eca565b610932576040517f08c379a000000000000000000000000000000000000000000000000000000000815260040161092990611f43565b60405180910390fd5b6000821180156109425750600081115b610981576040517f08c379a000000000000000000000000000000000000000000000000000000000815260040161097890611faf565b60405180910390fd5b61098b82826110ba565b34116109cc576040517f08c379a00000000000000000000000000000000000000000000000000000000081526004016109c390612041565b60405180910390fd5b600260009054906101000a900473ffffffffffffffffffffffffffffffffffffffff1673ffffffffffffffffffffffffffffffffffffffff16633eaaf86b77ffffffffffffffffffffffffffffffffffffffffffffffff16600260009054906101000a900473ffffffffffffffffffffffffffffffffffffffff1673ffffffffffffffffffffffffffffffffffffffff1663bf39863177ffffffffffffffffffffffffffffffffffffffffffffffff169273ffffffffffffffffffffffffffffffffffffffff169073ffffffffffffffffffffffffffffffffffffffff16149163ffffffff169063ffffffff161416610afa576040517f08c379a0000000000000000000000000000000000000000000000000000000008152600401610af1906120d3565b60405180910390fd5b60006040518060a0016040528060055481526020013373ffffffffffffffffffffffffffffffffffffffff16815260200184815260200183815260200134815250905080600360055481548110610b5457610b53611d2b565b5b90600052602060002090600502016000820151816000015560208201518160010160006101000a81548173ffffffffffffffffffffffffffffffffffffffff021916908373ffffffffffffffffffffffffffffffffffffffff16021790555060408201518160020155606082015181600301556080820151816004015590505060056000815480929190610be790612122565b9190505550610bf4611134565b610bfc611297565b505050565b600260009054906101000a900473ffffffffffffffffffffffffffffffffffffffff1673ffffffffffffffffffffffffffffffffffffffff1663a1305aa56040518163ffffffff1660e01b8152600401602060405180830381865afa158015610c6e573d6000803e3d6000fd5b505050506040513d601f19601f82011682018060405250810190610c929190611eca565b610cd1576040517f08c379a0000000000000000000000000000000000000000000000000000000008152600401610cc890611f43565b60405180910390fd5b60008211610d14576040517f08c379a0000000000000000000000000000000000000000000000000000000008152600401610d0b906121b6565b60405180910390fd5b60008111610d57576040517f08c379a0000000000000000000000000000000000000000000000000000000008152600401610d4e90612222565b60405180910390fd5b600082118015610d675750600081115b610da6576040517f08c379a0000000000000000000000000000000000000000000000000000000008152600401610d9d90611faf565b60405180910390fd5b600260009054906101000a900473ffffffffffffffffffffffffffffffffffffffff1673ffffffffffffffffffffffffffffffffffffffff16633eaaf86b77ffffffffffffffffffffffffffffffffffffffffffffffff16600260009054906101000a900473ffffffffffffffffffffffffffffffffffffffff1673ffffffffffffffffffffffffffffffffffffffff1663bf39863177ffffffffffffffffffffffffffffffffffffffffffffffff169273ffffffffffffffffffffffffffffffffffffffff169073ffffffffffffffffffffffffffffffffffffffff16149163ffffffff169063ffffffff161416610ed4576040517f08c379a0000000000000000000000000000000000000000000000000000000008152600401610ecb906120d3565b60405180910390fd5b81600260009054906101000a900473ffffffffffffffffffffffffffffffffffffffff1673ffffffffffffffffffffffffffffffffffffffff166389af2dce336040518263ffffffff1660e01b8152600401610f309190612242565b602060405180830381865afa158015610f4d573d6000803e3d6000fd5b505050506040513d601f19601f82011682018060405250810190610f719190612272565b1015610fb2576040517f08c379a0000000000000000000000000000000000000000000000000000000008152600401610fa990612311565b60405180910390fd5b60006040518060a0016040528060055481526020013373ffffffffffffffffffffffffffffffffffffffff168152602001848152602001838152602001600081525090508060046005548154811061100d5761100c611d2b565b5b90600052602060002090600502016000820151816000015560208201518160010160006101000a81548173ffffffffffffffffffffffffffffffffffffffff021916908373ffffffffffffffffffffffffffffffffffffffff160217905550604082015181600201556060820151816003015560808201518160040155905050600560008154809291906110a090612122565b91905055506110ad611134565b6110b5611297565b505050565b60008083036110cc576000905061112e565b600082846110da9190612331565b90508284826110e991906123a2565b14611129576040517f08c379a000000000000000000000000000000000000000000000000000000000815260040161112090612445565b60405180910390fd5b809150505b92915050565b600080600360008154811061114c5761114b611d2b565b5b906000526020600020906005020160030154600681905550600191505b6003805490508210156111e5576006546003838154811061118d5761118c611d2b565b5b90600052602060002090600502016003015411156111d257600382815481106111b9576111b8611d2b565b5b9060005260206000209060050201600301546006819055505b81806111dd90612122565b925050611169565b60046000815481106111fa576111f9611d2b565b5b906000526020600020906005020160030154600781905550600190505b600480549050811015611293576007546004828154811061123b5761123a611d2b565b5b9060005260206000209060050201600301541015611280576004818154811061126757611266611d2b565b5b9060005260206000209060050201600301546007819055505b808061128b90612122565b915050611217565b5050565b600060038054905014806112b057506000600480549050145b611a1f576000805b600380549050821080156112d0575060048054905081105b15611a1c576000600383815481106112eb576112ea611d2b565b5b90600052602060002090600502016040518060a0016040529081600082015481526020016001820160009054906101000a900473ffffffffffffffffffffffffffffffffffffffff1673ffffffffffffffffffffffffffffffffffffffff1673ffffffffffffffffffffffffffffffffffffffff1681526020016002820154815260200160038201548152602001600482015481525050905060006004838154811061139a57611399611d2b565b5b90600052602060002090600502016040518060a0016040529081600082015481526020016001820160009054906101000a900473ffffffffffffffffffffffffffffffffffffffff1673ffffffffffffffffffffffffffffffffffffffff1673ffffffffffffffffffffffffffffffffffffffff168152602001600282015481526020016003820154815260200160048201548152505090508060600151826060015110611a0e57600081604001518360400151111561145e578160400151611464565b82604001515b9050600082606001519050826020015173ffffffffffffffffffffffffffffffffffffffff16846020015173ffffffffffffffffffffffffffffffffffffffff16600260009054906101000a900473ffffffffffffffffffffffffffffffffffffffff1673ffffffffffffffffffffffffffffffffffffffff166395d89b416040518163ffffffff1660e01b8152600401600060405180830381865afa158015611512573d6000803e3d6000fd5b505050506040513d6000823e3d601f19601f8201168201806040525081019061153b91906125c6565b6040516115489190612656565b60405180910390207f424d865df397536b12696fce4ae34f828fe8ac24675ef10042bae24c2578f0db8585604051611581929190611cc2565b60405180910390a4600260009054906101000a900473ffffffffffffffffffffffffffffffffffffffff1673ffffffffffffffffffffffffffffffffffffffff16637b1d3c62600260009054906101000a900473ffffffffffffffffffffffffffffffffffffffff1673ffffffffffffffffffffffffffffffffffffffff16631d1438486040518163ffffffff1660e01b8152600401602060405180830381865afa158015611634573d6000803e3d6000fd5b505050506040513d601f19601f820116820180604052508101906116589190612699565b8560200151856040518463ffffffff1660e01b815260040161167c939291906126c6565b600060405180830381600087803b15801561169657600080fd5b505af11580156116aa573d6000803e3d6000fd5b50505050600260009054906101000a900473ffffffffffffffffffffffffffffffffffffffff1673ffffffffffffffffffffffffffffffffffffffff16637b1d3c62600260009054906101000a900473ffffffffffffffffffffffffffffffffffffffff1673ffffffffffffffffffffffffffffffffffffffff16631d1438486040518163ffffffff1660e01b8152600401602060405180830381865afa158015611759573d6000803e3d6000fd5b505050506040513d601f19601f8201168201806040525081019061177d9190612699565b8660200151856040518463ffffffff1660e01b81526004016117a1939291906126c6565b600060405180830381600087803b1580156117bb57600080fd5b505af11580156117cf573d6000803e3d6000fd5b50505050600260009054906101000a900473ffffffffffffffffffffffffffffffffffffffff1673ffffffffffffffffffffffffffffffffffffffff166323b872dd84602001518660200151856040518463ffffffff1660e01b815260040161183a939291906126c6565b6020604051808303816000875af1158015611859573d6000803e3d6000fd5b505050506040513d601f19601f8201168201806040525081019061187d9190611eca565b50826040015184604001511161194c578360400151600486815481106118a6576118a5611d2b565b5b906000526020600020906005020160020160008282546118c691906126fd565b92505081905550600386815481106118e1576118e0611d2b565b5b90600052602060002090600502016000808201600090556001820160006101000a81549073ffffffffffffffffffffffffffffffffffffffff02191690556002820160009055600382016000905560048201600090555050858061194490612122565b965050611a07565b82604001516003878154811061196557611964611d2b565b5b9060005260206000209060050201600201600082825461198591906126fd565b92505081905550600485815481106119a05761199f611d2b565b5b90600052602060002090600502016000808201600090556001820160006101000a81549073ffffffffffffffffffffffffffffffffffffffff021916905560028201600090556003820160009055600482016000905550508480611a0390612122565b9550505b5050611a15565b5050611a1c565b50506112b8565b50505b565b6000604051905090565b600080fd5b600080fd5b6000819050919050565b611a4881611a35565b8114611a5357600080fd5b50565b600081359050611a6581611a3f565b92915050565b600060208284031215611a8157611a80611a2b565b5b6000611a8f84828501611a56565b91505092915050565b611aa181611a35565b82525050565b6000602082019050611abc6000830184611a98565b92915050565b600081519050919050565b600082825260208201905092915050565b6000819050602082019050919050565b611af781611a35565b82525050565b600073ffffffffffffffffffffffffffffffffffffffff82169050919050565b6000611b2882611afd565b9050919050565b611b3881611b1d565b82525050565b60a082016000820151611b546000850182611aee565b506020820151611b676020850182611b2f565b506040820151611b7a6040850182611aee565b506060820151611b8d6060850182611aee565b506080820151611ba06080850182611aee565b50505050565b6000611bb28383611b3e565b60a08301905092915050565b6000602082019050919050565b6000611bd682611ac2565b611be08185611acd565b9350611beb83611ade565b8060005b83811015611c1c578151611c038882611ba6565b9750611c0e83611bbe565b925050600181019050611bef565b5085935050505092915050565b60006040820190508181036000830152611c438185611bcb565b90508181036020830152611c578184611bcb565b90509392505050565b611c6981611b1d565b82525050565b600060a082019050611c846000830188611a98565b611c916020830187611c60565b611c9e6040830186611a98565b611cab6060830185611a98565b611cb86080830184611a98565b9695505050505050565b6000604082019050611cd76000830185611a98565b611ce46020830184611a98565b9392505050565b60008060408385031215611d0257611d01611a2b565b5b6000611d1085828601611a56565b9250506020611d2185828601611a56565b9150509250929050565b7f4e487b7100000000000000000000000000000000000000000000000000000000600052603260045260246000fd5b600082825260208201905092915050565b7f596f7520617265206e6f7420746865206f776e6572206f662074686973206f7260008201527f6465722e00000000000000000000000000000000000000000000000000000000602082015250565b6000611dc7602483611d5a565b9150611dd282611d6b565b604082019050919050565b60006020820190508181036000830152611df681611dba565b9050919050565b7f436f6e747261637420686173206e6f2062616c616e63652e0000000000000000600082015250565b6000611e33601883611d5a565b9150611e3e82611dfd565b602082019050919050565b60006020820190508181036000830152611e6281611e26565b9050919050565b6000604082019050611e7e6000830185611c60565b611e8b6020830184611a98565b9392505050565b60008115159050919050565b611ea781611e92565b8114611eb257600080fd5b50565b600081519050611ec481611e9e565b92915050565b600060208284031215611ee057611edf611a2b565b5b6000611eee84828501611eb5565b91505092915050565b7f74726164696e6720686173206265656e2073757370656e646564000000000000600082015250565b6000611f2d601a83611d5a565b9150611f3882611ef7565b602082019050919050565b60006020820190508181036000830152611f5c81611f20565b9050919050565b7f496e76616c696420616d6f756e7420616e642f6f722070726963650000000000600082015250565b6000611f99601b83611d5a565b9150611fa482611f63565b602082019050919050565b60006020820190508181036000830152611fc881611f8c565b9050919050565b7f696e73756666696369656e742066756e647320746f20706c616365206275792060008201527f6f72646572000000000000000000000000000000000000000000000000000000602082015250565b600061202b602583611d5a565b915061203682611fcf565b604082019050919050565b6000602082019050818103600083015261205a8161201e565b9050919050565b7f74726164696e672064697361626c656420756e74696c20696e697469616c206f60008201527f66666572696e6720686173206265656e20636f6d706c65746564000000000000602082015250565b60006120bd603a83611d5a565b91506120c882612061565b604082019050919050565b600060208201905081810360008301526120ec816120b0565b9050919050565b7f4e487b7100000000000000000000000000000000000000000000000000000000600052601160045260246000fd5b600061212d82611a35565b91507fffffffffffffffffffffffffffffffffffffffffffffffffffffffffffffffff820361215f5761215e6120f3565b5b600182019050919050565b7f496e76616c696420616d6f756e74000000000000000000000000000000000000600082015250565b60006121a0600e83611d5a565b91506121ab8261216a565b602082019050919050565b600060208201905081810360008301526121cf81612193565b9050919050565b7f496e76616c696420707269636500000000000000000000000000000000000000600082015250565b600061220c600d83611d5a565b9150612217826121d6565b602082019050919050565b6000602082019050818103600083015261223b816121ff565b9050919050565b60006020820190506122576000830184611c60565b92915050565b60008151905061226c81611a3f565b92915050565b60006020828403121561228857612287611a2b565b5b60006122968482850161225d565b91505092915050565b7f696e73756666696369656e742062616c616e636520696e2073656c6c6572732060008201527f6163636f756e7400000000000000000000000000000000000000000000000000602082015250565b60006122fb602783611d5a565b91506123068261229f565b604082019050919050565b6000602082019050818103600083015261232a816122ee565b9050919050565b600061233c82611a35565b915061234783611a35565b925082820261235581611a35565b9150828204841483151761236c5761236b6120f3565b5b5092915050565b7f4e487b7100000000000000000000000000000000000000000000000000000000600052601260045260246000fd5b60006123ad82611a35565b91506123b883611a35565b9250826123c8576123c7612373565b5b828204905092915050565b7f536166654d6174683a206d756c7469706c69636174696f6e206f766572666c6f60008201527f7700000000000000000000000000000000000000000000000000000000000000602082015250565b600061242f602183611d5a565b915061243a826123d3565b604082019050919050565b6000602082019050818103600083015261245e81612422565b9050919050565b600080fd5b600080fd5b6000601f19601f8301169050919050565b7f4e487b7100000000000000000000000000000000000000000000000000000000600052604160045260246000fd5b6124b88261246f565b810181811067ffffffffffffffff821117156124d7576124d6612480565b5b80604052505050565b60006124ea611a21565b90506124f682826124af565b919050565b600067ffffffffffffffff82111561251657612515612480565b5b61251f8261246f565b9050602081019050919050565b60005b8381101561254a57808201518184015260208101905061252f565b60008484015250505050565b6000612569612564846124fb565b6124e0565b9050828152602081018484840111156125855761258461246a565b5b61259084828561252c565b509392505050565b600082601f8301126125ad576125ac612465565b5b81516125bd848260208601612556565b91505092915050565b6000602082840312156125dc576125db611a2b565b5b600082015167ffffffffffffffff8111156125fa576125f9611a30565b5b61260684828501612598565b91505092915050565b600081519050919050565b600081905092915050565b60006126308261260f565b61263a818561261a565b935061264a81856020860161252c565b80840191505092915050565b60006126628284612625565b915081905092915050565b61267681611b1d565b811461268157600080fd5b50565b6000815190506126938161266d565b92915050565b6000602082840312156126af576126ae611a2b565b5b60006126bd84828501612684565b91505092915050565b60006060820190506126db6000830186611c60565b6126e86020830185611c60565b6126f56040830184611a98565b949350505050565b600061270882611a35565b915061271383611a35565b925082820390508181111561272b5761272a6120f3565b5b9291505056fea26469706673582212203dc809868223f8924a33e8a81cc46d7e0c506626c83d5f7bb52371cf4f49753964736f6c63430008120033",
			"opcodes": "PUSH1 0x80 PUSH1 0x40 MSTORE PUSH1 0x1 PUSH1 0x5 SSTORE CALLVALUE DUP1 ISZERO PUSH3 0x16 JUMPI PUSH1 0x0 DUP1 REVERT JUMPDEST POP PUSH1 0x40 MLOAD PUSH3 0x2944 CODESIZE SUB DUP1 PUSH3 0x2944 DUP4 CODECOPY DUP2 DUP2 ADD PUSH1 0x40 MSTORE DUP2 ADD SWAP1 PUSH3 0x3C SWAP2 SWAP1 PUSH3 0x171 JUMP JUMPDEST DUP3 PUSH1 0x0 DUP1 PUSH2 0x100 EXP DUP2 SLOAD DUP2 PUSH20 0xFFFFFFFFFFFFFFFFFFFFFFFFFFFFFFFFFFFFFFFF MUL NOT AND SWAP1 DUP4 PUSH20 0xFFFFFFFFFFFFFFFFFFFFFFFFFFFFFFFFFFFFFFFF AND MUL OR SWAP1 SSTORE POP DUP1 PUSH1 0x1 PUSH1 0x0 PUSH2 0x100 EXP DUP2 SLOAD DUP2 PUSH20 0xFFFFFFFFFFFFFFFFFFFFFFFFFFFFFFFFFFFFFFFF MUL NOT AND SWAP1 DUP4 PUSH20 0xFFFFFFFFFFFFFFFFFFFFFFFFFFFFFFFFFFFFFFFF AND MUL OR SWAP1 SSTORE POP DUP2 PUSH1 0x2 PUSH1 0x0 PUSH2 0x100 EXP DUP2 SLOAD DUP2 PUSH20 0xFFFFFFFFFFFFFFFFFFFFFFFFFFFFFFFFFFFFFFFF MUL NOT AND SWAP1 DUP4 PUSH20 0xFFFFFFFFFFFFFFFFFFFFFFFFFFFFFFFFFFFFFFFF AND MUL OR SWAP1 SSTORE POP POP POP POP PUSH3 0x1CD JUMP JUMPDEST PUSH1 0x0 DUP1 REVERT JUMPDEST PUSH1 0x0 PUSH20 0xFFFFFFFFFFFFFFFFFFFFFFFFFFFFFFFFFFFFFFFF DUP3 AND SWAP1 POP SWAP2 SWAP1 POP JUMP JUMPDEST PUSH1 0x0 PUSH3 0x139 DUP3 PUSH3 0x10C JUMP JUMPDEST SWAP1 POP SWAP2 SWAP1 POP JUMP JUMPDEST PUSH3 0x14B DUP2 PUSH3 0x12C JUMP JUMPDEST DUP2 EQ PUSH3 0x157 JUMPI PUSH1 0x0 DUP1 REVERT JUMPDEST POP JUMP JUMPDEST PUSH1 0x0 DUP2 MLOAD SWAP1 POP PUSH3 0x16B DUP2 PUSH3 0x140 JUMP JUMPDEST SWAP3 SWAP2 POP POP JUMP JUMPDEST PUSH1 0x0 DUP1 PUSH1 0x0 PUSH1 0x60 DUP5 DUP7 SUB SLT ISZERO PUSH3 0x18D JUMPI PUSH3 0x18C PUSH3 0x107 JUMP JUMPDEST JUMPDEST PUSH1 0x0 PUSH3 0x19D DUP7 DUP3 DUP8 ADD PUSH3 0x15A JUMP JUMPDEST SWAP4 POP POP PUSH1 0x20 PUSH3 0x1B0 DUP7 DUP3 DUP8 ADD PUSH3 0x15A JUMP JUMPDEST SWAP3 POP POP PUSH1 0x40 PUSH3 0x1C3 DUP7 DUP3 DUP8 ADD PUSH3 0x15A JUMP JUMPDEST SWAP2 POP POP SWAP3 POP SWAP3 POP SWAP3 JUMP JUMPDEST PUSH2 0x2767 DUP1 PUSH3 0x1DD PUSH1 0x0 CODECOPY PUSH1 0x0 RETURN INVALID PUSH1 0x80 PUSH1 0x40 MSTORE PUSH1 0x4 CALLDATASIZE LT PUSH2 0x9C JUMPI PUSH1 0x0 CALLDATALOAD PUSH1 0xE0 SHR DUP1 PUSH4 0x4A8393F3 GT PUSH2 0x64 JUMPI DUP1 PUSH4 0x4A8393F3 EQ PUSH2 0x18B JUMPI DUP1 PUSH4 0x999B93AF EQ PUSH2 0x1CC JUMPI DUP1 PUSH4 0xAE87820A EQ PUSH2 0x1F8 JUMPI DUP1 PUSH4 0xD57BDE79 EQ PUSH2 0x223 JUMPI DUP1 PUSH4 0xD6FEBDE8 EQ PUSH2 0x24E JUMPI DUP1 PUSH4 0xD79875EB EQ PUSH2 0x26A JUMPI PUSH2 0x9C JUMP JUMPDEST DUP1 PUSH4 0x7C9CD45 EQ PUSH2 0xA1 JUMPI DUP1 PUSH4 0x19DF99A8 EQ PUSH2 0xCA JUMPI DUP1 PUSH4 0x2A58B330 EQ PUSH2 0xF3 JUMPI DUP1 PUSH4 0x2E2DC43E EQ PUSH2 0x11E JUMPI DUP1 PUSH4 0x35CEA288 EQ PUSH2 0x14A JUMPI JUMPDEST PUSH1 0x0 DUP1 REVERT JUMPDEST CALLVALUE DUP1 ISZERO PUSH2 0xAD JUMPI PUSH1 0x0 DUP1 REVERT JUMPDEST POP PUSH2 0xC8 PUSH1 0x4 DUP1 CALLDATASIZE SUB DUP2 ADD SWAP1 PUSH2 0xC3 SWAP2 SWAP1 PUSH2 0x1A6B JUMP JUMPDEST PUSH2 0x293 JUMP JUMPDEST STOP JUMPDEST CALLVALUE DUP1 ISZERO PUSH2 0xD6 JUMPI PUSH1 0x0 DUP1 REVERT JUMPDEST POP PUSH2 0xF1 PUSH1 0x4 DUP1 CALLDATASIZE SUB DUP2 ADD SWAP1 PUSH2 0xEC SWAP2 SWAP1 PUSH2 0x1A6B JUMP JUMPDEST PUSH2 0x3BB JUMP JUMPDEST STOP JUMPDEST CALLVALUE DUP1 ISZERO PUSH2 0xFF JUMPI PUSH1 0x0 DUP1 REVERT JUMPDEST POP PUSH2 0x108 PUSH2 0x5B6 JUMP JUMPDEST PUSH1 0x40 MLOAD PUSH2 0x115 SWAP2 SWAP1 PUSH2 0x1AA7 JUMP JUMPDEST PUSH1 0x40 MLOAD DUP1 SWAP2 SUB SWAP1 RETURN JUMPDEST CALLVALUE DUP1 ISZERO PUSH2 0x12A JUMPI PUSH1 0x0 DUP1 REVERT JUMPDEST POP PUSH2 0x133 PUSH2 0x5BC JUMP JUMPDEST PUSH1 0x40 MLOAD PUSH2 0x141 SWAP3 SWAP2 SWAP1 PUSH2 0x1C29 JUMP JUMPDEST PUSH1 0x40 MLOAD DUP1 SWAP2 SUB SWAP1 RETURN JUMPDEST CALLVALUE DUP1 ISZERO PUSH2 0x156 JUMPI PUSH1 0x0 DUP1 REVERT JUMPDEST POP PUSH2 0x171 PUSH1 0x4 DUP1 CALLDATASIZE SUB DUP2 ADD SWAP1 PUSH2 0x16C SWAP2 SWAP1 PUSH2 0x1A6B JUMP JUMPDEST PUSH2 0x779 JUMP JUMPDEST PUSH1 0x40 MLOAD PUSH2 0x182 SWAP6 SWAP5 SWAP4 SWAP3 SWAP2 SWAP1 PUSH2 0x1C6F JUMP JUMPDEST PUSH1 0x40 MLOAD DUP1 SWAP2 SUB SWAP1 RETURN JUMPDEST CALLVALUE DUP1 ISZERO PUSH2 0x197 JUMPI PUSH1 0x0 DUP1 REVERT JUMPDEST POP PUSH2 0x1B2 PUSH1 0x4 DUP1 CALLDATASIZE SUB DUP2 ADD SWAP1 PUSH2 0x1AD SWAP2 SWAP1 PUSH2 0x1A6B JUMP JUMPDEST PUSH2 0x7DF JUMP JUMPDEST PUSH1 0x40 MLOAD PUSH2 0x1C3 SWAP6 SWAP5 SWAP4 SWAP3 SWAP2 SWAP1 PUSH2 0x1C6F JUMP JUMPDEST PUSH1 0x40 MLOAD DUP1 SWAP2 SUB SWAP1 RETURN JUMPDEST CALLVALUE DUP1 ISZERO PUSH2 0x1D8 JUMPI PUSH1 0x0 DUP1 REVERT JUMPDEST POP PUSH2 0x1E1 PUSH2 0x845 JUMP JUMPDEST PUSH1 0x40 MLOAD PUSH2 0x1EF SWAP3 SWAP2 SWAP1 PUSH2 0x1CC2 JUMP JUMPDEST PUSH1 0x40 MLOAD DUP1 SWAP2 SUB SWAP1 RETURN JUMPDEST CALLVALUE DUP1 ISZERO PUSH2 0x204 JUMPI PUSH1 0x0 DUP1 REVERT JUMPDEST POP PUSH2 0x20D PUSH2 0x856 JUMP JUMPDEST PUSH1 0x40 MLOAD PUSH2 0x21A SWAP2 SWAP1 PUSH2 0x1AA7 JUMP JUMPDEST PUSH1 0x40 MLOAD DUP1 SWAP2 SUB SWAP1 RETURN JUMPDEST CALLVALUE DUP1 ISZERO PUSH2 0x22F JUMPI PUSH1 0x0 DUP1 REVERT JUMPDEST POP PUSH2 0x238 PUSH2 0x85C JUMP JUMPDEST PUSH1 0x40 MLOAD PUSH2 0x245 SWAP2 SWAP1 PUSH2 0x1AA7 JUMP JUMPDEST PUSH1 0x40 MLOAD DUP1 SWAP2 SUB SWAP1 RETURN JUMPDEST PUSH2 0x268 PUSH1 0x4 DUP1 CALLDATASIZE SUB DUP2 ADD SWAP1 PUSH2 0x263 SWAP2 SWAP1 PUSH2 0x1CEB JUMP JUMPDEST PUSH2 0x862 JUMP JUMPDEST STOP JUMPDEST CALLVALUE DUP1 ISZERO PUSH2 0x276 JUMPI PUSH1 0x0 DUP1 REVERT JUMPDEST POP PUSH2 0x291 PUSH1 0x4 DUP1 CALLDATASIZE SUB DUP2 ADD SWAP1 PUSH2 0x28C SWAP2 SWAP1 PUSH2 0x1CEB JUMP JUMPDEST PUSH2 0xC01 JUMP JUMPDEST STOP JUMPDEST PUSH1 0x0 PUSH1 0x4 DUP3 DUP2 SLOAD DUP2 LT PUSH2 0x2A9 JUMPI PUSH2 0x2A8 PUSH2 0x1D2B JUMP JUMPDEST JUMPDEST SWAP1 PUSH1 0x0 MSTORE PUSH1 0x20 PUSH1 0x0 KECCAK256 SWAP1 PUSH1 0x5 MUL ADD SWAP1 POP CALLER PUSH20 0xFFFFFFFFFFFFFFFFFFFFFFFFFFFFFFFFFFFFFFFF AND DUP2 PUSH1 0x1 ADD PUSH1 0x0 SWAP1 SLOAD SWAP1 PUSH2 0x100 EXP SWAP1 DIV PUSH20 0xFFFFFFFFFFFFFFFFFFFFFFFFFFFFFFFFFFFFFFFF AND PUSH20 0xFFFFFFFFFFFFFFFFFFFFFFFFFFFFFFFFFFFFFFFF AND EQ PUSH2 0x34B JUMPI PUSH1 0x40 MLOAD PUSH32 0x8C379A000000000000000000000000000000000000000000000000000000000 DUP2 MSTORE PUSH1 0x4 ADD PUSH2 0x342 SWAP1 PUSH2 0x1DDD JUMP JUMPDEST PUSH1 0x40 MLOAD DUP1 SWAP2 SUB SWAP1 REVERT JUMPDEST PUSH1 0x4 DUP3 DUP2 SLOAD DUP2 LT PUSH2 0x35F JUMPI PUSH2 0x35E PUSH2 0x1D2B JUMP JUMPDEST JUMPDEST SWAP1 PUSH1 0x0 MSTORE PUSH1 0x20 PUSH1 0x0 KECCAK256 SWAP1 PUSH1 0x5 MUL ADD PUSH1 0x0 DUP1 DUP3 ADD PUSH1 0x0 SWAP1 SSTORE PUSH1 0x1 DUP3 ADD PUSH1 0x0 PUSH2 0x100 EXP DUP2 SLOAD SWAP1 PUSH20 0xFFFFFFFFFFFFFFFFFFFFFFFFFFFFFFFFFFFFFFFF MUL NOT AND SWAP1 SSTORE PUSH1 0x2 DUP3 ADD PUSH1 0x0 SWAP1 SSTORE PUSH1 0x3 DUP3 ADD PUSH1 0x0 SWAP1 SSTORE PUSH1 0x4 DUP3 ADD PUSH1 0x0 SWAP1 SSTORE POP POP POP POP JUMP JUMPDEST PUSH1 0x0 SELFBALANCE SWAP1 POP PUSH1 0x0 DUP2 GT PUSH2 0x403 JUMPI PUSH1 0x40 MLOAD PUSH32 0x8C379A000000000000000000000000000000000000000000000000000000000 DUP2 MSTORE PUSH1 0x4 ADD PUSH2 0x3FA SWAP1 PUSH2 0x1E49 JUMP JUMPDEST PUSH1 0x40 MLOAD DUP1 SWAP2 SUB SWAP1 REVERT JUMPDEST PUSH1 0x0 PUSH1 0x3 DUP4 DUP2 SLOAD DUP2 LT PUSH2 0x419 JUMPI PUSH2 0x418 PUSH2 0x1D2B JUMP JUMPDEST JUMPDEST SWAP1 PUSH1 0x0 MSTORE PUSH1 0x20 PUSH1 0x0 KECCAK256 SWAP1 PUSH1 0x5 MUL ADD SWAP1 POP CALLER PUSH20 0xFFFFFFFFFFFFFFFFFFFFFFFFFFFFFFFFFFFFFFFF AND DUP2 PUSH1 0x1 ADD PUSH1 0x0 SWAP1 SLOAD SWAP1 PUSH2 0x100 EXP SWAP1 DIV PUSH20 0xFFFFFFFFFFFFFFFFFFFFFFFFFFFFFFFFFFFFFFFF AND PUSH20 0xFFFFFFFFFFFFFFFFFFFFFFFFFFFFFFFFFFFFFFFF AND EQ PUSH2 0x4BB JUMPI PUSH1 0x40 MLOAD PUSH32 0x8C379A000000000000000000000000000000000000000000000000000000000 DUP2 MSTORE PUSH1 0x4 ADD PUSH2 0x4B2 SWAP1 PUSH2 0x1DDD JUMP JUMPDEST PUSH1 0x40 MLOAD DUP1 SWAP2 SUB SWAP1 REVERT JUMPDEST PUSH1 0x0 DUP2 PUSH1 0x4 ADD SLOAD SWAP1 POP PUSH1 0x3 DUP5 DUP2 SLOAD DUP2 LT PUSH2 0x4D8 JUMPI PUSH2 0x4D7 PUSH2 0x1D2B JUMP JUMPDEST JUMPDEST SWAP1 PUSH1 0x0 MSTORE PUSH1 0x20 PUSH1 0x0 KECCAK256 SWAP1 PUSH1 0x5 MUL ADD PUSH1 0x0 DUP1 DUP3 ADD PUSH1 0x0 SWAP1 SSTORE PUSH1 0x1 DUP3 ADD PUSH1 0x0 PUSH2 0x100 EXP DUP2 SLOAD SWAP1 PUSH20 0xFFFFFFFFFFFFFFFFFFFFFFFFFFFFFFFFFFFFFFFF MUL NOT AND SWAP1 SSTORE PUSH1 0x2 DUP3 ADD PUSH1 0x0 SWAP1 SSTORE PUSH1 0x3 DUP3 ADD PUSH1 0x0 SWAP1 SSTORE PUSH1 0x4 DUP3 ADD PUSH1 0x0 SWAP1 SSTORE POP POP CALLER PUSH20 0xFFFFFFFFFFFFFFFFFFFFFFFFFFFFFFFFFFFFFFFF AND PUSH2 0x8FC DUP3 SWAP1 DUP2 ISZERO MUL SWAP1 PUSH1 0x40 MLOAD PUSH1 0x0 PUSH1 0x40 MLOAD DUP1 DUP4 SUB DUP2 DUP6 DUP9 DUP9 CALL SWAP4 POP POP POP POP ISZERO DUP1 ISZERO PUSH2 0x576 JUMPI RETURNDATASIZE PUSH1 0x0 DUP1 RETURNDATACOPY RETURNDATASIZE PUSH1 0x0 REVERT JUMPDEST POP PUSH32 0xBC5DA491CF47D3DE78662279B6D0C7C01CB7B3A68C6E563C745EDE9FEA6D6FDE CALLER DUP3 PUSH1 0x40 MLOAD PUSH2 0x5A8 SWAP3 SWAP2 SWAP1 PUSH2 0x1E69 JUMP JUMPDEST PUSH1 0x40 MLOAD DUP1 SWAP2 SUB SWAP1 LOG1 POP POP POP POP JUMP JUMPDEST PUSH1 0x5 SLOAD DUP2 JUMP JUMPDEST PUSH1 0x60 DUP1 PUSH1 0x3 PUSH1 0x4 DUP2 DUP1 SLOAD DUP1 PUSH1 0x20 MUL PUSH1 0x20 ADD PUSH1 0x40 MLOAD SWAP1 DUP2 ADD PUSH1 0x40 MSTORE DUP1 SWAP3 SWAP2 SWAP1 DUP2 DUP2 MSTORE PUSH1 0x20 ADD PUSH1 0x0 SWAP1 JUMPDEST DUP3 DUP3 LT ISZERO PUSH2 0x694 JUMPI DUP4 DUP3 SWAP1 PUSH1 0x0 MSTORE PUSH1 0x20 PUSH1 0x0 KECCAK256 SWAP1 PUSH1 0x5 MUL ADD PUSH1 0x40 MLOAD DUP1 PUSH1 0xA0 ADD PUSH1 0x40 MSTORE SWAP1 DUP2 PUSH1 0x0 DUP3 ADD SLOAD DUP2 MSTORE PUSH1 0x20 ADD PUSH1 0x1 DUP3 ADD PUSH1 0x0 SWAP1 SLOAD SWAP1 PUSH2 0x100 EXP SWAP1 DIV PUSH20 0xFFFFFFFFFFFFFFFFFFFFFFFFFFFFFFFFFFFFFFFF AND PUSH20 0xFFFFFFFFFFFFFFFFFFFFFFFFFFFFFFFFFFFFFFFF AND PUSH20 0xFFFFFFFFFFFFFFFFFFFFFFFFFFFFFFFFFFFFFFFF AND DUP2 MSTORE PUSH1 0x20 ADD PUSH1 0x2 DUP3 ADD SLOAD DUP2 MSTORE PUSH1 0x20 ADD PUSH1 0x3 DUP3 ADD SLOAD DUP2 MSTORE PUSH1 0x20 ADD PUSH1 0x4 DUP3 ADD SLOAD DUP2 MSTORE POP POP DUP2 MSTORE PUSH1 0x20 ADD SWAP1 PUSH1 0x1 ADD SWAP1 PUSH2 0x5E4 JUMP JUMPDEST POP POP POP POP SWAP2 POP DUP1 DUP1 SLOAD DUP1 PUSH1 0x20 MUL PUSH1 0x20 ADD PUSH1 0x40 MLOAD SWAP1 DUP2 ADD PUSH1 0x40 MSTORE DUP1 SWAP3 SWAP2 SWAP1 DUP2 DUP2 MSTORE PUSH1 0x20 ADD PUSH1 0x0 SWAP1 JUMPDEST DUP3 DUP3 LT ISZERO PUSH2 0x76B JUMPI DUP4 DUP3 SWAP1 PUSH1 0x0 MSTORE PUSH1 0x20 PUSH1 0x0 KECCAK256 SWAP1 PUSH1 0x5 MUL ADD PUSH1 0x40 MLOAD DUP1 PUSH1 0xA0 ADD PUSH1 0x40 MSTORE SWAP1 DUP2 PUSH1 0x0 DUP3 ADD SLOAD DUP2 MSTORE PUSH1 0x20 ADD PUSH1 0x1 DUP3 ADD PUSH1 0x0 SWAP1 SLOAD SWAP1 PUSH2 0x100 EXP SWAP1 DIV PUSH20 0xFFFFFFFFFFFFFFFFFFFFFFFFFFFFFFFFFFFFFFFF AND PUSH20 0xFFFFFFFFFFFFFFFFFFFFFFFFFFFFFFFFFFFFFFFF AND PUSH20 0xFFFFFFFFFFFFFFFFFFFFFFFFFFFFFFFFFFFFFFFF AND DUP2 MSTORE PUSH1 0x20 ADD PUSH1 0x2 DUP3 ADD SLOAD DUP2 MSTORE PUSH1 0x20 ADD PUSH1 0x3 DUP3 ADD SLOAD DUP2 MSTORE PUSH1 0x20 ADD PUSH1 0x4 DUP3 ADD SLOAD DUP2 MSTORE POP POP DUP2 MSTORE PUSH1 0x20 ADD SWAP1 PUSH1 0x1 ADD SWAP1 PUSH2 0x6BB JUMP JUMPDEST POP POP POP POP SWAP1 POP SWAP2 POP SWAP2 POP SWAP1 SWAP2 JUMP JUMPDEST PUSH1 0x3 DUP2 DUP2 SLOAD DUP2 LT PUSH2 0x789 JUMPI PUSH1 0x0 DUP1 REVERT JUMPDEST SWAP1 PUSH1 0x0 MSTORE PUSH1 0x20 PUSH1 0x0 KECCAK256 SWAP1 PUSH1 0x5 MUL ADD PUSH1 0x0 SWAP2 POP SWAP1 POP DUP1 PUSH1 0x0 ADD SLOAD SWAP1 DUP1 PUSH1 0x1 ADD PUSH1 0x0 SWAP1 SLOAD SWAP1 PUSH2 0x100 EXP SWAP1 DIV PUSH20 0xFFFFFFFFFFFFFFFFFFFFFFFFFFFFFFFFFFFFFFFF AND SWAP1 DUP1 PUSH1 0x2 ADD SLOAD SWAP1 DUP1 PUSH1 0x3 ADD SLOAD SWAP1 DUP1 PUSH1 0x4 ADD SLOAD SWAP1 POP DUP6 JUMP JUMPDEST PUSH1 0x4 DUP2 DUP2 SLOAD DUP2 LT PUSH2 0x7EF JUMPI PUSH1 0x0 DUP1 REVERT JUMPDEST SWAP1 PUSH1 0x0 MSTORE PUSH1 0x20 PUSH1 0x0 KECCAK256 SWAP1 PUSH1 0x5 MUL ADD PUSH1 0x0 SWAP2 POP SWAP1 POP DUP1 PUSH1 0x0 ADD SLOAD SWAP1 DUP1 PUSH1 0x1 ADD PUSH1 0x0 SWAP1 SLOAD SWAP1 PUSH2 0x100 EXP SWAP1 DIV PUSH20 0xFFFFFFFFFFFFFFFFFFFFFFFFFFFFFFFFFFFFFFFF AND SWAP1 DUP1 PUSH1 0x2 ADD SLOAD SWAP1 DUP1 PUSH1 0x3 ADD SLOAD SWAP1 DUP1 PUSH1 0x4 ADD SLOAD SWAP1 POP DUP6 JUMP JUMPDEST PUSH1 0x0 DUP1 PUSH1 0x6 SLOAD PUSH1 0x7 SLOAD SWAP2 POP SWAP2 POP SWAP1 SWAP2 JUMP JUMPDEST PUSH1 0x7 SLOAD DUP2 JUMP JUMPDEST PUSH1 0x6 SLOAD DUP2 JUMP JUMPDEST PUSH1 0x2 PUSH1 0x0 SWAP1 SLOAD SWAP1 PUSH2 0x100 EXP SWAP1 DIV PUSH20 0xFFFFFFFFFFFFFFFFFFFFFFFFFFFFFFFFFFFFFFFF AND PUSH20 0xFFFFFFFFFFFFFFFFFFFFFFFFFFFFFFFFFFFFFFFF AND PUSH4 0xA1305AA5 PUSH1 0x40 MLOAD DUP2 PUSH4 0xFFFFFFFF AND PUSH1 0xE0 SHL DUP2 MSTORE PUSH1 0x4 ADD PUSH1 0x20 PUSH1 0x40 MLOAD DUP1 DUP4 SUB DUP2 DUP7 GAS STATICCALL ISZERO DUP1 ISZERO PUSH2 0x8CF JUMPI RETURNDATASIZE PUSH1 0x0 DUP1 RETURNDATACOPY RETURNDATASIZE PUSH1 0x0 REVERT JUMPDEST POP POP POP POP PUSH1 0x40 MLOAD RETURNDATASIZE PUSH1 0x1F NOT PUSH1 0x1F DUP3 ADD AND DUP3 ADD DUP1 PUSH1 0x40 MSTORE POP DUP2 ADD SWAP1 PUSH2 0x8F3 SWAP2 SWAP1 PUSH2 0x1ECA JUMP JUMPDEST PUSH2 0x932 JUMPI PUSH1 0x40 MLOAD PUSH32 0x8C379A000000000000000000000000000000000000000000000000000000000 DUP2 MSTORE PUSH1 0x4 ADD PUSH2 0x929 SWAP1 PUSH2 0x1F43 JUMP JUMPDEST PUSH1 0x40 MLOAD DUP1 SWAP2 SUB SWAP1 REVERT JUMPDEST PUSH1 0x0 DUP3 GT DUP1 ISZERO PUSH2 0x942 JUMPI POP PUSH1 0x0 DUP2 GT JUMPDEST PUSH2 0x981 JUMPI PUSH1 0x40 MLOAD PUSH32 0x8C379A000000000000000000000000000000000000000000000000000000000 DUP2 MSTORE PUSH1 0x4 ADD PUSH2 0x978 SWAP1 PUSH2 0x1FAF JUMP JUMPDEST PUSH1 0x40 MLOAD DUP1 SWAP2 SUB SWAP1 REVERT JUMPDEST PUSH2 0x98B DUP3 DUP3 PUSH2 0x10BA JUMP JUMPDEST CALLVALUE GT PUSH2 0x9CC JUMPI PUSH1 0x40 MLOAD PUSH32 0x8C379A000000000000000000000000000000000000000000000000000000000 DUP2 MSTORE PUSH1 0x4 ADD PUSH2 0x9C3 SWAP1 PUSH2 0x2041 JUMP JUMPDEST PUSH1 0x40 MLOAD DUP1 SWAP2 SUB SWAP1 REVERT JUMPDEST PUSH1 0x2 PUSH1 0x0 SWAP1 SLOAD SWAP1 PUSH2 0x100 EXP SWAP1 DIV PUSH20 0xFFFFFFFFFFFFFFFFFFFFFFFFFFFFFFFFFFFFFFFF AND PUSH20 0xFFFFFFFFFFFFFFFFFFFFFFFFFFFFFFFFFFFFFFFF AND PUSH4 0x3EAAF86B PUSH24 0xFFFFFFFFFFFFFFFFFFFFFFFFFFFFFFFFFFFFFFFFFFFFFFFF AND PUSH1 0x2 PUSH1 0x0 SWAP1 SLOAD SWAP1 PUSH2 0x100 EXP SWAP1 DIV PUSH20 0xFFFFFFFFFFFFFFFFFFFFFFFFFFFFFFFFFFFFFFFF AND PUSH20 0xFFFFFFFFFFFFFFFFFFFFFFFFFFFFFFFFFFFFFFFF AND PUSH4 0xBF398631 PUSH24 0xFFFFFFFFFFFFFFFFFFFFFFFFFFFFFFFFFFFFFFFFFFFFFFFF AND SWAP3 PUSH20 0xFFFFFFFFFFFFFFFFFFFFFFFFFFFFFFFFFFFFFFFF AND SWAP1 PUSH20 0xFFFFFFFFFFFFFFFFFFFFFFFFFFFFFFFFFFFFFFFF AND EQ SWAP2 PUSH4 0xFFFFFFFF AND SWAP1 PUSH4 0xFFFFFFFF AND EQ AND PUSH2 0xAFA JUMPI PUSH1 0x40 MLOAD PUSH32 0x8C379A000000000000000000000000000000000000000000000000000000000 DUP2 MSTORE PUSH1 0x4 ADD PUSH2 0xAF1 SWAP1 PUSH2 0x20D3 JUMP JUMPDEST PUSH1 0x40 MLOAD DUP1 SWAP2 SUB SWAP1 REVERT JUMPDEST PUSH1 0x0 PUSH1 0x40 MLOAD DUP1 PUSH1 0xA0 ADD PUSH1 0x40 MSTORE DUP1 PUSH1 0x5 SLOAD DUP2 MSTORE PUSH1 0x20 ADD CALLER PUSH20 0xFFFFFFFFFFFFFFFFFFFFFFFFFFFFFFFFFFFFFFFF AND DUP2 MSTORE PUSH1 0x20 ADD DUP5 DUP2 MSTORE PUSH1 0x20 ADD DUP4 DUP2 MSTORE PUSH1 0x20 ADD CALLVALUE DUP2 MSTORE POP SWAP1 POP DUP1 PUSH1 0x3 PUSH1 0x5 SLOAD DUP2 SLOAD DUP2 LT PUSH2 0xB54 JUMPI PUSH2 0xB53 PUSH2 0x1D2B JUMP JUMPDEST JUMPDEST SWAP1 PUSH1 0x0 MSTORE PUSH1 0x20 PUSH1 0x0 KECCAK256 SWAP1 PUSH1 0x5 MUL ADD PUSH1 0x0 DUP3 ADD MLOAD DUP2 PUSH1 0x0 ADD SSTORE PUSH1 0x20 DUP3 ADD MLOAD DUP2 PUSH1 0x1 ADD PUSH1 0x0 PUSH2 0x100 EXP DUP2 SLOAD DUP2 PUSH20 0xFFFFFFFFFFFFFFFFFFFFFFFFFFFFFFFFFFFFFFFF MUL NOT AND SWAP1 DUP4 PUSH20 0xFFFFFFFFFFFFFFFFFFFFFFFFFFFFFFFFFFFFFFFF AND MUL OR SWAP1 SSTORE POP PUSH1 0x40 DUP3 ADD MLOAD DUP2 PUSH1 0x2 ADD SSTORE PUSH1 0x60 DUP3 ADD MLOAD DUP2 PUSH1 0x3 ADD SSTORE PUSH1 0x80 DUP3 ADD MLOAD DUP2 PUSH1 0x4 ADD SSTORE SWAP1 POP POP PUSH1 0x5 PUSH1 0x0 DUP2 SLOAD DUP1 SWAP3 SWAP2 SWAP1 PUSH2 0xBE7 SWAP1 PUSH2 0x2122 JUMP JUMPDEST SWAP2 SWAP1 POP SSTORE POP PUSH2 0xBF4 PUSH2 0x1134 JUMP JUMPDEST PUSH2 0xBFC PUSH2 0x1297 JUMP JUMPDEST POP POP POP JUMP JUMPDEST PUSH1 0x2 PUSH1 0x0 SWAP1 SLOAD SWAP1 PUSH2 0x100 EXP SWAP1 DIV PUSH20 0xFFFFFFFFFFFFFFFFFFFFFFFFFFFFFFFFFFFFFFFF AND PUSH20 0xFFFFFFFFFFFFFFFFFFFFFFFFFFFFFFFFFFFFFFFF AND PUSH4 0xA1305AA5 PUSH1 0x40 MLOAD DUP2 PUSH4 0xFFFFFFFF AND PUSH1 0xE0 SHL DUP2 MSTORE PUSH1 0x4 ADD PUSH1 0x20 PUSH1 0x40 MLOAD DUP1 DUP4 SUB DUP2 DUP7 GAS STATICCALL ISZERO DUP1 ISZERO PUSH2 0xC6E JUMPI RETURNDATASIZE PUSH1 0x0 DUP1 RETURNDATACOPY RETURNDATASIZE PUSH1 0x0 REVERT JUMPDEST POP POP POP POP PUSH1 0x40 MLOAD RETURNDATASIZE PUSH1 0x1F NOT PUSH1 0x1F DUP3 ADD AND DUP3 ADD DUP1 PUSH1 0x40 MSTORE POP DUP2 ADD SWAP1 PUSH2 0xC92 SWAP2 SWAP1 PUSH2 0x1ECA JUMP JUMPDEST PUSH2 0xCD1 JUMPI PUSH1 0x40 MLOAD PUSH32 0x8C379A000000000000000000000000000000000000000000000000000000000 DUP2 MSTORE PUSH1 0x4 ADD PUSH2 0xCC8 SWAP1 PUSH2 0x1F43 JUMP JUMPDEST PUSH1 0x40 MLOAD DUP1 SWAP2 SUB SWAP1 REVERT JUMPDEST PUSH1 0x0 DUP3 GT PUSH2 0xD14 JUMPI PUSH1 0x40 MLOAD PUSH32 0x8C379A000000000000000000000000000000000000000000000000000000000 DUP2 MSTORE PUSH1 0x4 ADD PUSH2 0xD0B SWAP1 PUSH2 0x21B6 JUMP JUMPDEST PUSH1 0x40 MLOAD DUP1 SWAP2 SUB SWAP1 REVERT JUMPDEST PUSH1 0x0 DUP2 GT PUSH2 0xD57 JUMPI PUSH1 0x40 MLOAD PUSH32 0x8C379A000000000000000000000000000000000000000000000000000000000 DUP2 MSTORE PUSH1 0x4 ADD PUSH2 0xD4E SWAP1 PUSH2 0x2222 JUMP JUMPDEST PUSH1 0x40 MLOAD DUP1 SWAP2 SUB SWAP1 REVERT JUMPDEST PUSH1 0x0 DUP3 GT DUP1 ISZERO PUSH2 0xD67 JUMPI POP PUSH1 0x0 DUP2 GT JUMPDEST PUSH2 0xDA6 JUMPI PUSH1 0x40 MLOAD PUSH32 0x8C379A000000000000000000000000000000000000000000000000000000000 DUP2 MSTORE PUSH1 0x4 ADD PUSH2 0xD9D SWAP1 PUSH2 0x1FAF JUMP JUMPDEST PUSH1 0x40 MLOAD DUP1 SWAP2 SUB SWAP1 REVERT JUMPDEST PUSH1 0x2 PUSH1 0x0 SWAP1 SLOAD SWAP1 PUSH2 0x100 EXP SWAP1 DIV PUSH20 0xFFFFFFFFFFFFFFFFFFFFFFFFFFFFFFFFFFFFFFFF AND PUSH20 0xFFFFFFFFFFFFFFFFFFFFFFFFFFFFFFFFFFFFFFFF AND PUSH4 0x3EAAF86B PUSH24 0xFFFFFFFFFFFFFFFFFFFFFFFFFFFFFFFFFFFFFFFFFFFFFFFF AND PUSH1 0x2 PUSH1 0x0 SWAP1 SLOAD SWAP1 PUSH2 0x100 EXP SWAP1 DIV PUSH20 0xFFFFFFFFFFFFFFFFFFFFFFFFFFFFFFFFFFFFFFFF AND PUSH20 0xFFFFFFFFFFFFFFFFFFFFFFFFFFFFFFFFFFFFFFFF AND PUSH4 0xBF398631 PUSH24 0xFFFFFFFFFFFFFFFFFFFFFFFFFFFFFFFFFFFFFFFFFFFFFFFF AND SWAP3 PUSH20 0xFFFFFFFFFFFFFFFFFFFFFFFFFFFFFFFFFFFFFFFF AND SWAP1 PUSH20 0xFFFFFFFFFFFFFFFFFFFFFFFFFFFFFFFFFFFFFFFF AND EQ SWAP2 PUSH4 0xFFFFFFFF AND SWAP1 PUSH4 0xFFFFFFFF AND EQ AND PUSH2 0xED4 JUMPI PUSH1 0x40 MLOAD PUSH32 0x8C379A000000000000000000000000000000000000000000000000000000000 DUP2 MSTORE PUSH1 0x4 ADD PUSH2 0xECB SWAP1 PUSH2 0x20D3 JUMP JUMPDEST PUSH1 0x40 MLOAD DUP1 SWAP2 SUB SWAP1 REVERT JUMPDEST DUP2 PUSH1 0x2 PUSH1 0x0 SWAP1 SLOAD SWAP1 PUSH2 0x100 EXP SWAP1 DIV PUSH20 0xFFFFFFFFFFFFFFFFFFFFFFFFFFFFFFFFFFFFFFFF AND PUSH20 0xFFFFFFFFFFFFFFFFFFFFFFFFFFFFFFFFFFFFFFFF AND PUSH4 0x89AF2DCE CALLER PUSH1 0x40 MLOAD DUP3 PUSH4 0xFFFFFFFF AND PUSH1 0xE0 SHL DUP2 MSTORE PUSH1 0x4 ADD PUSH2 0xF30 SWAP2 SWAP1 PUSH2 0x2242 JUMP JUMPDEST PUSH1 0x20 PUSH1 0x40 MLOAD DUP1 DUP4 SUB DUP2 DUP7 GAS STATICCALL ISZERO DUP1 ISZERO PUSH2 0xF4D JUMPI RETURNDATASIZE PUSH1 0x0 DUP1 RETURNDATACOPY RETURNDATASIZE PUSH1 0x0 REVERT JUMPDEST POP POP POP POP PUSH1 0x40 MLOAD RETURNDATASIZE PUSH1 0x1F NOT PUSH1 0x1F DUP3 ADD AND DUP3 ADD DUP1 PUSH1 0x40 MSTORE POP DUP2 ADD SWAP1 PUSH2 0xF71 SWAP2 SWAP1 PUSH2 0x2272 JUMP JUMPDEST LT ISZERO PUSH2 0xFB2 JUMPI PUSH1 0x40 MLOAD PUSH32 0x8C379A000000000000000000000000000000000000000000000000000000000 DUP2 MSTORE PUSH1 0x4 ADD PUSH2 0xFA9 SWAP1 PUSH2 0x2311 JUMP JUMPDEST PUSH1 0x40 MLOAD DUP1 SWAP2 SUB SWAP1 REVERT JUMPDEST PUSH1 0x0 PUSH1 0x40 MLOAD DUP1 PUSH1 0xA0 ADD PUSH1 0x40 MSTORE DUP1 PUSH1 0x5 SLOAD DUP2 MSTORE PUSH1 0x20 ADD CALLER PUSH20 0xFFFFFFFFFFFFFFFFFFFFFFFFFFFFFFFFFFFFFFFF AND DUP2 MSTORE PUSH1 0x20 ADD DUP5 DUP2 MSTORE PUSH1 0x20 ADD DUP4 DUP2 MSTORE PUSH1 0x20 ADD PUSH1 0x0 DUP2 MSTORE POP SWAP1 POP DUP1 PUSH1 0x4 PUSH1 0x5 SLOAD DUP2 SLOAD DUP2 LT PUSH2 0x100D JUMPI PUSH2 0x100C PUSH2 0x1D2B JUMP JUMPDEST JUMPDEST SWAP1 PUSH1 0x0 MSTORE PUSH1 0x20 PUSH1 0x0 KECCAK256 SWAP1 PUSH1 0x5 MUL ADD PUSH1 0x0 DUP3 ADD MLOAD DUP2 PUSH1 0x0 ADD SSTORE PUSH1 0x20 DUP3 ADD MLOAD DUP2 PUSH1 0x1 ADD PUSH1 0x0 PUSH2 0x100 EXP DUP2 SLOAD DUP2 PUSH20 0xFFFFFFFFFFFFFFFFFFFFFFFFFFFFFFFFFFFFFFFF MUL NOT AND SWAP1 DUP4 PUSH20 0xFFFFFFFFFFFFFFFFFFFFFFFFFFFFFFFFFFFFFFFF AND MUL OR SWAP1 SSTORE POP PUSH1 0x40 DUP3 ADD MLOAD DUP2 PUSH1 0x2 ADD SSTORE PUSH1 0x60 DUP3 ADD MLOAD DUP2 PUSH1 0x3 ADD SSTORE PUSH1 0x80 DUP3 ADD MLOAD DUP2 PUSH1 0x4 ADD SSTORE SWAP1 POP POP PUSH1 0x5 PUSH1 0x0 DUP2 SLOAD DUP1 SWAP3 SWAP2 SWAP1 PUSH2 0x10A0 SWAP1 PUSH2 0x2122 JUMP JUMPDEST SWAP2 SWAP1 POP SSTORE POP PUSH2 0x10AD PUSH2 0x1134 JUMP JUMPDEST PUSH2 0x10B5 PUSH2 0x1297 JUMP JUMPDEST POP POP POP JUMP JUMPDEST PUSH1 0x0 DUP1 DUP4 SUB PUSH2 0x10CC JUMPI PUSH1 0x0 SWAP1 POP PUSH2 0x112E JUMP JUMPDEST PUSH1 0x0 DUP3 DUP5 PUSH2 0x10DA SWAP2 SWAP1 PUSH2 0x2331 JUMP JUMPDEST SWAP1 POP DUP3 DUP5 DUP3 PUSH2 0x10E9 SWAP2 SWAP1 PUSH2 0x23A2 JUMP JUMPDEST EQ PUSH2 0x1129 JUMPI PUSH1 0x40 MLOAD PUSH32 0x8C379A000000000000000000000000000000000000000000000000000000000 DUP2 MSTORE PUSH1 0x4 ADD PUSH2 0x1120 SWAP1 PUSH2 0x2445 JUMP JUMPDEST PUSH1 0x40 MLOAD DUP1 SWAP2 SUB SWAP1 REVERT JUMPDEST DUP1 SWAP2 POP POP JUMPDEST SWAP3 SWAP2 POP POP JUMP JUMPDEST PUSH1 0x0 DUP1 PUSH1 0x3 PUSH1 0x0 DUP2 SLOAD DUP2 LT PUSH2 0x114C JUMPI PUSH2 0x114B PUSH2 0x1D2B JUMP JUMPDEST JUMPDEST SWAP1 PUSH1 0x0 MSTORE PUSH1 0x20 PUSH1 0x0 KECCAK256 SWAP1 PUSH1 0x5 MUL ADD PUSH1 0x3 ADD SLOAD PUSH1 0x6 DUP2 SWAP1 SSTORE POP PUSH1 0x1 SWAP2 POP JUMPDEST PUSH1 0x3 DUP1 SLOAD SWAP1 POP DUP3 LT ISZERO PUSH2 0x11E5 JUMPI PUSH1 0x6 SLOAD PUSH1 0x3 DUP4 DUP2 SLOAD DUP2 LT PUSH2 0x118D JUMPI PUSH2 0x118C PUSH2 0x1D2B JUMP JUMPDEST JUMPDEST SWAP1 PUSH1 0x0 MSTORE PUSH1 0x20 PUSH1 0x0 KECCAK256 SWAP1 PUSH1 0x5 MUL ADD PUSH1 0x3 ADD SLOAD GT ISZERO PUSH2 0x11D2 JUMPI PUSH1 0x3 DUP3 DUP2 SLOAD DUP2 LT PUSH2 0x11B9 JUMPI PUSH2 0x11B8 PUSH2 0x1D2B JUMP JUMPDEST JUMPDEST SWAP1 PUSH1 0x0 MSTORE PUSH1 0x20 PUSH1 0x0 KECCAK256 SWAP1 PUSH1 0x5 MUL ADD PUSH1 0x3 ADD SLOAD PUSH1 0x6 DUP2 SWAP1 SSTORE POP JUMPDEST DUP2 DUP1 PUSH2 0x11DD SWAP1 PUSH2 0x2122 JUMP JUMPDEST SWAP3 POP POP PUSH2 0x1169 JUMP JUMPDEST PUSH1 0x4 PUSH1 0x0 DUP2 SLOAD DUP2 LT PUSH2 0x11FA JUMPI PUSH2 0x11F9 PUSH2 0x1D2B JUMP JUMPDEST JUMPDEST SWAP1 PUSH1 0x0 MSTORE PUSH1 0x20 PUSH1 0x0 KECCAK256 SWAP1 PUSH1 0x5 MUL ADD PUSH1 0x3 ADD SLOAD PUSH1 0x7 DUP2 SWAP1 SSTORE POP PUSH1 0x1 SWAP1 POP JUMPDEST PUSH1 0x4 DUP1 SLOAD SWAP1 POP DUP2 LT ISZERO PUSH2 0x1293 JUMPI PUSH1 0x7 SLOAD PUSH1 0x4 DUP3 DUP2 SLOAD DUP2 LT PUSH2 0x123B JUMPI PUSH2 0x123A PUSH2 0x1D2B JUMP JUMPDEST JUMPDEST SWAP1 PUSH1 0x0 MSTORE PUSH1 0x20 PUSH1 0x0 KECCAK256 SWAP1 PUSH1 0x5 MUL ADD PUSH1 0x3 ADD SLOAD LT ISZERO PUSH2 0x1280 JUMPI PUSH1 0x4 DUP2 DUP2 SLOAD DUP2 LT PUSH2 0x1267 JUMPI PUSH2 0x1266 PUSH2 0x1D2B JUMP JUMPDEST JUMPDEST SWAP1 PUSH1 0x0 MSTORE PUSH1 0x20 PUSH1 0x0 KECCAK256 SWAP1 PUSH1 0x5 MUL ADD PUSH1 0x3 ADD SLOAD PUSH1 0x7 DUP2 SWAP1 SSTORE POP JUMPDEST DUP1 DUP1 PUSH2 0x128B SWAP1 PUSH2 0x2122 JUMP JUMPDEST SWAP2 POP POP PUSH2 0x1217 JUMP JUMPDEST POP POP JUMP JUMPDEST PUSH1 0x0 PUSH1 0x3 DUP1 SLOAD SWAP1 POP EQ DUP1 PUSH2 0x12B0 JUMPI POP PUSH1 0x0 PUSH1 0x4 DUP1 SLOAD SWAP1 POP EQ JUMPDEST PUSH2 0x1A1F JUMPI PUSH1 0x0 DUP1 JUMPDEST PUSH1 0x3 DUP1 SLOAD SWAP1 POP DUP3 LT DUP1 ISZERO PUSH2 0x12D0 JUMPI POP PUSH1 0x4 DUP1 SLOAD SWAP1 POP DUP2 LT JUMPDEST ISZERO PUSH2 0x1A1C JUMPI PUSH1 0x0 PUSH1 0x3 DUP4 DUP2 SLOAD DUP2 LT PUSH2 0x12EB JUMPI PUSH2 0x12EA PUSH2 0x1D2B JUMP JUMPDEST JUMPDEST SWAP1 PUSH1 0x0 MSTORE PUSH1 0x20 PUSH1 0x0 KECCAK256 SWAP1 PUSH1 0x5 MUL ADD PUSH1 0x40 MLOAD DUP1 PUSH1 0xA0 ADD PUSH1 0x40 MSTORE SWAP1 DUP2 PUSH1 0x0 DUP3 ADD SLOAD DUP2 MSTORE PUSH1 0x20 ADD PUSH1 0x1 DUP3 ADD PUSH1 0x0 SWAP1 SLOAD SWAP1 PUSH2 0x100 EXP SWAP1 DIV PUSH20 0xFFFFFFFFFFFFFFFFFFFFFFFFFFFFFFFFFFFFFFFF AND PUSH20 0xFFFFFFFFFFFFFFFFFFFFFFFFFFFFFFFFFFFFFFFF AND PUSH20 0xFFFFFFFFFFFFFFFFFFFFFFFFFFFFFFFFFFFFFFFF AND DUP2 MSTORE PUSH1 0x20 ADD PUSH1 0x2 DUP3 ADD SLOAD DUP2 MSTORE PUSH1 0x20 ADD PUSH1 0x3 DUP3 ADD SLOAD DUP2 MSTORE PUSH1 0x20 ADD PUSH1 0x4 DUP3 ADD SLOAD DUP2 MSTORE POP POP SWAP1 POP PUSH1 0x0 PUSH1 0x4 DUP4 DUP2 SLOAD DUP2 LT PUSH2 0x139A JUMPI PUSH2 0x1399 PUSH2 0x1D2B JUMP JUMPDEST JUMPDEST SWAP1 PUSH1 0x0 MSTORE PUSH1 0x20 PUSH1 0x0 KECCAK256 SWAP1 PUSH1 0x5 MUL ADD PUSH1 0x40 MLOAD DUP1 PUSH1 0xA0 ADD PUSH1 0x40 MSTORE SWAP1 DUP2 PUSH1 0x0 DUP3 ADD SLOAD DUP2 MSTORE PUSH1 0x20 ADD PUSH1 0x1 DUP3 ADD PUSH1 0x0 SWAP1 SLOAD SWAP1 PUSH2 0x100 EXP SWAP1 DIV PUSH20 0xFFFFFFFFFFFFFFFFFFFFFFFFFFFFFFFFFFFFFFFF AND PUSH20 0xFFFFFFFFFFFFFFFFFFFFFFFFFFFFFFFFFFFFFFFF AND PUSH20 0xFFFFFFFFFFFFFFFFFFFFFFFFFFFFFFFFFFFFFFFF AND DUP2 MSTORE PUSH1 0x20 ADD PUSH1 0x2 DUP3 ADD SLOAD DUP2 MSTORE PUSH1 0x20 ADD PUSH1 0x3 DUP3 ADD SLOAD DUP2 MSTORE PUSH1 0x20 ADD PUSH1 0x4 DUP3 ADD SLOAD DUP2 MSTORE POP POP SWAP1 POP DUP1 PUSH1 0x60 ADD MLOAD DUP3 PUSH1 0x60 ADD MLOAD LT PUSH2 0x1A0E JUMPI PUSH1 0x0 DUP2 PUSH1 0x40 ADD MLOAD DUP4 PUSH1 0x40 ADD MLOAD GT ISZERO PUSH2 0x145E JUMPI DUP2 PUSH1 0x40 ADD MLOAD PUSH2 0x1464 JUMP JUMPDEST DUP3 PUSH1 0x40 ADD MLOAD JUMPDEST SWAP1 POP PUSH1 0x0 DUP3 PUSH1 0x60 ADD MLOAD SWAP1 POP DUP3 PUSH1 0x20 ADD MLOAD PUSH20 0xFFFFFFFFFFFFFFFFFFFFFFFFFFFFFFFFFFFFFFFF AND DUP5 PUSH1 0x20 ADD MLOAD PUSH20 0xFFFFFFFFFFFFFFFFFFFFFFFFFFFFFFFFFFFFFFFF AND PUSH1 0x2 PUSH1 0x0 SWAP1 SLOAD SWAP1 PUSH2 0x100 EXP SWAP1 DIV PUSH20 0xFFFFFFFFFFFFFFFFFFFFFFFFFFFFFFFFFFFFFFFF AND PUSH20 0xFFFFFFFFFFFFFFFFFFFFFFFFFFFFFFFFFFFFFFFF AND PUSH4 0x95D89B41 PUSH1 0x40 MLOAD DUP2 PUSH4 0xFFFFFFFF AND PUSH1 0xE0 SHL DUP2 MSTORE PUSH1 0x4 ADD PUSH1 0x0 PUSH1 0x40 MLOAD DUP1 DUP4 SUB DUP2 DUP7 GAS STATICCALL ISZERO DUP1 ISZERO PUSH2 0x1512 JUMPI RETURNDATASIZE PUSH1 0x0 DUP1 RETURNDATACOPY RETURNDATASIZE PUSH1 0x0 REVERT JUMPDEST POP POP POP POP PUSH1 0x40 MLOAD RETURNDATASIZE PUSH1 0x0 DUP3 RETURNDATACOPY RETURNDATASIZE PUSH1 0x1F NOT PUSH1 0x1F DUP3 ADD AND DUP3 ADD DUP1 PUSH1 0x40 MSTORE POP DUP2 ADD SWAP1 PUSH2 0x153B SWAP2 SWAP1 PUSH2 0x25C6 JUMP JUMPDEST PUSH1 0x40 MLOAD PUSH2 0x1548 SWAP2 SWAP1 PUSH2 0x2656 JUMP JUMPDEST PUSH1 0x40 MLOAD DUP1 SWAP2 SUB SWAP1 KECCAK256 PUSH32 0x424D865DF397536B12696FCE4AE34F828FE8AC24675EF10042BAE24C2578F0DB DUP6 DUP6 PUSH1 0x40 MLOAD PUSH2 0x1581 SWAP3 SWAP2 SWAP1 PUSH2 0x1CC2 JUMP JUMPDEST PUSH1 0x40 MLOAD DUP1 SWAP2 SUB SWAP1 LOG4 PUSH1 0x2 PUSH1 0x0 SWAP1 SLOAD SWAP1 PUSH2 0x100 EXP SWAP1 DIV PUSH20 0xFFFFFFFFFFFFFFFFFFFFFFFFFFFFFFFFFFFFFFFF AND PUSH20 0xFFFFFFFFFFFFFFFFFFFFFFFFFFFFFFFFFFFFFFFF AND PUSH4 0x7B1D3C62 PUSH1 0x2 PUSH1 0x0 SWAP1 SLOAD SWAP1 PUSH2 0x100 EXP SWAP1 DIV PUSH20 0xFFFFFFFFFFFFFFFFFFFFFFFFFFFFFFFFFFFFFFFF AND PUSH20 0xFFFFFFFFFFFFFFFFFFFFFFFFFFFFFFFFFFFFFFFF AND PUSH4 0x1D143848 PUSH1 0x40 MLOAD DUP2 PUSH4 0xFFFFFFFF AND PUSH1 0xE0 SHL DUP2 MSTORE PUSH1 0x4 ADD PUSH1 0x20 PUSH1 0x40 MLOAD DUP1 DUP4 SUB DUP2 DUP7 GAS STATICCALL ISZERO DUP1 ISZERO PUSH2 0x1634 JUMPI RETURNDATASIZE PUSH1 0x0 DUP1 RETURNDATACOPY RETURNDATASIZE PUSH1 0x0 REVERT JUMPDEST POP POP POP POP PUSH1 0x40 MLOAD RETURNDATASIZE PUSH1 0x1F NOT PUSH1 0x1F DUP3 ADD AND DUP3 ADD DUP1 PUSH1 0x40 MSTORE POP DUP2 ADD SWAP1 PUSH2 0x1658 SWAP2 SWAP1 PUSH2 0x2699 JUMP JUMPDEST DUP6 PUSH1 0x20 ADD MLOAD DUP6 PUSH1 0x40 MLOAD DUP5 PUSH4 0xFFFFFFFF AND PUSH1 0xE0 SHL DUP2 MSTORE PUSH1 0x4 ADD PUSH2 0x167C SWAP4 SWAP3 SWAP2 SWAP1 PUSH2 0x26C6 JUMP JUMPDEST PUSH1 0x0 PUSH1 0x40 MLOAD DUP1 DUP4 SUB DUP2 PUSH1 0x0 DUP8 DUP1 EXTCODESIZE ISZERO DUP1 ISZERO PUSH2 0x1696 JUMPI PUSH1 0x0 DUP1 REVERT JUMPDEST POP GAS CALL ISZERO DUP1 ISZERO PUSH2 0x16AA JUMPI RETURNDATASIZE PUSH1 0x0 DUP1 RETURNDATACOPY RETURNDATASIZE PUSH1 0x0 REVERT JUMPDEST POP POP POP POP PUSH1 0x2 PUSH1 0x0 SWAP1 SLOAD SWAP1 PUSH2 0x100 EXP SWAP1 DIV PUSH20 0xFFFFFFFFFFFFFFFFFFFFFFFFFFFFFFFFFFFFFFFF AND PUSH20 0xFFFFFFFFFFFFFFFFFFFFFFFFFFFFFFFFFFFFFFFF AND PUSH4 0x7B1D3C62 PUSH1 0x2 PUSH1 0x0 SWAP1 SLOAD SWAP1 PUSH2 0x100 EXP SWAP1 DIV PUSH20 0xFFFFFFFFFFFFFFFFFFFFFFFFFFFFFFFFFFFFFFFF AND PUSH20 0xFFFFFFFFFFFFFFFFFFFFFFFFFFFFFFFFFFFFFFFF AND PUSH4 0x1D143848 PUSH1 0x40 MLOAD DUP2 PUSH4 0xFFFFFFFF AND PUSH1 0xE0 SHL DUP2 MSTORE PUSH1 0x4 ADD PUSH1 0x20 PUSH1 0x40 MLOAD DUP1 DUP4 SUB DUP2 DUP7 GAS STATICCALL ISZERO DUP1 ISZERO PUSH2 0x1759 JUMPI RETURNDATASIZE PUSH1 0x0 DUP1 RETURNDATACOPY RETURNDATASIZE PUSH1 0x0 REVERT JUMPDEST POP POP POP POP PUSH1 0x40 MLOAD RETURNDATASIZE PUSH1 0x1F NOT PUSH1 0x1F DUP3 ADD AND DUP3 ADD DUP1 PUSH1 0x40 MSTORE POP DUP2 ADD SWAP1 PUSH2 0x177D SWAP2 SWAP1 PUSH2 0x2699 JUMP JUMPDEST DUP7 PUSH1 0x20 ADD MLOAD DUP6 PUSH1 0x40 MLOAD DUP5 PUSH4 0xFFFFFFFF AND PUSH1 0xE0 SHL DUP2 MSTORE PUSH1 0x4 ADD PUSH2 0x17A1 SWAP4 SWAP3 SWAP2 SWAP1 PUSH2 0x26C6 JUMP JUMPDEST PUSH1 0x0 PUSH1 0x40 MLOAD DUP1 DUP4 SUB DUP2 PUSH1 0x0 DUP8 DUP1 EXTCODESIZE ISZERO DUP1 ISZERO PUSH2 0x17BB JUMPI PUSH1 0x0 DUP1 REVERT JUMPDEST POP GAS CALL ISZERO DUP1 ISZERO PUSH2 0x17CF JUMPI RETURNDATASIZE PUSH1 0x0 DUP1 RETURNDATACOPY RETURNDATASIZE PUSH1 0x0 REVERT JUMPDEST POP POP POP POP PUSH1 0x2 PUSH1 0x0 SWAP1 SLOAD SWAP1 PUSH2 0x100 EXP SWAP1 DIV PUSH20 0xFFFFFFFFFFFFFFFFFFFFFFFFFFFFFFFFFFFFFFFF AND PUSH20 0xFFFFFFFFFFFFFFFFFFFFFFFFFFFFFFFFFFFFFFFF AND PUSH4 0x23B872DD DUP5 PUSH1 0x20 ADD MLOAD DUP7 PUSH1 0x20 ADD MLOAD DUP6 PUSH1 0x40 MLOAD DUP5 PUSH4 0xFFFFFFFF AND PUSH1 0xE0 SHL DUP2 MSTORE PUSH1 0x4 ADD PUSH2 0x183A SWAP4 SWAP3 SWAP2 SWAP1 PUSH2 0x26C6 JUMP JUMPDEST PUSH1 0x20 PUSH1 0x40 MLOAD DUP1 DUP4 SUB DUP2 PUSH1 0x0 DUP8 GAS CALL ISZERO DUP1 ISZERO PUSH2 0x1859 JUMPI RETURNDATASIZE PUSH1 0x0 DUP1 RETURNDATACOPY RETURNDATASIZE PUSH1 0x0 REVERT JUMPDEST POP POP POP POP PUSH1 0x40 MLOAD RETURNDATASIZE PUSH1 0x1F NOT PUSH1 0x1F DUP3 ADD AND DUP3 ADD DUP1 PUSH1 0x40 MSTORE POP DUP2 ADD SWAP1 PUSH2 0x187D SWAP2 SWAP1 PUSH2 0x1ECA JUMP JUMPDEST POP DUP3 PUSH1 0x40 ADD MLOAD DUP5 PUSH1 0x40 ADD MLOAD GT PUSH2 0x194C JUMPI DUP4 PUSH1 0x40 ADD MLOAD PUSH1 0x4 DUP7 DUP2 SLOAD DUP2 LT PUSH2 0x18A6 JUMPI PUSH2 0x18A5 PUSH2 0x1D2B JUMP JUMPDEST JUMPDEST SWAP1 PUSH1 0x0 MSTORE PUSH1 0x20 PUSH1 0x0 KECCAK256 SWAP1 PUSH1 0x5 MUL ADD PUSH1 0x2 ADD PUSH1 0x0 DUP3 DUP3 SLOAD PUSH2 0x18C6 SWAP2 SWAP1 PUSH2 0x26FD JUMP JUMPDEST SWAP3 POP POP DUP2 SWAP1 SSTORE POP PUSH1 0x3 DUP7 DUP2 SLOAD DUP2 LT PUSH2 0x18E1 JUMPI PUSH2 0x18E0 PUSH2 0x1D2B JUMP JUMPDEST JUMPDEST SWAP1 PUSH1 0x0 MSTORE PUSH1 0x20 PUSH1 0x0 KECCAK256 SWAP1 PUSH1 0x5 MUL ADD PUSH1 0x0 DUP1 DUP3 ADD PUSH1 0x0 SWAP1 SSTORE PUSH1 0x1 DUP3 ADD PUSH1 0x0 PUSH2 0x100 EXP DUP2 SLOAD SWAP1 PUSH20 0xFFFFFFFFFFFFFFFFFFFFFFFFFFFFFFFFFFFFFFFF MUL NOT AND SWAP1 SSTORE PUSH1 0x2 DUP3 ADD PUSH1 0x0 SWAP1 SSTORE PUSH1 0x3 DUP3 ADD PUSH1 0x0 SWAP1 SSTORE PUSH1 0x4 DUP3 ADD PUSH1 0x0 SWAP1 SSTORE POP POP DUP6 DUP1 PUSH2 0x1944 SWAP1 PUSH2 0x2122 JUMP JUMPDEST SWAP7 POP POP PUSH2 0x1A07 JUMP JUMPDEST DUP3 PUSH1 0x40 ADD MLOAD PUSH1 0x3 DUP8 DUP2 SLOAD DUP2 LT PUSH2 0x1965 JUMPI PUSH2 0x1964 PUSH2 0x1D2B JUMP JUMPDEST JUMPDEST SWAP1 PUSH1 0x0 MSTORE PUSH1 0x20 PUSH1 0x0 KECCAK256 SWAP1 PUSH1 0x5 MUL ADD PUSH1 0x2 ADD PUSH1 0x0 DUP3 DUP3 SLOAD PUSH2 0x1985 SWAP2 SWAP1 PUSH2 0x26FD JUMP JUMPDEST SWAP3 POP POP DUP2 SWAP1 SSTORE POP PUSH1 0x4 DUP6 DUP2 SLOAD DUP2 LT PUSH2 0x19A0 JUMPI PUSH2 0x199F PUSH2 0x1D2B JUMP JUMPDEST JUMPDEST SWAP1 PUSH1 0x0 MSTORE PUSH1 0x20 PUSH1 0x0 KECCAK256 SWAP1 PUSH1 0x5 MUL ADD PUSH1 0x0 DUP1 DUP3 ADD PUSH1 0x0 SWAP1 SSTORE PUSH1 0x1 DUP3 ADD PUSH1 0x0 PUSH2 0x100 EXP DUP2 SLOAD SWAP1 PUSH20 0xFFFFFFFFFFFFFFFFFFFFFFFFFFFFFFFFFFFFFFFF MUL NOT AND SWAP1 SSTORE PUSH1 0x2 DUP3 ADD PUSH1 0x0 SWAP1 SSTORE PUSH1 0x3 DUP3 ADD PUSH1 0x0 SWAP1 SSTORE PUSH1 0x4 DUP3 ADD PUSH1 0x0 SWAP1 SSTORE POP POP DUP5 DUP1 PUSH2 0x1A03 SWAP1 PUSH2 0x2122 JUMP JUMPDEST SWAP6 POP POP JUMPDEST POP POP PUSH2 0x1A15 JUMP JUMPDEST POP POP PUSH2 0x1A1C JUMP JUMPDEST POP POP PUSH2 0x12B8 JUMP JUMPDEST POP POP JUMPDEST JUMP JUMPDEST PUSH1 0x0 PUSH1 0x40 MLOAD SWAP1 POP SWAP1 JUMP JUMPDEST PUSH1 0x0 DUP1 REVERT JUMPDEST PUSH1 0x0 DUP1 REVERT JUMPDEST PUSH1 0x0 DUP2 SWAP1 POP SWAP2 SWAP1 POP JUMP JUMPDEST PUSH2 0x1A48 DUP2 PUSH2 0x1A35 JUMP JUMPDEST DUP2 EQ PUSH2 0x1A53 JUMPI PUSH1 0x0 DUP1 REVERT JUMPDEST POP JUMP JUMPDEST PUSH1 0x0 DUP2 CALLDATALOAD SWAP1 POP PUSH2 0x1A65 DUP2 PUSH2 0x1A3F JUMP JUMPDEST SWAP3 SWAP2 POP POP JUMP JUMPDEST PUSH1 0x0 PUSH1 0x20 DUP3 DUP5 SUB SLT ISZERO PUSH2 0x1A81 JUMPI PUSH2 0x1A80 PUSH2 0x1A2B JUMP JUMPDEST JUMPDEST PUSH1 0x0 PUSH2 0x1A8F DUP5 DUP3 DUP6 ADD PUSH2 0x1A56 JUMP JUMPDEST SWAP2 POP POP SWAP3 SWAP2 POP POP JUMP JUMPDEST PUSH2 0x1AA1 DUP2 PUSH2 0x1A35 JUMP JUMPDEST DUP3 MSTORE POP POP JUMP JUMPDEST PUSH1 0x0 PUSH1 0x20 DUP3 ADD SWAP1 POP PUSH2 0x1ABC PUSH1 0x0 DUP4 ADD DUP5 PUSH2 0x1A98 JUMP JUMPDEST SWAP3 SWAP2 POP POP JUMP JUMPDEST PUSH1 0x0 DUP2 MLOAD SWAP1 POP SWAP2 SWAP1 POP JUMP JUMPDEST PUSH1 0x0 DUP3 DUP3 MSTORE PUSH1 0x20 DUP3 ADD SWAP1 POP SWAP3 SWAP2 POP POP JUMP JUMPDEST PUSH1 0x0 DUP2 SWAP1 POP PUSH1 0x20 DUP3 ADD SWAP1 POP SWAP2 SWAP1 POP JUMP JUMPDEST PUSH2 0x1AF7 DUP2 PUSH2 0x1A35 JUMP JUMPDEST DUP3 MSTORE POP POP JUMP JUMPDEST PUSH1 0x0 PUSH20 0xFFFFFFFFFFFFFFFFFFFFFFFFFFFFFFFFFFFFFFFF DUP3 AND SWAP1 POP SWAP2 SWAP1 POP JUMP JUMPDEST PUSH1 0x0 PUSH2 0x1B28 DUP3 PUSH2 0x1AFD JUMP JUMPDEST SWAP1 POP SWAP2 SWAP1 POP JUMP JUMPDEST PUSH2 0x1B38 DUP2 PUSH2 0x1B1D JUMP JUMPDEST DUP3 MSTORE POP POP JUMP JUMPDEST PUSH1 0xA0 DUP3 ADD PUSH1 0x0 DUP3 ADD MLOAD PUSH2 0x1B54 PUSH1 0x0 DUP6 ADD DUP3 PUSH2 0x1AEE JUMP JUMPDEST POP PUSH1 0x20 DUP3 ADD MLOAD PUSH2 0x1B67 PUSH1 0x20 DUP6 ADD DUP3 PUSH2 0x1B2F JUMP JUMPDEST POP PUSH1 0x40 DUP3 ADD MLOAD PUSH2 0x1B7A PUSH1 0x40 DUP6 ADD DUP3 PUSH2 0x1AEE JUMP JUMPDEST POP PUSH1 0x60 DUP3 ADD MLOAD PUSH2 0x1B8D PUSH1 0x60 DUP6 ADD DUP3 PUSH2 0x1AEE JUMP JUMPDEST POP PUSH1 0x80 DUP3 ADD MLOAD PUSH2 0x1BA0 PUSH1 0x80 DUP6 ADD DUP3 PUSH2 0x1AEE JUMP JUMPDEST POP POP POP POP JUMP JUMPDEST PUSH1 0x0 PUSH2 0x1BB2 DUP4 DUP4 PUSH2 0x1B3E JUMP JUMPDEST PUSH1 0xA0 DUP4 ADD SWAP1 POP SWAP3 SWAP2 POP POP JUMP JUMPDEST PUSH1 0x0 PUSH1 0x20 DUP3 ADD SWAP1 POP SWAP2 SWAP1 POP JUMP JUMPDEST PUSH1 0x0 PUSH2 0x1BD6 DUP3 PUSH2 0x1AC2 JUMP JUMPDEST PUSH2 0x1BE0 DUP2 DUP6 PUSH2 0x1ACD JUMP JUMPDEST SWAP4 POP PUSH2 0x1BEB DUP4 PUSH2 0x1ADE JUMP JUMPDEST DUP1 PUSH1 0x0 JUMPDEST DUP4 DUP2 LT ISZERO PUSH2 0x1C1C JUMPI DUP2 MLOAD PUSH2 0x1C03 DUP9 DUP3 PUSH2 0x1BA6 JUMP JUMPDEST SWAP8 POP PUSH2 0x1C0E DUP4 PUSH2 0x1BBE JUMP JUMPDEST SWAP3 POP POP PUSH1 0x1 DUP2 ADD SWAP1 POP PUSH2 0x1BEF JUMP JUMPDEST POP DUP6 SWAP4 POP POP POP POP SWAP3 SWAP2 POP POP JUMP JUMPDEST PUSH1 0x0 PUSH1 0x40 DUP3 ADD SWAP1 POP DUP2 DUP2 SUB PUSH1 0x0 DUP4 ADD MSTORE PUSH2 0x1C43 DUP2 DUP6 PUSH2 0x1BCB JUMP JUMPDEST SWAP1 POP DUP2 DUP2 SUB PUSH1 0x20 DUP4 ADD MSTORE PUSH2 0x1C57 DUP2 DUP5 PUSH2 0x1BCB JUMP JUMPDEST SWAP1 POP SWAP4 SWAP3 POP POP POP JUMP JUMPDEST PUSH2 0x1C69 DUP2 PUSH2 0x1B1D JUMP JUMPDEST DUP3 MSTORE POP POP JUMP JUMPDEST PUSH1 0x0 PUSH1 0xA0 DUP3 ADD SWAP1 POP PUSH2 0x1C84 PUSH1 0x0 DUP4 ADD DUP9 PUSH2 0x1A98 JUMP JUMPDEST PUSH2 0x1C91 PUSH1 0x20 DUP4 ADD DUP8 PUSH2 0x1C60 JUMP JUMPDEST PUSH2 0x1C9E PUSH1 0x40 DUP4 ADD DUP7 PUSH2 0x1A98 JUMP JUMPDEST PUSH2 0x1CAB PUSH1 0x60 DUP4 ADD DUP6 PUSH2 0x1A98 JUMP JUMPDEST PUSH2 0x1CB8 PUSH1 0x80 DUP4 ADD DUP5 PUSH2 0x1A98 JUMP JUMPDEST SWAP7 SWAP6 POP POP POP POP POP POP JUMP JUMPDEST PUSH1 0x0 PUSH1 0x40 DUP3 ADD SWAP1 POP PUSH2 0x1CD7 PUSH1 0x0 DUP4 ADD DUP6 PUSH2 0x1A98 JUMP JUMPDEST PUSH2 0x1CE4 PUSH1 0x20 DUP4 ADD DUP5 PUSH2 0x1A98 JUMP JUMPDEST SWAP4 SWAP3 POP POP POP JUMP JUMPDEST PUSH1 0x0 DUP1 PUSH1 0x40 DUP4 DUP6 SUB SLT ISZERO PUSH2 0x1D02 JUMPI PUSH2 0x1D01 PUSH2 0x1A2B JUMP JUMPDEST JUMPDEST PUSH1 0x0 PUSH2 0x1D10 DUP6 DUP3 DUP7 ADD PUSH2 0x1A56 JUMP JUMPDEST SWAP3 POP POP PUSH1 0x20 PUSH2 0x1D21 DUP6 DUP3 DUP7 ADD PUSH2 0x1A56 JUMP JUMPDEST SWAP2 POP POP SWAP3 POP SWAP3 SWAP1 POP JUMP JUMPDEST PUSH32 0x4E487B7100000000000000000000000000000000000000000000000000000000 PUSH1 0x0 MSTORE PUSH1 0x32 PUSH1 0x4 MSTORE PUSH1 0x24 PUSH1 0x0 REVERT JUMPDEST PUSH1 0x0 DUP3 DUP3 MSTORE PUSH1 0x20 DUP3 ADD SWAP1 POP SWAP3 SWAP2 POP POP JUMP JUMPDEST PUSH32 0x596F7520617265206E6F7420746865206F776E6572206F662074686973206F72 PUSH1 0x0 DUP3 ADD MSTORE PUSH32 0x6465722E00000000000000000000000000000000000000000000000000000000 PUSH1 0x20 DUP3 ADD MSTORE POP JUMP JUMPDEST PUSH1 0x0 PUSH2 0x1DC7 PUSH1 0x24 DUP4 PUSH2 0x1D5A JUMP JUMPDEST SWAP2 POP PUSH2 0x1DD2 DUP3 PUSH2 0x1D6B JUMP JUMPDEST PUSH1 0x40 DUP3 ADD SWAP1 POP SWAP2 SWAP1 POP JUMP JUMPDEST PUSH1 0x0 PUSH1 0x20 DUP3 ADD SWAP1 POP DUP2 DUP2 SUB PUSH1 0x0 DUP4 ADD MSTORE PUSH2 0x1DF6 DUP2 PUSH2 0x1DBA JUMP JUMPDEST SWAP1 POP SWAP2 SWAP1 POP JUMP JUMPDEST PUSH32 0x436F6E747261637420686173206E6F2062616C616E63652E0000000000000000 PUSH1 0x0 DUP3 ADD MSTORE POP JUMP JUMPDEST PUSH1 0x0 PUSH2 0x1E33 PUSH1 0x18 DUP4 PUSH2 0x1D5A JUMP JUMPDEST SWAP2 POP PUSH2 0x1E3E DUP3 PUSH2 0x1DFD JUMP JUMPDEST PUSH1 0x20 DUP3 ADD SWAP1 POP SWAP2 SWAP1 POP JUMP JUMPDEST PUSH1 0x0 PUSH1 0x20 DUP3 ADD SWAP1 POP DUP2 DUP2 SUB PUSH1 0x0 DUP4 ADD MSTORE PUSH2 0x1E62 DUP2 PUSH2 0x1E26 JUMP JUMPDEST SWAP1 POP SWAP2 SWAP1 POP JUMP JUMPDEST PUSH1 0x0 PUSH1 0x40 DUP3 ADD SWAP1 POP PUSH2 0x1E7E PUSH1 0x0 DUP4 ADD DUP6 PUSH2 0x1C60 JUMP JUMPDEST PUSH2 0x1E8B PUSH1 0x20 DUP4 ADD DUP5 PUSH2 0x1A98 JUMP JUMPDEST SWAP4 SWAP3 POP POP POP JUMP JUMPDEST PUSH1 0x0 DUP2 ISZERO ISZERO SWAP1 POP SWAP2 SWAP1 POP JUMP JUMPDEST PUSH2 0x1EA7 DUP2 PUSH2 0x1E92 JUMP JUMPDEST DUP2 EQ PUSH2 0x1EB2 JUMPI PUSH1 0x0 DUP1 REVERT JUMPDEST POP JUMP JUMPDEST PUSH1 0x0 DUP2 MLOAD SWAP1 POP PUSH2 0x1EC4 DUP2 PUSH2 0x1E9E JUMP JUMPDEST SWAP3 SWAP2 POP POP JUMP JUMPDEST PUSH1 0x0 PUSH1 0x20 DUP3 DUP5 SUB SLT ISZERO PUSH2 0x1EE0 JUMPI PUSH2 0x1EDF PUSH2 0x1A2B JUMP JUMPDEST JUMPDEST PUSH1 0x0 PUSH2 0x1EEE DUP5 DUP3 DUP6 ADD PUSH2 0x1EB5 JUMP JUMPDEST SWAP2 POP POP SWAP3 SWAP2 POP POP JUMP JUMPDEST PUSH32 0x74726164696E6720686173206265656E2073757370656E646564000000000000 PUSH1 0x0 DUP3 ADD MSTORE POP JUMP JUMPDEST PUSH1 0x0 PUSH2 0x1F2D PUSH1 0x1A DUP4 PUSH2 0x1D5A JUMP JUMPDEST SWAP2 POP PUSH2 0x1F38 DUP3 PUSH2 0x1EF7 JUMP JUMPDEST PUSH1 0x20 DUP3 ADD SWAP1 POP SWAP2 SWAP1 POP JUMP JUMPDEST PUSH1 0x0 PUSH1 0x20 DUP3 ADD SWAP1 POP DUP2 DUP2 SUB PUSH1 0x0 DUP4 ADD MSTORE PUSH2 0x1F5C DUP2 PUSH2 0x1F20 JUMP JUMPDEST SWAP1 POP SWAP2 SWAP1 POP JUMP JUMPDEST PUSH32 0x496E76616C696420616D6F756E7420616E642F6F722070726963650000000000 PUSH1 0x0 DUP3 ADD MSTORE POP JUMP JUMPDEST PUSH1 0x0 PUSH2 0x1F99 PUSH1 0x1B DUP4 PUSH2 0x1D5A JUMP JUMPDEST SWAP2 POP PUSH2 0x1FA4 DUP3 PUSH2 0x1F63 JUMP JUMPDEST PUSH1 0x20 DUP3 ADD SWAP1 POP SWAP2 SWAP1 POP JUMP JUMPDEST PUSH1 0x0 PUSH1 0x20 DUP3 ADD SWAP1 POP DUP2 DUP2 SUB PUSH1 0x0 DUP4 ADD MSTORE PUSH2 0x1FC8 DUP2 PUSH2 0x1F8C JUMP JUMPDEST SWAP1 POP SWAP2 SWAP1 POP JUMP JUMPDEST PUSH32 0x696E73756666696369656E742066756E647320746F20706C6163652062757920 PUSH1 0x0 DUP3 ADD MSTORE PUSH32 0x6F72646572000000000000000000000000000000000000000000000000000000 PUSH1 0x20 DUP3 ADD MSTORE POP JUMP JUMPDEST PUSH1 0x0 PUSH2 0x202B PUSH1 0x25 DUP4 PUSH2 0x1D5A JUMP JUMPDEST SWAP2 POP PUSH2 0x2036 DUP3 PUSH2 0x1FCF JUMP JUMPDEST PUSH1 0x40 DUP3 ADD SWAP1 POP SWAP2 SWAP1 POP JUMP JUMPDEST PUSH1 0x0 PUSH1 0x20 DUP3 ADD SWAP1 POP DUP2 DUP2 SUB PUSH1 0x0 DUP4 ADD MSTORE PUSH2 0x205A DUP2 PUSH2 0x201E JUMP JUMPDEST SWAP1 POP SWAP2 SWAP1 POP JUMP JUMPDEST PUSH32 0x74726164696E672064697361626C656420756E74696C20696E697469616C206F PUSH1 0x0 DUP3 ADD MSTORE PUSH32 0x66666572696E6720686173206265656E20636F6D706C65746564000000000000 PUSH1 0x20 DUP3 ADD MSTORE POP JUMP JUMPDEST PUSH1 0x0 PUSH2 0x20BD PUSH1 0x3A DUP4 PUSH2 0x1D5A JUMP JUMPDEST SWAP2 POP PUSH2 0x20C8 DUP3 PUSH2 0x2061 JUMP JUMPDEST PUSH1 0x40 DUP3 ADD SWAP1 POP SWAP2 SWAP1 POP JUMP JUMPDEST PUSH1 0x0 PUSH1 0x20 DUP3 ADD SWAP1 POP DUP2 DUP2 SUB PUSH1 0x0 DUP4 ADD MSTORE PUSH2 0x20EC DUP2 PUSH2 0x20B0 JUMP JUMPDEST SWAP1 POP SWAP2 SWAP1 POP JUMP JUMPDEST PUSH32 0x4E487B7100000000000000000000000000000000000000000000000000000000 PUSH1 0x0 MSTORE PUSH1 0x11 PUSH1 0x4 MSTORE PUSH1 0x24 PUSH1 0x0 REVERT JUMPDEST PUSH1 0x0 PUSH2 0x212D DUP3 PUSH2 0x1A35 JUMP JUMPDEST SWAP2 POP PUSH32 0xFFFFFFFFFFFFFFFFFFFFFFFFFFFFFFFFFFFFFFFFFFFFFFFFFFFFFFFFFFFFFFFF DUP3 SUB PUSH2 0x215F JUMPI PUSH2 0x215E PUSH2 0x20F3 JUMP JUMPDEST JUMPDEST PUSH1 0x1 DUP3 ADD SWAP1 POP SWAP2 SWAP1 POP JUMP JUMPDEST PUSH32 0x496E76616C696420616D6F756E74000000000000000000000000000000000000 PUSH1 0x0 DUP3 ADD MSTORE POP JUMP JUMPDEST PUSH1 0x0 PUSH2 0x21A0 PUSH1 0xE DUP4 PUSH2 0x1D5A JUMP JUMPDEST SWAP2 POP PUSH2 0x21AB DUP3 PUSH2 0x216A JUMP JUMPDEST PUSH1 0x20 DUP3 ADD SWAP1 POP SWAP2 SWAP1 POP JUMP JUMPDEST PUSH1 0x0 PUSH1 0x20 DUP3 ADD SWAP1 POP DUP2 DUP2 SUB PUSH1 0x0 DUP4 ADD MSTORE PUSH2 0x21CF DUP2 PUSH2 0x2193 JUMP JUMPDEST SWAP1 POP SWAP2 SWAP1 POP JUMP JUMPDEST PUSH32 0x496E76616C696420707269636500000000000000000000000000000000000000 PUSH1 0x0 DUP3 ADD MSTORE POP JUMP JUMPDEST PUSH1 0x0 PUSH2 0x220C PUSH1 0xD DUP4 PUSH2 0x1D5A JUMP JUMPDEST SWAP2 POP PUSH2 0x2217 DUP3 PUSH2 0x21D6 JUMP JUMPDEST PUSH1 0x20 DUP3 ADD SWAP1 POP SWAP2 SWAP1 POP JUMP JUMPDEST PUSH1 0x0 PUSH1 0x20 DUP3 ADD SWAP1 POP DUP2 DUP2 SUB PUSH1 0x0 DUP4 ADD MSTORE PUSH2 0x223B DUP2 PUSH2 0x21FF JUMP JUMPDEST SWAP1 POP SWAP2 SWAP1 POP JUMP JUMPDEST PUSH1 0x0 PUSH1 0x20 DUP3 ADD SWAP1 POP PUSH2 0x2257 PUSH1 0x0 DUP4 ADD DUP5 PUSH2 0x1C60 JUMP JUMPDEST SWAP3 SWAP2 POP POP JUMP JUMPDEST PUSH1 0x0 DUP2 MLOAD SWAP1 POP PUSH2 0x226C DUP2 PUSH2 0x1A3F JUMP JUMPDEST SWAP3 SWAP2 POP POP JUMP JUMPDEST PUSH1 0x0 PUSH1 0x20 DUP3 DUP5 SUB SLT ISZERO PUSH2 0x2288 JUMPI PUSH2 0x2287 PUSH2 0x1A2B JUMP JUMPDEST JUMPDEST PUSH1 0x0 PUSH2 0x2296 DUP5 DUP3 DUP6 ADD PUSH2 0x225D JUMP JUMPDEST SWAP2 POP POP SWAP3 SWAP2 POP POP JUMP JUMPDEST PUSH32 0x696E73756666696369656E742062616C616E636520696E2073656C6C65727320 PUSH1 0x0 DUP3 ADD MSTORE PUSH32 0x6163636F756E7400000000000000000000000000000000000000000000000000 PUSH1 0x20 DUP3 ADD MSTORE POP JUMP JUMPDEST PUSH1 0x0 PUSH2 0x22FB PUSH1 0x27 DUP4 PUSH2 0x1D5A JUMP JUMPDEST SWAP2 POP PUSH2 0x2306 DUP3 PUSH2 0x229F JUMP JUMPDEST PUSH1 0x40 DUP3 ADD SWAP1 POP SWAP2 SWAP1 POP JUMP JUMPDEST PUSH1 0x0 PUSH1 0x20 DUP3 ADD SWAP1 POP DUP2 DUP2 SUB PUSH1 0x0 DUP4 ADD MSTORE PUSH2 0x232A DUP2 PUSH2 0x22EE JUMP JUMPDEST SWAP1 POP SWAP2 SWAP1 POP JUMP JUMPDEST PUSH1 0x0 PUSH2 0x233C DUP3 PUSH2 0x1A35 JUMP JUMPDEST SWAP2 POP PUSH2 0x2347 DUP4 PUSH2 0x1A35 JUMP JUMPDEST SWAP3 POP DUP3 DUP3 MUL PUSH2 0x2355 DUP2 PUSH2 0x1A35 JUMP JUMPDEST SWAP2 POP DUP3 DUP3 DIV DUP5 EQ DUP4 ISZERO OR PUSH2 0x236C JUMPI PUSH2 0x236B PUSH2 0x20F3 JUMP JUMPDEST JUMPDEST POP SWAP3 SWAP2 POP POP JUMP JUMPDEST PUSH32 0x4E487B7100000000000000000000000000000000000000000000000000000000 PUSH1 0x0 MSTORE PUSH1 0x12 PUSH1 0x4 MSTORE PUSH1 0x24 PUSH1 0x0 REVERT JUMPDEST PUSH1 0x0 PUSH2 0x23AD DUP3 PUSH2 0x1A35 JUMP JUMPDEST SWAP2 POP PUSH2 0x23B8 DUP4 PUSH2 0x1A35 JUMP JUMPDEST SWAP3 POP DUP3 PUSH2 0x23C8 JUMPI PUSH2 0x23C7 PUSH2 0x2373 JUMP JUMPDEST JUMPDEST DUP3 DUP3 DIV SWAP1 POP SWAP3 SWAP2 POP POP JUMP JUMPDEST PUSH32 0x536166654D6174683A206D756C7469706C69636174696F6E206F766572666C6F PUSH1 0x0 DUP3 ADD MSTORE PUSH32 0x7700000000000000000000000000000000000000000000000000000000000000 PUSH1 0x20 DUP3 ADD MSTORE POP JUMP JUMPDEST PUSH1 0x0 PUSH2 0x242F PUSH1 0x21 DUP4 PUSH2 0x1D5A JUMP JUMPDEST SWAP2 POP PUSH2 0x243A DUP3 PUSH2 0x23D3 JUMP JUMPDEST PUSH1 0x40 DUP3 ADD SWAP1 POP SWAP2 SWAP1 POP JUMP JUMPDEST PUSH1 0x0 PUSH1 0x20 DUP3 ADD SWAP1 POP DUP2 DUP2 SUB PUSH1 0x0 DUP4 ADD MSTORE PUSH2 0x245E DUP2 PUSH2 0x2422 JUMP JUMPDEST SWAP1 POP SWAP2 SWAP1 POP JUMP JUMPDEST PUSH1 0x0 DUP1 REVERT JUMPDEST PUSH1 0x0 DUP1 REVERT JUMPDEST PUSH1 0x0 PUSH1 0x1F NOT PUSH1 0x1F DUP4 ADD AND SWAP1 POP SWAP2 SWAP1 POP JUMP JUMPDEST PUSH32 0x4E487B7100000000000000000000000000000000000000000000000000000000 PUSH1 0x0 MSTORE PUSH1 0x41 PUSH1 0x4 MSTORE PUSH1 0x24 PUSH1 0x0 REVERT JUMPDEST PUSH2 0x24B8 DUP3 PUSH2 0x246F JUMP JUMPDEST DUP2 ADD DUP2 DUP2 LT PUSH8 0xFFFFFFFFFFFFFFFF DUP3 GT OR ISZERO PUSH2 0x24D7 JUMPI PUSH2 0x24D6 PUSH2 0x2480 JUMP JUMPDEST JUMPDEST DUP1 PUSH1 0x40 MSTORE POP POP POP JUMP JUMPDEST PUSH1 0x0 PUSH2 0x24EA PUSH2 0x1A21 JUMP JUMPDEST SWAP1 POP PUSH2 0x24F6 DUP3 DUP3 PUSH2 0x24AF JUMP JUMPDEST SWAP2 SWAP1 POP JUMP JUMPDEST PUSH1 0x0 PUSH8 0xFFFFFFFFFFFFFFFF DUP3 GT ISZERO PUSH2 0x2516 JUMPI PUSH2 0x2515 PUSH2 0x2480 JUMP JUMPDEST JUMPDEST PUSH2 0x251F DUP3 PUSH2 0x246F JUMP JUMPDEST SWAP1 POP PUSH1 0x20 DUP2 ADD SWAP1 POP SWAP2 SWAP1 POP JUMP JUMPDEST PUSH1 0x0 JUMPDEST DUP4 DUP2 LT ISZERO PUSH2 0x254A JUMPI DUP1 DUP3 ADD MLOAD DUP2 DUP5 ADD MSTORE PUSH1 0x20 DUP2 ADD SWAP1 POP PUSH2 0x252F JUMP JUMPDEST PUSH1 0x0 DUP5 DUP5 ADD MSTORE POP POP POP POP JUMP JUMPDEST PUSH1 0x0 PUSH2 0x2569 PUSH2 0x2564 DUP5 PUSH2 0x24FB JUMP JUMPDEST PUSH2 0x24E0 JUMP JUMPDEST SWAP1 POP DUP3 DUP2 MSTORE PUSH1 0x20 DUP2 ADD DUP5 DUP5 DUP5 ADD GT ISZERO PUSH2 0x2585 JUMPI PUSH2 0x2584 PUSH2 0x246A JUMP JUMPDEST JUMPDEST PUSH2 0x2590 DUP5 DUP3 DUP6 PUSH2 0x252C JUMP JUMPDEST POP SWAP4 SWAP3 POP POP POP JUMP JUMPDEST PUSH1 0x0 DUP3 PUSH1 0x1F DUP4 ADD SLT PUSH2 0x25AD JUMPI PUSH2 0x25AC PUSH2 0x2465 JUMP JUMPDEST JUMPDEST DUP2 MLOAD PUSH2 0x25BD DUP5 DUP3 PUSH1 0x20 DUP7 ADD PUSH2 0x2556 JUMP JUMPDEST SWAP2 POP POP SWAP3 SWAP2 POP POP JUMP JUMPDEST PUSH1 0x0 PUSH1 0x20 DUP3 DUP5 SUB SLT ISZERO PUSH2 0x25DC JUMPI PUSH2 0x25DB PUSH2 0x1A2B JUMP JUMPDEST JUMPDEST PUSH1 0x0 DUP3 ADD MLOAD PUSH8 0xFFFFFFFFFFFFFFFF DUP2 GT ISZERO PUSH2 0x25FA JUMPI PUSH2 0x25F9 PUSH2 0x1A30 JUMP JUMPDEST JUMPDEST PUSH2 0x2606 DUP5 DUP3 DUP6 ADD PUSH2 0x2598 JUMP JUMPDEST SWAP2 POP POP SWAP3 SWAP2 POP POP JUMP JUMPDEST PUSH1 0x0 DUP2 MLOAD SWAP1 POP SWAP2 SWAP1 POP JUMP JUMPDEST PUSH1 0x0 DUP2 SWAP1 POP SWAP3 SWAP2 POP POP JUMP JUMPDEST PUSH1 0x0 PUSH2 0x2630 DUP3 PUSH2 0x260F JUMP JUMPDEST PUSH2 0x263A DUP2 DUP6 PUSH2 0x261A JUMP JUMPDEST SWAP4 POP PUSH2 0x264A DUP2 DUP6 PUSH1 0x20 DUP7 ADD PUSH2 0x252C JUMP JUMPDEST DUP1 DUP5 ADD SWAP2 POP POP SWAP3 SWAP2 POP POP JUMP JUMPDEST PUSH1 0x0 PUSH2 0x2662 DUP3 DUP5 PUSH2 0x2625 JUMP JUMPDEST SWAP2 POP DUP2 SWAP1 POP SWAP3 SWAP2 POP POP JUMP JUMPDEST PUSH2 0x2676 DUP2 PUSH2 0x1B1D JUMP JUMPDEST DUP2 EQ PUSH2 0x2681 JUMPI PUSH1 0x0 DUP1 REVERT JUMPDEST POP JUMP JUMPDEST PUSH1 0x0 DUP2 MLOAD SWAP1 POP PUSH2 0x2693 DUP2 PUSH2 0x266D JUMP JUMPDEST SWAP3 SWAP2 POP POP JUMP JUMPDEST PUSH1 0x0 PUSH1 0x20 DUP3 DUP5 SUB SLT ISZERO PUSH2 0x26AF JUMPI PUSH2 0x26AE PUSH2 0x1A2B JUMP JUMPDEST JUMPDEST PUSH1 0x0 PUSH2 0x26BD DUP5 DUP3 DUP6 ADD PUSH2 0x2684 JUMP JUMPDEST SWAP2 POP POP SWAP3 SWAP2 POP POP JUMP JUMPDEST PUSH1 0x0 PUSH1 0x60 DUP3 ADD SWAP1 POP PUSH2 0x26DB PUSH1 0x0 DUP4 ADD DUP7 PUSH2 0x1C60 JUMP JUMPDEST PUSH2 0x26E8 PUSH1 0x20 DUP4 ADD DUP6 PUSH2 0x1C60 JUMP JUMPDEST PUSH2 0x26F5 PUSH1 0x40 DUP4 ADD DUP5 PUSH2 0x1A98 JUMP JUMPDEST SWAP5 SWAP4 POP POP POP POP JUMP JUMPDEST PUSH1 0x0 PUSH2 0x2708 DUP3 PUSH2 0x1A35 JUMP JUMPDEST SWAP2 POP PUSH2 0x2713 DUP4 PUSH2 0x1A35 JUMP JUMPDEST SWAP3 POP DUP3 DUP3 SUB SWAP1 POP DUP2 DUP2 GT ISZERO PUSH2 0x272B JUMPI PUSH2 0x272A PUSH2 0x20F3 JUMP JUMPDEST JUMPDEST SWAP3 SWAP2 POP POP JUMP INVALID LOG2 PUSH5 0x6970667358 0x22 SLT KECCAK256 RETURNDATASIZE 0xC8 MULMOD DUP7 DUP3 0x23 0xF8 SWAP3 0x4A CALLER 0xE8 0xA8 SHR 0xC4 PUSH14 0x7E0C506626C83D5F7BB52371CF4F 0x49 PUSH22 0x3964736F6C6343000812003300000000000000000000 "
		},
		"gasEstimates": {
			"creation": {
				"codeDepositCost": "2017400",
				"executionCost": "infinite",
				"totalCost": "infinite"
			},
			"external": {
				"buy(uint256,uint256)": "infinite",
				"buyOrders(uint256)": "infinite",
				"cancelBuy(uint256)": "infinite",
				"cancelSell(uint256)": "51296",
				"getOrders()": "infinite",
				"highestBid()": "2495",
				"lowestAsk()": "2473",
				"nextOrderId()": "2474",
				"quote()": "infinite",
				"sell(uint256,uint256)": "infinite",
				"sellOrders(uint256)": "infinite"
			},
			"internal": {
				"matchOrders()": "infinite",
				"updateQuoting()": "infinite"
			}
		},
		"methodIdentifiers": {
			"buy(uint256,uint256)": "d6febde8",
			"buyOrders(uint256)": "35cea288",
			"cancelBuy(uint256)": "19df99a8",
			"cancelSell(uint256)": "07c9cd45",
			"getOrders()": "2e2dc43e",
			"highestBid()": "d57bde79",
			"lowestAsk()": "ae87820a",
			"nextOrderId()": "2a58b330",
			"quote()": "999b93af",
			"sell(uint256,uint256)": "d79875eb",
			"sellOrders(uint256)": "4a8393f3"
		}
	},
	"abi": [
		{
			"inputs": [
				{
					"internalType": "address",
					"name": "owner",
					"type": "address"
				},
				{
					"internalType": "address",
					"name": "offeringContractAddress",
					"type": "address"
				},
				{
					"internalType": "address",
					"name": "catContractAddress",
					"type": "address"
				}
			],
			"stateMutability": "nonpayable",
			"type": "constructor"
		},
		{
			"anonymous": false,
			"inputs": [
				{
					"indexed": true,
					"internalType": "string",
					"name": "currencyPair",
					"type": "string"
				},
				{
					"indexed": true,
					"internalType": "address",
					"name": "trader",
					"type": "address"
				},
				{
					"indexed": false,
					"internalType": "uint256",
					"name": "amount",
					"type": "uint256"
				},
				{
					"indexed": false,
					"internalType": "uint256",
					"name": "price",
					"type": "uint256"
				}
			],
			"name": "BuyOrderPlaced",
			"type": "event"
		},
		{
			"anonymous": false,
			"inputs": [
				{
					"indexed": true,
					"internalType": "string",
					"name": "currencyPair",
					"type": "string"
				},
				{
					"indexed": true,
					"internalType": "address",
					"name": "trader",
					"type": "address"
				},
				{
					"indexed": false,
					"internalType": "uint256",
					"name": "amount",
					"type": "uint256"
				},
				{
					"indexed": false,
					"internalType": "uint256",
					"name": "price",
					"type": "uint256"
				}
			],
			"name": "SellOrderPlaced",
			"type": "event"
		},
		{
			"anonymous": false,
			"inputs": [
				{
					"indexed": true,
					"internalType": "string",
					"name": "currencyPair",
					"type": "string"
				},
				{
					"indexed": true,
					"internalType": "address",
					"name": "buyer",
					"type": "address"
				},
				{
					"indexed": true,
					"internalType": "address",
					"name": "seller",
					"type": "address"
				},
				{
					"indexed": false,
					"internalType": "uint256",
					"name": "amount",
					"type": "uint256"
				},
				{
					"indexed": false,
					"internalType": "uint256",
					"name": "price",
					"type": "uint256"
				}
			],
			"name": "TradeExecuted",
			"type": "event"
		},
		{
			"anonymous": false,
			"inputs": [
				{
					"indexed": false,
					"internalType": "address",
					"name": "sender",
					"type": "address"
				},
				{
					"indexed": false,
					"internalType": "uint256",
					"name": "amount",
					"type": "uint256"
				}
			],
			"name": "ValueTransferred",
			"type": "event"
		},
		{
			"inputs": [
				{
					"internalType": "uint256",
					"name": "quantity",
					"type": "uint256"
				},
				{
					"internalType": "uint256",
					"name": "price",
					"type": "uint256"
				}
			],
			"name": "buy",
			"outputs": [],
			"stateMutability": "payable",
			"type": "function"
		},
		{
			"inputs": [
				{
					"internalType": "uint256",
					"name": "",
					"type": "uint256"
				}
			],
			"name": "buyOrders",
			"outputs": [
				{
					"internalType": "uint256",
					"name": "orderId",
					"type": "uint256"
				},
				{
					"internalType": "address",
					"name": "wallet",
					"type": "address"
				},
				{
					"internalType": "uint256",
					"name": "quantity",
					"type": "uint256"
				},
				{
					"internalType": "uint256",
					"name": "price",
					"type": "uint256"
				},
				{
					"internalType": "uint256",
					"name": "paid",
					"type": "uint256"
				}
			],
			"stateMutability": "view",
			"type": "function"
		},
		{
			"inputs": [
				{
					"internalType": "uint256",
					"name": "orderId",
					"type": "uint256"
				}
			],
			"name": "cancelBuy",
			"outputs": [],
			"stateMutability": "nonpayable",
			"type": "function"
		},
		{
			"inputs": [
				{
					"internalType": "uint256",
					"name": "orderId",
					"type": "uint256"
				}
			],
			"name": "cancelSell",
			"outputs": [],
			"stateMutability": "nonpayable",
			"type": "function"
		},
		{
			"inputs": [],
			"name": "getOrders",
			"outputs": [
				{
					"components": [
						{
							"internalType": "uint256",
							"name": "orderId",
							"type": "uint256"
						},
						{
							"internalType": "address",
							"name": "wallet",
							"type": "address"
						},
						{
							"internalType": "uint256",
							"name": "quantity",
							"type": "uint256"
						},
						{
							"internalType": "uint256",
							"name": "price",
							"type": "uint256"
						},
						{
							"internalType": "uint256",
							"name": "paid",
							"type": "uint256"
						}
					],
					"internalType": "struct OrderBook.Order[]",
					"name": "",
					"type": "tuple[]"
				},
				{
					"components": [
						{
							"internalType": "uint256",
							"name": "orderId",
							"type": "uint256"
						},
						{
							"internalType": "address",
							"name": "wallet",
							"type": "address"
						},
						{
							"internalType": "uint256",
							"name": "quantity",
							"type": "uint256"
						},
						{
							"internalType": "uint256",
							"name": "price",
							"type": "uint256"
						},
						{
							"internalType": "uint256",
							"name": "paid",
							"type": "uint256"
						}
					],
					"internalType": "struct OrderBook.Order[]",
					"name": "",
					"type": "tuple[]"
				}
			],
			"stateMutability": "view",
			"type": "function"
		},
		{
			"inputs": [],
			"name": "highestBid",
			"outputs": [
				{
					"internalType": "uint256",
					"name": "",
					"type": "uint256"
				}
			],
			"stateMutability": "view",
			"type": "function"
		},
		{
			"inputs": [],
			"name": "lowestAsk",
			"outputs": [
				{
					"internalType": "uint256",
					"name": "",
					"type": "uint256"
				}
			],
			"stateMutability": "view",
			"type": "function"
		},
		{
			"inputs": [],
			"name": "nextOrderId",
			"outputs": [
				{
					"internalType": "uint256",
					"name": "",
					"type": "uint256"
				}
			],
			"stateMutability": "view",
			"type": "function"
		},
		{
			"inputs": [],
			"name": "quote",
			"outputs": [
				{
					"internalType": "uint256",
					"name": "",
					"type": "uint256"
				},
				{
					"internalType": "uint256",
					"name": "",
					"type": "uint256"
				}
			],
			"stateMutability": "view",
			"type": "function"
		},
		{
			"inputs": [
				{
					"internalType": "uint256",
					"name": "quantity",
					"type": "uint256"
				},
				{
					"internalType": "uint256",
					"name": "price",
					"type": "uint256"
				}
			],
			"name": "sell",
			"outputs": [],
			"stateMutability": "nonpayable",
			"type": "function"
		},
		{
			"inputs": [
				{
					"internalType": "uint256",
					"name": "",
					"type": "uint256"
				}
			],
			"name": "sellOrders",
			"outputs": [
				{
					"internalType": "uint256",
					"name": "orderId",
					"type": "uint256"
				},
				{
					"internalType": "address",
					"name": "wallet",
					"type": "address"
				},
				{
					"internalType": "uint256",
					"name": "quantity",
					"type": "uint256"
				},
				{
					"internalType": "uint256",
					"name": "price",
					"type": "uint256"
				},
				{
					"internalType": "uint256",
					"name": "paid",
					"type": "uint256"
				}
			],
			"stateMutability": "view",
			"type": "function"
		}
	]
}